:020000040800F2
:1000000000000420058100085D1A00085F1A00083E
:10001000611A0008631A0008651A00080000000051
:10002000000000000000000000000000671A000847
:10003000691A0008000000006B1A00086D1A000819
:100040005581000855810008558100085581000838
:100050005581000855810008558100085581000828
:100060005581000855810008558100085581000818
:100070005581000855810008558100085581000808
:1000800055810008558100085581000855810008F8
:1000900055810008558100085581000855810008E8
:1000A00055810008558100085581000855810008D8
:1000B00055810008558100085581000855810008C8
:1000C00055810008558100085581000855810008B8
:1000D00055810008558100085581000855810008A8
:1000E0005581000855810008558100085581000898
:1000F0005581000855810008558100085581000888
:100100005581000855810008558100085581000877
:100110005581000855810008558100085581000867
:1001200055810008851A0008751A000855810008D5
:1001300055810008000000000000000000000000E1
:1001400000000000000000000000000055810008D1
:100150005581000855810008558100085581000827
:10016000558100085581000855810008951A00083E
:1001700055810008A51A00080000000055810008FC
:1001800055810008558100085581000855810008F7
:1001900055810008558100080000000055810008C5
:1001A0000000000000000000000000005581000871
:1001B0005581000855810008000000000000000083
:1001C000000000000000000000000000000000002F
:1001D0000000000000000000000000005581000841
:1002000010B5054C237833B9044B13B10448AFF350
:1002100000800123237010BDD00A002000000000E0
:10022000ACE1000808B5034B1BB103490348AFF329
:10023000008008BD00000000D40A0020ACE10008E6
:1002400053B94AB9002908BF00281CBF4FF0FF313D
:100250004FF0FF3000F06EB9ADF1080C6DE904CE3F
:1002600000F006F8DDF804E0DDE9022304B0704791
:100270002DE9F047089D04468C46002B40F0838012
:100280008A42174647D9B2FA82F242B1C2F120003F
:1002900024FA00F09140974040EA010C94404FEA64
:1002A0001748230CBCFBF8F61FFA87FE08FB16C1A3
:1002B00043EA014306FB0EF1994209D9FB1806F106
:1002C000FF3080F01981994240F21681023E3B4492
:1002D0005B1AA4B2B3FBF8F008FB103344EA034402
:1002E00000FB0EFEA64509D93C1900F1FF3380F052
:1002F0000581A64540F2028102383C4440EA0640AE
:10030000A4EB0E0400261DB1D4400023C5E9004330
:100310003146BDE8F08702B9FFDEB2FA82F2002A68
:1003200050D1CB1B4FEA174E1FFA87F80126B3FBBB
:10033000FEFC210C0EFB1C3341EA034108FB0CF3CD
:100340008B4207D979180CF1FF3002D28B4200F2B0
:10035000E9808446C91AA3B2B1FBFEF00EFB10116E
:1003600043EA014408FB00F8A04507D93C1900F115
:10037000FF3302D2A04500F2D9801846A4EB08044E
:1003800040EA0C40BFE78B4209D9002D00F0B18054
:100390000026C5E9000130463146BDE8F087B3FAD2
:1003A00083F6002E4AD18B4202D3824200F2B880FB
:1003B000841A61EB030101208C46002DA8D0C5E909
:1003C000004CA5E7C2F1200320FA03F6974001FA9A
:1003D00002F04FEA174ED9403043030CB1FBFEF652
:1003E0001FFA87F80EFB161143EA014306FB08F1DA
:1003F000994204FA02F409D9FB1806F1FF3C80F097
:100400008D80994240F28A80023E3B445B1A81B261
:10041000B3FBFEF00EFB103341EA034100FB08F38F
:100420008B4207D9791800F1FF3C73D28B4271D906
:1004300002383944CB1A40EA064678E7C6F1200C68
:1004400003FA06F422FA0CF31C4320FA0CF701FA23
:1004500006F34FEA144E21FA0CF11F433B0CB1FB9B
:10046000FEF91FFA84F80EFB191143EA014109FB5A
:1004700008FA8A4502FA06F200FA06F308D961186A
:1004800009F1FF3048D28A4546D9A9F10209214431
:10049000A1EB0A01BFB2B1FBFEF00EFB101147EA5F
:1004A000014700FB08F8B84507D9E71900F1FF310B
:1004B0002ED2B8452CD90238274440EA0940A7EB90
:1004C0000807A0FB02894F45C64649461AD317D0F4
:1004D0005DB1B3EB0E0267EB010707FA0CFCF240CB
:1004E0004CEA0202F740C5E9002700263146BDE884
:1004F000F0872E4628460BE70646E9E61846FDE655
:100500004345E5D2B8EB020E69EB04010138DFE7A1
:100510000846D2E760468DE78146B9E7664675E74B
:1005200030464AE7ACF1020C394413E702383C4448
:1005300024E700BF704700BF00000000000000007B
:1005400090F800F06DE9024520F007016FF0000C13
:1005500010F0070491F820F040F049804FF00004BB
:100560006FF00700D1E9002391F840F000F1080096
:1005700082FA4CF2A4FA8CF283FA4CF3A2FA8CF3CE
:100580004BBBD1E9022382FA4CF200F10800A4FA35
:100590008CF283FA4CF3A2FA8CF3E3B9D1E9042389
:1005A00082FA4CF200F10800A4FA8CF283FA4CF3C0
:1005B000A2FA8CF37BB9D1E9062301F1200182FA7A
:1005C0004CF200F10800A4FA8CF283FA4CF3A2FA80
:1005D0008CF3002BC6D0002A04BF04301A4612BA8E
:1005E000B2FA82F2FDE8024500EBD2007047D1E991
:1005F000002304F00305C4F100004FEAC50514F020
:10060000040F91F840F00CFA05F562EA05021CBFF0
:1006100063EA050362464FF00004A9E7000000000A
:1006200001F0FF01102A2BDB10F0070F08D010F8A3
:10063000013B013A8B422DD010F0070F42B3F6D1A7
:10064000F0B441EA012141EA014122F007047FF0C0
:1006500000070023F0E80256083C85EA010586EA17
:10066000010685FA47F5A3FA87F586FA47F6A5FA53
:1006700087F68EB9EED1F0BC01F0FF0102F007025F
:1006800032B110F8013B013A83EA010313B1F8D10A
:100690000020704701387047002D06BF35460338EB
:1006A000073815F0010F07D1013015F4807F02BF24
:1006B000013015F4C03F0130F0BC0138704700BF75
:1006C000844641EA000313F003036DD1403A41D35D
:1006D00051F8043B40F8043B51F8043B40F8043B1C
:1006E00051F8043B40F8043B51F8043B40F8043B0C
:1006F00051F8043B40F8043B51F8043B40F8043BFC
:1007000051F8043B40F8043B51F8043B40F8043BEB
:1007100051F8043B40F8043B51F8043B40F8043BDB
:1007200051F8043B40F8043B51F8043B40F8043BCB
:1007300051F8043B40F8043B51F8043B40F8043BBB
:1007400051F8043B40F8043B51F8043B40F8043BAB
:10075000403ABDD2303211D351F8043B40F8043B4B
:1007600051F8043B40F8043B51F8043B40F8043B8B
:1007700051F8043B40F8043B103AEDD20C3205D35B
:1007800051F8043B40F8043B043AF9D2043208D053
:10079000D2071CBF11F8013B00F8013B01D30B88C5
:1007A00003806046704700BF082A13D38B078DD0A3
:1007B00010F003038AD0C3F10403D21ADB071CBF75
:1007C00011F8013B00F8013B80D331F8023B20F8DF
:1007D000023B7BE7043AD9D3013A11F8013B00F818
:1007E000013BF9D20B7803704B7843708B788370A0
:1007F0006046704781F0004102E000BF83F0004393
:1008000030B54FEA41044FEA430594EA050F08BFAB
:1008100090EA020F1FBF54EA000C55EA020C7FEA6F
:10082000645C7FEA655C00F0E2804FEA5454D4EBEC
:100830005555B8BF6D420CDD2C4480EA020281EAB6
:10084000030382EA000083EA010180EA020281EAEE
:100850000303362D88BF30BD11F0004F4FEA013140
:100860004FF4801C4CEA113102D0404261EB41014F
:1008700013F0004F4FEA03334CEA133302D05242D5
:1008800063EB430394EA050F00F0A780A4F1010491
:10089000D5F1200E0DDB02FA0EFC22FA05F28018CB
:1008A00041F1000103FA0EF2801843FA05F35941B1
:1008B0000EE0A5F120050EF1200E012A03FA0EFC30
:1008C00028BF4CF0020C43FA05F3C01851EBE3715A
:1008D00001F0004507D54FF0000EDCF1000C7EEB77
:1008E00000006EEB0101B1F5801F1BD3B1F5001FB5
:1008F0000CD349085FEA30004FEA3C0C04F10104D4
:100900004FEA445212F5800F80F09A80BCF1004FFC
:1009100008BF5FEA500C50F1000041EB045141EA7E
:10092000050130BD5FEA4C0C404141EB0101013C47
:1009300028BFB1F5801FE9D291F0000F04BF014636
:100940000020B1FA81F308BF2033A3F10B03B3F108
:1009500020020CDA0C3208DD02F1140CC2F10C0298
:1009600001FA0CF021FA02F10CE002F11402D8BFF6
:10097000C2F1200C01FA02F120FA0CFCDCBF41EAC2
:100980000C019040E41AA2BF01EB0451294330BD91
:100990006FEA04041F3C1CDA0C340EDC04F114046E
:1009A000C4F1200220FA04F001FA02F340EA030045
:1009B00021FA04F345EA030130BDC4F10C04C4F18B
:1009C000200220FA02F001FA04F340EA030029466B
:1009D00030BD21FA04F0294630BD94F0000F83F4B5
:1009E000801306BF81F480110134013D4EE77FEA98
:1009F000645C18BF7FEA655C29D094EA050F08BFE4
:100A000090EA020F05D054EA000C04BF19461046C4
:100A100030BD91EA030F1EBF0021002030BD5FEA08
:100A2000545C05D14000494128BF41F0004130BD30
:100A300014F580043CBF01F5801130BD01F0004584
:100A400045F0FE4141F470014FF0000030BD7FEAF7
:100A5000645C1ABF194610467FEA655C1CBF0B46F2
:100A6000024650EA013406BF52EA033591EA030F09
:100A700041F4002130BD00BF90F0000F04BF002101
:100A8000704730B54FF4806404F132044FF0000534
:100A90004FF0000150E700BF90F0000F04BF0021AD
:100AA000704730B54FF4806404F1320410F0004513
:100AB00048BF40424FF000013EE700BF42004FEA0E
:100AC000E2014FEA31014FEA02701FBF12F07F438B
:100AD00093F07F4F81F06051704732F07F4208BF42
:100AE000704793F07F4F04BF41F40021704730B549
:100AF0004FF4607401F0004521F000411CE700BF95
:100B000050EA010208BF704730B54FF000050AE017
:100B100050EA010208BF704730B511F0004502D518
:100B2000404261EB41014FF4806404F132045FEA1A
:100B3000915C3FF4D8AE4FF003025FEADC0C18BFC3
:100B400003325FEADC0C18BF033202EBDC02C2F1B5
:100B5000200300FA03FC20FA02F001FA03FE40EA47
:100B60000E0021FA02F11444BDE600BF70B54FF04B
:100B7000FF0C4CF4E06C1CEA11541DBF1CEA135529
:100B800094EA0C0F95EA0C0F00F0DEF82C4481EA91
:100B9000030621EA4C5123EA4C5350EA013518BFB1
:100BA00052EA033541F4801143F4801338D0A0FB9E
:100BB00002CE4FF00005E1FB02E506F00042E0FB4B
:100BC00003E54FF00006E1FB03569CF0000F18BF51
:100BD0004EF0010EA4F1FF04B6F5007F64F54074F9
:100BE00004D25FEA4E0E6D4146EB060642EAC6218C
:100BF00041EA55514FEAC52040EA5E504FEACE2EF9
:100C0000B4F1FD0C88BFBCF5E06F1ED8BEF1004FFB
:100C100008BF5FEA500E50F1000041EB045170BD77
:100C200006F0004646EA010140EA020081EA0301BB
:100C3000B4EB5C04C2BFD4EB0C0541EA045170BDB7
:100C400041F480114FF0000E013C00F3AB8014F131
:100C5000360FDEBF002001F0004170BDC4F100047A
:100C6000203C35DA0C341BDC04F11404C4F12005FB
:100C700000FA05F320FA04F001FA05F240EA020056
:100C800001F0004221F0004110EBD37021FA04F68C
:100C900042EB06015EEA430E08BF20EAD37070BD46
:100CA000C4F10C04C4F1200500FA04F320FA05F0A5
:100CB00001FA04F240EA020001F0004110EBD370A7
:100CC00041F100015EEA430E08BF20EAD37070BD17
:100CD000C4F1200500FA05F24EEA020E20FA04F3F0
:100CE00001FA05F243EA020321FA04F001F000419F
:100CF00021FA04F220EA020000EBD3705EEA430E10
:100D000008BF20EAD37070BD94F0000F0FD101F03E
:100D10000046400041EB010111F4801F08BF013C77
:100D2000F7D041EA060195F0000F18BF704703F0B5
:100D30000046520043EB030313F4801F08BF013D3C
:100D4000F7D043EA0603704794EA0C0F0CEA1355F8
:100D500018BF95EA0C0F0CD050EA410618BF52EAB2
:100D60004306D1D181EA030101F000414FF00000B8
:100D700070BD50EA410606BF1046194652EA4306C6
:100D800019D094EA0C0F02D150EA013613D195EA3A
:100D90000C0F05D152EA03361CBF104619460AD182
:100DA00081EA030101F0004141F0FE4141F470018C
:100DB0004FF0000070BD41F0FE4141F4780170BD7C
:100DC00070B54FF0FF0C4CF4E06C1CEA11541DBFE1
:100DD0001CEA135594EA0C0F95EA0C0F00F0A7F8E3
:100DE000A4EB050481EA030E52EA03354FEA013110
:100DF00000F088804FEA03334FF0805545EA131323
:100E000043EA12634FEA022245EA111545EA1065EA
:100E10004FEA00260EF000419D4208BF964244F181
:100E2000FD0404F5407402D25B084FEA3202B61AA0
:100E300065EB03055B084FEA32024FF480104FF474
:100E4000002CB6EB020E75EB030E22BFB61A7546E8
:100E500040EA0C005B084FEA3202B6EB020E75EB7B
:100E6000030E22BFB61A754640EA5C005B084FEAE3
:100E70003202B6EB020E75EB030E22BFB61A7546B0
:100E800040EA9C005B084FEA3202B6EB020E75EBBB
:100E9000030E22BFB61A754640EADC0055EA060E7C
:100EA00018D04FEA051545EA16754FEA06164FEABF
:100EB000C30343EA52734FEAC2025FEA1C1CC0D16B
:100EC00011F4801F0BD141EA00014FF000004FF0F8
:100ED000004CB6E711F4801F04BF01430020B4F1B9
:100EE000FD0C88BFBCF5E06F3FF6AFAEB5EB030C71
:100EF00004BFB6EB020C5FEA500C50F1000041EB6E
:100F0000045170BD0EF0004E4EEA113114EB5C043A
:100F1000C2BFD4EB0C0541EA045170BD41F480110D
:100F20004FF0000E013C90E645EA060E8DE60CEA15
:100F3000135594EA0C0F08BF95EA0C0F3FF43BAF32
:100F400094EA0C0F0AD150EA01347FF434AF95EAE9
:100F50000C0F7FF425AF104619462CE795EA0C0FCD
:100F600006D152EA03353FF4FDAE1046194622E79A
:100F700050EA410618BF52EA43067FF4C5AE50EA74
:100F800041047FF40DAF52EA43057FF4EBAE12E764
:100F90004FF0FF3C06E000BF4FF0010C02E000BF45
:100FA0004FF0010C4DF804CD4FEA410C7FEA6C5C28
:100FB0004FEA430C18BF7FEA6C5C1BD001B050EACB
:100FC000410C0CBF52EA430C91EA030F02BF90EAB6
:100FD000020F0020704710F1000F91EA030F58BF75
:100FE000994208BF90422CBFD8176FEAE37040F0D7
:100FF000010070474FEA410C7FEA6C5C02D150EA75
:10100000013C07D14FEA430C7FEA6C5CD6D152EA2F
:10101000033CD3D05DF8040B704700BF84461046F4
:1010200062468C461946634600E000BF01B5FFF7F3
:10103000B7FF002848BF10F1000F01BD4DF808EDC3
:10104000FFF7F4FF0CBF012000205DF808FB00BF94
:101050004DF808EDFFF7EAFF34BF012000205DF8EE
:1010600008FB00BF4DF808EDFFF7E0FF94BF01203B
:1010700000205DF808FB00BF4DF808EDFFF7CEFF3C
:1010800094BF012000205DF808FB00BF4DF808ED7B
:10109000FFF7C4FF34BF012000205DF808FB00BF4C
:1010A0004FEA410C7FEA6C5C02D150EA013C0AD164
:1010B0004FEA430C7FEA6C5C02D152EA033C02D156
:1010C0004FF0000070474FF0010070474FEA4102B7
:1010D00012F5001215D211D56FF47873B3EB62528A
:1010E00012D94FEAC12343F0004343EA505311F0B1
:1010F000004F23FA02F018BF404270474FF0000043
:10110000704750EA013005D111F0004008BF6FF080
:10111000004070474FF00000704700BF30B5B5B0D9
:101120002E4B1B6833934FF000033022002107A899
:1011300007F000FB002402940394049405940694A1
:101140008022214613A807F0F5FA254B1A6C42F0CD
:1011500080521A641B6C03F080530093009B214B58
:101160001A6842F440421A601B6803F4404301933A
:10117000019B012307934FF48033089302250D95BB
:101180004FF480030E9319230F934FF4D8731093E9
:1011900011950923129307A803F028FB03F0E8FA3E
:1011A0000F230293039504944FF4A05305934FF437
:1011B00080530693072102A803F0DEFD4FF40013CD
:1011C0001393309413A803F0EDFE044B1A68339B7D
:1011D0005A4001D135B030BD07F046FBC8E10008E8
:1011E000003802400070004080B5A0B0984B1B68EA
:1011F0001F934FF0000301F043F8FFF78FFF002427
:1012000014941594169417941894924D2B6B43F0E4
:1012100010032B632B6B03F010030493049B2B6BC5
:1012200043F020032B632B6B03F020030593059BF6
:101230002B6B43F080032B632B6B03F0800306932F
:10124000069B2B6B43F001032B632B6B03F0010315
:101250000793079B2B6B43F002032B632B6B03F06D
:1012600002030893089B2B6B43F004032B632B6B47
:1012700003F004030993099B774E22464FF4407113
:10128000304602F06FFC40F6FF77149715941694E1
:1012900014A9724802F0F6FA14971594169414A93A
:1012A0006F4802F0EFFA4FF440771497012315933B
:1012B0001694179414A9304602F0E4FA4FF400464D
:1012C00014961594169414A9664802F0DBFA2B6B59
:1012D00043F480032B632B6B03F480030393039B82
:1012E00022460521392001F01BF8392001F05EF873
:1012F000224606213A2001F013F83A2001F056F870
:1013000059485A4B03604FF4827343608460C7604E
:10131000046144614FF4007383613823C361046244
:10132000446284620723C36204630823436304F0B6
:10133000D5FA0A940B940C940D940E940F94109477
:101340001194129413942C22214614A807F0F2F958
:10135000474D484B2B606C60AC602A23EB602C61DE
:101360006C61AC61284604F0E7FD40230A930B94BE
:101370000C940AA9284605F041FA60230D93152321
:101380000E930F94109411941294139422460DA965
:10139000284604F0B5FE0D9404220DA9284604F059
:1013A000AFFE149415941694179418944FF40053A8
:1013B00019931A941B944FF000731C931D941E9460
:1013C00014A9284605F0C8FA284600F00BFB00F0E7
:1013D00011FF00F05FF8DFF8AC9032462146484636
:1013E00007F0A8F9DFF8A0A032462146504607F0E2
:1013F000A1F9214F32462146384607F09BF9DFF824
:101400008C8032462146404607F094F9284604F085
:10141000D5FC4FF48044009453464A461749686A05
:1014200001F09EFA009443463A461549A86A01F035
:1014300097FA00F0C7F900F0DDF980214FF48060E1
:1014400000F03AF84FF47A7000F038FFF3E700BF8D
:10145000CCE10008003802400008024000100240C1
:10146000001402400000024038100020003001400B
:10147000F80F002000000140008001201010024001
:101480001014024000800220000002200000012011
:1014900070477047044B054A1A60054BD3F8002487
:1014A000044B1A60704700BF9C10002000000440ED
:1014B000C0100020F40E002070B504460E460B4606
:1014C00002464A494A4807F0A3F94A4B1B6803F50C
:1014D00016631B692BB9484B1B6893F87432032BB6
:1014E00000D070BD4FF40073414A8321434800F09F
:1014F00099FC0025424B1D70424B1D70202229464D
:10150000414807F017F906FB04F6B20B3F4B1A608F
:101510003F480368DA6842F40072DA60DA6842F43D
:101520008062DA60294604F0E7FF38B904213848C0
:1015300004F0E2FF88B1FFF7ABFF0EE0FFF7A8FF72
:10154000F4E700BF304D2C696B691C44052C0CD8A6
:10155000AC69EB691C44052C07D8294B1B78002B80
:10156000EFD0284B1B78002BEBD00021284805F04A
:101570007FF8002830D10421254805F079F80028AB
:101580002DD1234B1B68DA6822F40072DA60DA6826
:1015900022F48062DA601D4B1B68A6EB833676006E
:1015A0009FD01B4B5B6A1B681B6813F4002F19D07C
:1015B000184A33468121114800F034FC144B9B6AD1
:1015C0001B681B6813F4002F0ED0134A3346822188
:1015D0000A4800F027FC84E7FFF75AFFCBE7FFF744
:1015E00057FFCEE70D4AE4E70D4AEFE7D0E10008E8
:1015F000F40C00209C100020F40E0020C4160020E3
:10160000F00C0020F10C0020A0100020EC0A0020BB
:10161000F80F0020000002200000012000800220BE
:101620000080012008B5134A136811690B44506803
:10163000034452691344104A1268934209D20F4B73
:101640001B6803F512631B693BB10131094B19613A
:1016500002E00B4B01221A7008BD4FF40043094A07
:101660008121094800F0DEFB024A13680133136050
:10167000F2E700BFA0100020EC0A00209C10002020
:10168000F00C002000800220C416002008B5134A88
:10169000136811690B4451680B4452691344104993
:1016A00009688B4209D20F4B1B6803F514631B6951
:1016B0003BB10132094B5A6102E00B4B01221A7017
:1016C00008BD4FF40043094A8121094800F0AAFBF4
:1016D000024A536801335360F2E700BFA0100020B4
:1016E000EC0A00209C100020F00C002000000220DA
:1016F000C416002008B5134A936891690B44D0685A
:101700000344D2691344104A1268934209D20F4B22
:101710001B6803F514631B693BB10131094B9961E7
:1017200002E00B4B01221A7008BD4FF40043094A36
:101730008221094800F076FB024A936801339360E6
:10174000F2E700BFA0100020EC0A00209C1000204F
:10175000F10C002000800120C416002008B5134AB7
:10176000936891690B44D1680B44D26913441049C2
:1017700009688B4209D20F4B1B6803F514631B6980
:101780003BB10132094BDA6102E00B4B01221A70C6
:1017900008BD4FF40043094A8221094800F042FB8A
:1017A000024AD3680133D360F2E700BFA0100020E3
:1017B000EC0A00209C100020F10C00200000012009
:1017C000C416002008B54FF40073074A01210748EA
:1017D00000F037FB064B1B6803F532631B690BB93E
:1017E00000BFF7E708BD00BFF00A0020C4160020C4
:1017F0009C10002008B54FF40041074802F09EF904
:1018000010B100BFF7E700BF4FF40041024802F0FB
:1018100095F90028F7D008BD0000024082B00A4BBD
:101820001A6C42F080521A641A6C02F080520092D4
:10183000009A5A6C42F480425A645B6C03F4804311
:101840000193019B02B070470038024000B589B097
:101850001D4B1B6807934FF0000300230293039373
:101860000493059306930268184B9A4207D0164BCF
:101870001A68079B5A4025D109B05DF804FB03F5AF
:1018800084335A6C42F480525A645A6C02F4805287
:101890000092009A1A6B42F001021A631B6B03F06C
:1018A00001030193019BE02302930223039300238E
:1018B0000493032305930523069302A9044801F02A
:1018C000E1FFD4E706F0D0FFE4E10008003001407A
:1018D0000000024002683A4B9A4200D0704710B5AF
:1018E00082B0044603F59C335A6C42F001025A64FC
:1018F0005B6C03F001030193019B3248324B0360A0
:101900004FF04063436000238360C3604FF4806204
:1019100002614FF4006242614FF4005282614FF461
:101920008072C261C36203634FF400320262436299
:10193000264BC363264B436400F066FD002839D173
:101940002448254B03604FF04063436000238360CD
:10195000C3604FF4806202614FF4006242614FF451
:10196000005282614FF48072C261C36203634FF41C
:10197000803202624362194BC363194B436400F027
:1019800043FDD0B90F4B63629C63124BA3629C630F
:10199000002211461A2000F0C3FC1A2000F006FDB8
:1019A000002211461B2000F0BBFC1B2000F0FEFCB7
:1019B00002B010BDFFF76CFDC2E7FFF769FDE1E77C
:1019C00000000140980F00202864024025160008FE
:1019D0008D160008380F002040640240F5160008FC
:1019E0005D17000800B589B0194B1B6807934FF0CD
:1019F0000003002302930393049305930693026864
:101A0000144B9A4207D0124B1A68079B5A401CD1BC
:101A100009B05DF804FB03F59C331A6B42F0010238
:101A20001A631B6B03F001030193019B4FF4807356
:101A30000293022303930022049205930123069349
:101A400002A9054801F01EFFDDE706F00DFF00BF0B
:101A5000E8E1000800000140000002407047FEE796
:101A6000FEE7FEE7FEE770477047704708B500F0F5
:101A700013FC08BD08B5024800F084FE08BD00BF95
:101A8000380F002008B5024800F07CFE08BD00BFFA
:101A9000980F002008B5024802F03AF908BD00BFCF
:101AA000C010002008B5024802F032F908BD00BF9E
:101AB000C01000200F49D1F8883043F47003C1F8FA
:101AC00088300D4B1A6842F001021A6000209860BD
:101AD0001A6822F0847222F480321A60074A5A602F
:101AE0001A6822F480221A60D8604FF000638B607D
:101AF000704700BF00ED00E00038024010300024C5
:101B000030B58BB02E4B1B6809934FF000030023B8
:101B1000049305930693079308930268294B9A420E
:101B200006D0274B1A68099B5A4046D10BB030BDEE
:101B3000254C236B43F002032363236B03F0020362
:101B40000093009B4FF44043049302230593002528
:101B50000695032307930C23089304A91B4801F05F
:101B600091FE636C43F000436364636C03F00043D5
:101B70000193019B236B43F000532363236B03F01A
:101B800000530293029B236B43F080432363236B38
:101B900003F080430393039B2A4629464B2000F021
:101BA000BFFB4B2000F002FC2A4629464D2000F0E6
:101BB000B7FB4D2000F0FAFBB3E706F055FE00BF7F
:101BC000FCE100080000044000380240000402402C
:101BD00008B500F57171D0F8000405F0B0FD08BD3E
:101BE00008B5C1EBC10300EB8303D3F80822D0F89A
:101BF000000405F0D0FD08BD08B5C1EBC10300EB42
:101C000083039A6CD0F8000405F0FFFD08BD08B509
:101C1000D0F8000405F096FE08BD10B50446C36870
:101C20003BB1022B01D1012104E0FFF731FC01217E
:101C300000E00021D4F8000405F06DFED4F80004A3
:101C400005F040FE10BD000010B50446D0F80004B9
:101C500005F064FE2268D2F8003E43F00103C2F8AA
:101C6000003E236A23B1034A136943F0060313615C
:101C700010BD00BF00ED00E008B5D0F8000405F08D
:101C800056FE08BD08B5D0F8000405F06BFE08BD8F
:101C900008B5D0F8000405F063FE08BD08B5D0F81B
:101CA000000405F061FE08BD08B5D0F8000405F099
:101CB0005DFE08BD0378012B01D00020704710B5F0
:101CC0001C4BC3F80004C0F89C321B4A1A6009225E
:101CD0005A6000221A61032199610121D9611A62B7
:101CE0005A62DA621A635A63184601F057FFF0B974
:101CF000104C4FF40071204602F023FD8022002199
:101D0000204602F0FAFC4FF400720121204602F056
:101D1000F4FC4FF400720221204602F0EEFC4FF476
:101D200000720321204602F0E8FC002010BDFFF7FE
:101D3000AFFBDDE7C01000200000044008B5D0F87C
:101D40009C0201F0CFFF022805D8DFE800F005046F
:101D50000200012000E0022008BD10B514461A461A
:101D60002346D0F89C0202F073FB022805D8DFE876
:101D700000F005040200012000E0022010BD08B5BB
:101D8000D0F89C0202F0A7FB022805D8DFE800F09B
:101D900005040200012000E0022008BD08B5D0F8CB
:101DA0009C0202F02BFC022805D8DFE800F00504B5
:101DB0000200012000E0022008BD08B5D0F89C0216
:101DC00002F060FC022805D8DFE800F005040200FC
:101DD000012000E0022008BDD0F89C3211F0800FF5
:101DE00008D101F07F01C1EBC10103EB810191F842
:101DF000FE01704701F07F01C1EBC10103EB8101DE
:101E000091F83E00704708B5D0F89C0202F00CFB38
:101E1000022805D8DFE800F005040200012000E0F8
:101E2000022008BD08B5D0F89C0202F0BCFB0228D5
:101E300005D8DFE800F005040200012000E00220E0
:101E400008BD08B5D0F89C0202F07EFB022805D838
:101E5000DFE800F005040200012000E0022008BDD8
:101E600010B5044611B1012916D010BD036A5BB943
:101E70002268D2F8003E23F00103C2F8003ED4F8F5
:101E8000000405F054FDF0E7FFF748F90C4A136928
:101E900023F006031361EBE70268D2F8003E43F03B
:101EA0000103C2F8003ED0F8000405F037FD236AB4
:101EB000002BDAD0024A136943F006031361D4E71A
:101EC00000ED00E02E2303800048704788000020CA
:101ED0002E23038000487047880000202E230380B3
:101EE0000048704788000020D0F894320020187510
:101EF0007047D0F894320BB1002070470220704731
:101F00000A23038000487047C400002070B582B0E7
:101F1000484B1B6801934FF00003D0F89452002304
:101F2000ADF802300C7814F0600426D0202C73D168
:101F30004B78023B092B1CD8DFE803F014091B1B6C
:101F40001B1B1B1B0F058B786B60002467E00122B5
:101F5000291D06F0A3F8002461E04B881B0AAB6042
:101F600000245CE0012205F1080106F097F8002446
:101F700055E006F069F8022451E04E780B2E47D860
:101F8000DFE806F0064646464646154646462D3BE1
:101F900090F87432032B03D006F056F802243EE08A
:101FA00002220DEB020106F079F8344637E04B8847
:101FB0001B0A222B09D0212B0DD1CA88092A28BF40
:101FC00009221D4906F06AF829E0CA884A2A28BF72
:101FD0004A221A49F6E706F037F802241FE090F883
:101FE0007432032B03D006F02FF8022417E00122ED
:101FF00005F10C0106F052F811E090F87432032B51
:1020000002D18B78EB600AE006F01EF8022406E0AD
:1020100006F01AF8022402E006F016F80224054B36
:102020001A68019B5A4002D1204602B070BD06F0EA
:102030001BFC00BF00E20008B800002004000020E4
:1020400038B504468121FFF79AFE0025E56201219B
:102050002046FFF794FEC4F8585182212046FFF72E
:102060008EFE256483212046FFF789FE6565D4F83E
:10207000940218B106F09CF8C4F89452002038BDC0
:1020800038B504464FF4007302228121FFF765FE44
:102090000125E5624FF40073022229462046FFF72E
:1020A0005CFEC4F858514FF400730222822120468E
:1020B000FFF753FE25644FF400730222832120466C
:1020C000FFF74BFE6565182006F06AF8C4F8940225
:1020D00018B100230375184638BD0220FCE7000044
:1020E00012230B8000487047EC00002004230B8073
:1020F00000487047000100200023934217D230B4FB
:102100000BE0373401F8134000015C000134002576
:102110000D550133DBB2934207D2040FB0F1204FCB
:10212000EFD2303401F81340EEE730BC704770470F
:1021300038B51A230B800B4B186804331C68043322
:102140001B68C01801D1084838BD074D0822A91CDA
:10215000FFF7D2FF042205F112012046FFF7CCFF62
:10216000F1E700BF107AF01F0401002008B50A460D
:1021700028B90549054805F071FF034808BD024923
:10218000024805F06BFFF8E7C414002004E20008E1
:1021900010B50A46034C2146034805F05FFF204670
:1021A00010BD00BFC414002018E2000808B50A469C
:1021B00028B90549054805F051FF034808BD024903
:1021C000024805F04BFFF8E7C41400202CE2000899
:1021D00008B50A4628B90549054805F03FFF0348F8
:1021E00008BD0249024805F039FFF8E7C414002091
:1021F0003CE2000808B501220B490C4805F04CFAF6
:1022000048B90B49094805F063FA38B9074805F0A1
:1022100081FA30B908BDFFF73BF9F2E7FFF738F96B
:10222000F4E7FFF735F9F5E7D0000020C4160020E9
:102230005000002010B504460E4B18784FF47A7306
:10224000B3FBF0F30C4A1068B0FBF3F000F0C6F8F3
:1022500068B90F2C01D901200AE0002221464FF075
:10226000FF3000F05DF8054B1C60002000E001200D
:1022700010BD00BF1E010020000000202001002032
:1022800008B5032000F02EF80020FFF7D3FFFFF77A
:10229000C5FA002008BD0000034A1168034B1B78F3
:1022A0000B441360704700BF641900201E0100201A
:1022B000014B1868704700BF6419002038B5044608
:1022C000FFF7F6FF0546B4F1FF3F02D0044B1B7841
:1022D0001C44FFF7EDFF401BA042FAD338BD00BFFE
:1022E0001E01002010B50446C31E042B0FD80A4A55
:1022F000D36823F4E0631B041B0C240204F4E064A1
:10230000234343F0BF6343F40033D36010BD9221F5
:102310000248FFF7BEF8EAE700ED00E050E20008EF
:1023200070B505460C4616460F2A25D80F2C28D81E
:102330001B4BDB68C3F30223C3F10701042928BF49
:1023400004211A1D062A21D9033B4FF0FF3202FA5D
:1023500001F124EA01049C4002FA03F326EA030691
:102360003443002D14DB2401E4B205F1604505F58A
:10237000614585F8004370BDAA210A48FFF789F836
:10238000D4E7AB210748FFF784F8D1E70023DCE767
:1023900005F00F052401E4B2034B5C55EBE700BFE9
:1023A00000ED00E050E2000814ED00E010B5041E5E
:1023B0000ADB002C07DB04F01F02640901239340B1
:1023C000044A42F8243010BDBE210348FFF761F8EB
:1023D000EFE700BF00E100E050E200080138B0F193
:1023E000807F0AD2064B5860064AF02182F82310FB
:1023F0000020986007221A6070470120704700BFD4
:1024000010E000E000ED00E038B50446FFF750FFB3
:10241000002C00F0B48105462368A74A934231D0CE
:10242000183293422ED0183293422BD01832934256
:1024300028D01832934225D01832934222D0183235
:1024400093421FD0183293421CD002F55672934229
:1024500018D01832934215D01832934212D0183245
:1024600093420FD0183293420CD01832934209D0C5
:102470001832934206D01832934203D0B9218F48C4
:10248000FFF707F8636863B3B3F1007F29D0B3F1B6
:10249000806F26D0B3F1C06F23D0B3F1006F20D08E
:1024A000B3F1206F1DD0B3F1406F1AD0B3F1606F5C
:1024B00017D0B3F1805F14D0B3F1905F11D0B3F1B6
:1024C000A05F0ED0B3F1B05F0BD0B3F1C05F08D006
:1024D000B3F1D05F05D0B3F1E05F02D0B3F1F05FAC
:1024E0006DD1A3681BB1402B01D0802B6CD1E36868
:1024F000B3F5007F01D0002B6BD12369B3F5806F5A
:1025000001D0002B6AD163692BB1B3F5006F02D003
:10251000B3F5805F67D1A3692BB1B3F5005F02D03B
:10252000B3F5804F64D1E36923B1B3F5807F01D067
:10253000202B62D1236A43B1B3F5803F05D0B3F5B8
:10254000003F02D0B3F5403F5CD1636A0BB1042B6E
:102550005DD1636AC3B1A36A032B5DD8E36A43B15B
:10256000B3F5000F05D0B3F1807F02D0B3F1C07F87
:1025700057D1236B43B1B3F5001F05D0B3F5800FDE
:1025800002D0B3F5C00F51D1002384F834300223B8
:1025900084F835302268136823F001031360236840
:1025A0001A6812F0010F46D0FFF782FE401B052883
:1025B000F5D920236365032084F8350038BDBA219E
:1025C0003E48FEF766FF8CE7BB213C48FEF761FF03
:1025D0008DE7BC213948FEF75CFF8EE7BD21374807
:1025E000FEF757FF8FE7BE213448FEF752FF92E710
:1025F000BF213248FEF74DFF95E7C0212F48FEF777
:1026000048FF97E7C1212D48FEF743FF9DE7C22110
:102610002A48FEF73EFF9CE7C7212848FEF739FF0E
:102620009CE7C8212548FEF734FFA2E7C9212348CB
:10263000FEF72FFFA8E71A68214810406168A268DA
:102640000A43E1680A4321690A4361690A43A169AF
:102650000A43E1690A43216A0A430243616A042981
:1026600025D01A6021684A6922F00702636A1A437A
:10267000042B2BD04A612368D9B21039114AA2FB2E
:10268000010212091048825CE2655F2971D923F4C6
:102690007F7323F003030433A365A16D3F239340AD
:1026A0008B6000206065012384F8353086E7E16A9D
:1026B000206B01430A43D4E71060024088E200081F
:1026C0003F8010E0ABAAAAAAC0E20008A36A1A439E
:1026D000E36A002BCED0A36AA069C8B9012B11D040
:1026E000022B09D043B100200028C3D040236365EA
:1026F000012384F8353061E7E36A13F0807F28D145
:102700000020F1E7E36AB3F1C07F24D00020EBE7BB
:10271000B0F5005F09D0022B25D9032B25D1E36A40
:1027200013F0807F23D10020DEE7032B03D8DFE8FE
:1027300003F01404140A0020D6E7E36A13F0807F44
:102740000DD10020D0E7E36AB3F1C07F09D00020AB
:10275000CAE70120C8E70120C6E70120C4E701203D
:10276000C2E70120C0E70120BEE70020BCE701204E
:10277000BAE723F47F7323F00303A3658DE70120F9
:102780001CE700BFF0B583B0044600230193724BF1
:102790001D68724BA3FB0535AD0A876D3E68C26D9F
:1027A00008239340334210D003681A6812F0040FD4
:1027B0000BD01A6822F004021A60C26D08239340FD
:1027C000BB60436D43F001034365E26D0123934019
:1027D000334209D02268526912F0800F04D0BB60E6
:1027E000636D43F002036365E26D0423934033425B
:1027F00009D02268126812F0020F04D0BB60636D2A
:1028000043F004036365E26D10239340334224D008
:102810002268126812F0080F1FD0BB6023681A6884
:1028200012F4802F0DD01B6813F4002F04D1236CF9
:102830009BB12046984710E0A36C73B1204698479F
:102840000BE01A6812F4807F03D11A6822F00802A4
:102850001A60236C0BB120469847E26D2023934009
:10286000334255D02268126812F0100F50D0BB606E
:1028700094F83530DBB2052B0ED023681A6812F4B9
:10288000802F33D01B6813F4002F2AD1636C002BE8
:102890003ED0204698473BE02268136823F0160399
:1028A00013602268536923F080035361236CA3B142
:1028B0002268136823F008031360E26D3F239340FE
:1028C000BB60002384F83430012384F83530236D55
:1028D000002B3FD0204698473CE0A36C002BE7D16B
:1028E000EBE7E36BA3B12046984711E01A6812F4B6
:1028F000807F09D11A6822F010021A60002384F840
:102900003430012384F83530E36B0BB1204698470F
:10291000636DFBB1636D13F0010F17D0052384F8CD
:1029200035302268136823F001031360019B0133E3
:102930000193AB4204D823681B6813F0010FF5D153
:10294000002384F83430012384F83530E36C0BB174
:102950002046984703B0F0BD00000020B5814E1B13
:102960002DE9F04104460F4616461D46DDF8188055
:1029700008F1FF324FF6FE739A4215D8A368802BF8
:1029800017D094F83430012B00F07887012384F8B5
:10299000343094F83530DBB2012B0FD0002384F8AB
:1029A00034300220BDE8F081A221B748FEF771FD66
:1029B000E4E74FF4807363650120F3E7022384F8B2
:1029C0003530002363652268136843F48023136065
:1029D00023681D612368C3F80480A368402B3BD0A3
:1029E00023689F602368DE602368A84A934240F210
:1029F0009D80A2F58962934236D002F580629342AF
:102A000079D0A2F56872934277D002F58062934242
:102A100075D0A2F58962934273D002F58062934229
:102A200072D0A2F56872934271D002F5806293422F
:102A300070D0A2F5896293426FD002F58062934212
:102A40006ED0A2F5687293426DD002F58062934217
:102A500007D04FF0006208E023689E602368DF60C3
:102A6000C2E74FF4001200E02022894BDA602368AD
:102A7000864A934240F2CD81A2F58962934200F0EA
:102A8000668102F58062934200F0A881A2F5687227
:102A9000934200F0A58102F58062934200F0A2818A
:102AA000A2F58962934200F09F8102F58062934211
:102AB00000F09D81A2F56872934200F09B8102F5BF
:102AC0008062934200F09981A2F58962934200F0FE
:102AD000978102F58062934200F09581A2F56872B9
:102AE000934200F0938102F58062934200F02C81C2
:102AF0004FF080622CE12022B7E72022B5E72022A8
:102B0000B3E74FF40062B0E74FF40062ADE74FF473
:102B10000062AAE74FF40062A7E74FF40012A4E7AF
:102B20004FF40012A1E74FF400129EE7594A934276
:102B300053D9A83A934231D002F58062934231D002
:102B4000A2F5687293422FD002F5806293422DD095
:102B5000A2F5896293422BD002F5806293422AD07B
:102B6000A2F56872934229D002F58062934228D080
:102B7000A2F58962934227D002F58062934226D063
:102B8000A2F56872934225D002F58062934202D08A
:102B90004FF0006203E04FF4001200E020223C4BB3
:102BA0009A6064E72022FAE72022F8E72022F6E77D
:102BB0004FF40062F3E74FF40062F0E74FF4006275
:102BC000EDE74FF40062EAE74FF40012E7E74FF455
:102BD0000012E4E74FF40012E1E72F4A93425FD975
:102BE000483A934231D002F58062934231D0A2F547
:102BF000687293422FD002F5806293422DD0A2F5E5
:102C0000896293422BD002F5806293422AD0A2F5CA
:102C10006872934229D002F58062934228D0A2F5CF
:102C20008962934227D002F58062934226D0A2F5B2
:102C30006872934225D002F58062934202D04FF031
:102C4000006203E04FF4001200E02022134BDA6030
:102C50000DE72022FAE72022F8E72022F6E74FF4DA
:102C60000062F3E74FF40062F0E74FF40062EDE733
:102C70004FF40062EAE74FF40012E7E74FF4001266
:102C8000E4E74FF40012E1E7C8E2000858640240AC
:102C900000640240B8600240586002400060024098
:102CA000B34A934231D002F58062934231D0A2F50B
:102CB000687293422FD002F5806293422DD0A2F524
:102CC000896293422BD002F5806293422AD0A2F50A
:102CD0006872934229D002F58062934228D0A2F50F
:102CE0008962934227D002F58062934226D0A2F5F2
:102CF0006872934225D002F58062934202D04FF071
:102D0000006203E04FF4001200E02022994B9A6029
:102D1000ADE62022FAE72022F8E72022F6E74FF47A
:102D20000062F3E74FF40062F0E74FF40062EDE772
:102D30004FF40062EAE74FF40012E7E74FF40012A5
:102D4000E4E74FF40012E1E74FF4801200E01022B4
:102D5000894BDA602368894A934240F2CE81A2F51A
:102D60008962934200F0678102F58062934200F02D
:102D7000A981A2F56872934200F0A68102F58062F3
:102D8000934200F0A381A2F58962934200F0A081F2
:102D900002F58062934200F09E81A2F56872934230
:102DA00000F09C8102F58062934200F09A81A2F5C6
:102DB0008962934200F0988102F58062934200F0AC
:102DC0009681A2F56872934200F0948102F58062C8
:102DD000934200F02D814FF000722DE11022B7E7F1
:102DE0001022B5E71022B3E74FF48062B0E74FF44A
:102DF0008062ADE74FF48062AAE74FF48062A7E7F4
:102E00004FF48012A4E74FF48012A1E74FF4801230
:102E10009EE75B4A934253D9A83A934231D002F5D8
:102E20008062934231D0A2F5687293422FD002F5AE
:102E3000806293422DD0A2F5896293422BD002F595
:102E4000806293422AD0A2F56872934229D002F59B
:102E50008062934228D0A2F58962934227D002F57E
:102E60008062934226D0A2F56872934225D002F583
:102E70008062934202D04FF0806203E04FF48012F0
:102E800000E010223C4B9A6064E71022FAE710221F
:102E9000F8E71022F6E74FF48062F3E74FF4806220
:102EA000F0E74FF48062EDE74FF48062EAE74FF419
:102EB0008012E7E74FF48012E4E74FF48012E1E775
:102EC000304A934260D9483A934231D002F5806249
:102ED000934231D0A2F5687293422FD002F58062FE
:102EE00093422DD0A2F5896293422BD002F58062E5
:102EF00093422AD0A2F56872934229D002F58062EB
:102F0000934228D0A2F58962934227D002F58062CD
:102F1000934226D0A2F56872934225D002F58062D2
:102F2000934202D04FF0806203E04FF4801200E041
:102F30001022104BDA600DE71022FAE71022F8E7B2
:102F40001022F6E74FF48062F3E74FF48062F0E777
:102F50004FF48062EDE74FF48062EAE74FF48012AD
:102F6000E7E74FF48012E4E74FF48012E1E700BF97
:102F70001060024000600240006402405864024059
:102F8000B860024058600240B34A934231D002F523
:102F90008062934231D0A2F5687293422FD002F53D
:102FA000806293422DD0A2F5896293422BD002F524
:102FB000806293422AD0A2F56872934229D002F52A
:102FC0008062934228D0A2F58962934227D002F50D
:102FD0008062934226D0A2F56872934225D002F512
:102FE0008062934202D04FF0806203E04FF480127F
:102FF00000E01022994B9A60ACE61022FAE710220A
:10300000F8E71022F6E74FF48062F3E74FF48062AE
:10301000F0E74FF48062EDE74FF48062EAE74FF4A7
:103020008012E7E74FF48012E4E74FF48012E1E703
:103030004FF4002200E00822894BDA602368894AB5
:10304000934240F2CE81A2F58962934200F06781FB
:1030500002F58062934200F0A981A2F56872934262
:1030600000F0A68102F58062934200F0A381A2F5F0
:103070008962934200F0A08102F58062934200F0E1
:103080009E81A2F56872934200F09C8102F58062F5
:10309000934200F09A81A2F58962934200F09881F0
:1030A00002F58062934200F09681A2F56872934225
:1030B00000F0948102F58062934200F02D814FF080
:1030C00080722DE10822B7E70822B5E70822B3E7AE
:1030D0004FF40072B0E74FF40072ADE74FF40072A6
:1030E000AAE74FF40072A7E74FF40022A4E74FF4D9
:1030F0000022A1E74FF400229EE75B4A934253D996
:10310000A83A934231D002F58062934231D0A2F5C1
:10311000687293422FD002F5806293422DD0A2F5BF
:10312000896293422BD002F5806293422AD0A2F5A5
:103130006872934229D002F58062934228D0A2F5AA
:103140008962934227D002F58062934226D0A2F58D
:103150006872934225D002F58062934202D04FF00C
:10316000007203E04FF4002200E008223C4B9A601A
:1031700064E70822FAE70822F8E70822F6E74FF4A6
:103180000072F3E74FF40072F0E74FF40072EDE7DE
:103190004FF40072EAE74FF40022E7E74FF4002211
:1031A000E4E74FF40022E1E7304A934260D9483A1D
:1031B000934231D002F58062934231D0A2F5687219
:1031C00093422FD002F5806293422DD0A2F58962FE
:1031D00093422BD002F5806293422AD0A2F5687206
:1031E000934229D002F58062934228D0A2F58962E9
:1031F000934227D002F58062934226D0A2F56872EE
:10320000934225D002F58062934202D04FF00072C3
:1032100003E04FF4002200E00822104BDA600DE7D3
:103220000822FAE70822F8E70822F6E74FF40072CE
:10323000F3E74FF40072F0E74FF40072EDE74FF45C
:103240000072EAE74FF40022E7E74FF40022E4E7D8
:103250004FF40022E1E700BF10600240006002402E
:103260000064024058640240B86002405860024066
:10327000B34A934231D002F58062934231D0A2F535
:10328000687293422FD002F5806293422DD0A2F54E
:10329000896293422BD002F5806293422AD0A2F534
:1032A0006872934229D002F58062934228D0A2F539
:1032B0008962934227D002F58062934226D0A2F51C
:1032C0006872934225D002F58062934202D04FF09B
:1032D000007203E04FF4002200E00822994B9A604C
:1032E000ACE60822FAE70822F8E70822F6E74FF4EE
:1032F0000072F3E74FF40072F0E74FF40072EDE76D
:103300004FF40072EAE74FF40022E7E74FF400229F
:10331000E4E74FF40022E1E74FF4802200E00422CA
:10332000894BDA602368894A934240F2A181A2F571
:103330008962934200F0678102F58062934200F057
:103340008081A2F56872934200F07D8102F580626F
:10335000934200F07A81A2F58962934200F077816E
:1033600002F58062934200F07481A2F56872934284
:1033700000F0718102F58062934200F06E81A2F547
:103380008962934200F06B8102F58062934200F003
:103390006981A2F56872934200F0678102F580624C
:1033A000934200F02D814FF480022DE10422B7E713
:1033B0000422B5E70422B3E74FF48072B0E74FF47C
:1033C0008072ADE74FF48072AAE74FF48072A7E7EE
:1033D0004FF48022A4E74FF48022A1E74FF480222B
:1033E0009EE75B4A934253D9A83A934231D002F503
:1033F0008062934231D0A2F5687293422FD002F5D9
:10340000806293422DD0A2F5896293422BD002F5BF
:10341000806293422AD0A2F56872934229D002F5C5
:103420008062934228D0A2F58962934227D002F5A8
:103430008062934226D0A2F56872934225D002F5AD
:103440008062934202D04FF0807203E04FF48022FA
:1034500000E004223C4B9A6064E70422FAE704226D
:10346000F8E70422F6E74FF48072F3E74FF4807236
:10347000F0E74FF48072EDE74FF48072EAE74FF423
:103480008022E7E74FF48022E4E74FF48022E1E76F
:10349000304A934260D9483A934231D002F5806273
:1034A000934231D0A2F5687293422FD002F5806228
:1034B00093422DD0A2F5896293422BD002F580620F
:1034C00093422AD0A2F56872934229D002F5806215
:1034D000934228D0A2F58962934227D002F58062F8
:1034E000934226D0A2F56872934225D002F58062FD
:1034F000934202D04FF0807203E04FF4802200E04C
:103500000422104BDA600DE70422FAE70422F8E700
:103510000422F6E74FF48072F3E74FF48072F0E78D
:103520004FF48072EDE74FF48072EAE74FF48022A7
:10353000E7E74FF48022E4E74FF48022E1E700BFA1
:103540001060024000600240006402405864024083
:10355000B860024058600240B94A934231D002F547
:103560008062934231D0A2F5687293422FD002F567
:10357000806293422DD0A2F5896293422BD002F54E
:10358000806293422AD0A2F56872934229D002F554
:103590008062934228D0A2F58962934227D002F537
:1035A0008062934226D0A2F56872934225D002F53C
:1035B0008062934202D04FF0807203E04FF4802289
:1035C00000E004229F4B9A60ACE60422FAE7042252
:1035D000F8E70422F6E74FF48072F3E74FF48072C5
:1035E000F0E74FF48072EDE74FF48072EAE74FF4B2
:1035F0008022E7E74FF48022E4E74FF48022E1E7FE
:103600004FF4803200E001228F4BDA6022681368A9
:1036100043F0160313602268536943F0800353613B
:10362000236C002B00F025812268136843F0080307
:1036300013602268136843F0010313600020FFF752
:10364000B1B90122E0E70122DEE70122DCE74022F6
:10365000DAE74022D8E74022D6E74022D4E74FF409
:103660008032D1E74FF48032CEE74FF48032CBE79F
:10367000764A93424FD9A83A934231D002F58062FC
:10368000934231D0A2F5687293422FD002F5806246
:1036900093422DD0A2F5896293422BD002F580622D
:1036A000934229D0A2F56872934227D002F5806236
:1036B000934225D0A2F58962934223D002F580621D
:1036C000934222D0A2F56872934221D002F5806223
:1036D000934202D04FF4800203E04FF4803200E0C6
:1036E0000122594B9A6091E70122FAE70122F8E79B
:1036F0000122F6E74022F4E74022F2E74022F0E719
:103700004022EEE74FF48032EBE74FF48032E8E7F7
:103710004FF48032E5E74E4A93424FD9483A9342FC
:1037200031D002F58062934231D0A2F568729342A3
:103730002FD002F5806293422DD0A2F58962934288
:103740002BD002F58062934229D0A2F56872934291
:1037500027D002F58062934225D0A2F58962934278
:1037600023D002F58062934222D0A2F56872934280
:1037700021D002F58062934202D04FF4800203E030
:103780004FF4803200E001222E4BDA603EE7012246
:10379000FAE70122F8E70122F6E74022F4E74022A7
:1037A000F2E74022F0E74022EEE74FF48032EBE709
:1037B0004FF48032E8E74FF48032E5E7204A934245
:1037C00031D002F58062934231D0A2F56872934203
:1037D0002FD002F5806293422DD0A2F589629342E8
:1037E0002BD002F58062934234D0A2F568729342E6
:1037F00032D002F58062934230D0A2F589629342C2
:103800002ED002F5806293422DD0A2F568729342C9
:103810002CD002F58062934202D04FF4800203E084
:103820004FF4803200E00122064B9A60EEE601225E
:10383000FAE70122F8E70122F6E74022F4E700BFA9
:10384000106002400060024000640240B860024024
:10385000586002404022E7E74022E5E74022E3E7E4
:103860004FF48032E0E74FF48032DDE74FF48032EE
:10387000DAE7A36C002B7FF4D7AEDAE60220FFF77D
:1038800091B800BF2DE9F04782B007460E46A54B20
:10389000984223D003F5806398421FD003F58063DC
:1038A00098421BD003F58063984217D003F58063DC
:1038B000984213D003F5806398420FD003F58063DC
:1038C00098420BD003F58063984207D003F58063DC
:1038D000984203D0B1219448FDF7DBFD338833B320
:1038E0007368012B1ED9112B1CD0022B1AD0122B5E
:1038F00018D08E4A934215D002F58012934211D00F
:1039000002F5801293420DD0A2F5F812934209D02D
:1039100002F58012934205D002F58012934201D045
:10392000032B09D1B368022B0BD8002450E0B2213D
:103930007D48FDF7AEFDD3E7B3217B48FDF7A9FD38
:10394000F0E7B4217848FDF7A4FDEEE7C5217648FD
:10395000FDF79FFD53E0D9217348FDF79AFD7BE009
:10396000072300E000238B4003430232704941F8F3
:103970002230704B1A686FEA080322EA0801706867
:1039800010F4803F01D048EA02016A4A116052688F
:1039900003EA0201706810F4003F01D048EA020116
:1039A000644A5160926803EA0201706810F4801F53
:1039B00001D048EA02015F4A9160D2681340716801
:1039C00011F4001F01D048EA02035A4AD3600134BF
:1039D0000F2C00F2A4800125A540336803EA0508F6
:1039E00035EA0303F3D17368022B01D0122B16D1F1
:1039F00033690C2B03D90F2B01D00A2BA6D1E20877
:103A0000083257F8220004F0070399000F238B4077
:103A100020EA030033698B40034347F822303A68B9
:103A20004FEA440A032303FA0AF36FEA030922EA7E
:103A30000302736803F0030303FA0AF313433B60C2
:103A400073685A1E012A03D9112B01D0122B14D1ED
:103A5000F368032B3FF67FAFBA6809EA0202F36806
:103A600003FA0AF31343BB607A6822EA050273681B
:103A7000C3F30015A54015437D60FB6809EA0309FF
:103A8000B36803FA0AF343EA0903FB60736813F0AF
:103A9000805F9CD0284B5A6C42F480425A645B6C25
:103AA00003F480430193019BA208911C204B53F81F
:103AB000210004F0030399000F238B4020EA030048
:103AC000184B9F423FF44EAF03F580639F421AD0DC
:103AD00003F580639F4218D003F580639F4216D0A0
:103AE00003F580639F4214D003F580639F4212D098
:103AF00003F580639F4210D003F580639F423FF43B
:103B00002FAF08232FE701232DE702232BE7032301
:103B100029E7042327E7052325E7062323E702B047
:103B2000BDE8F0870000024000E30008000011102B
:103B300000380140003C01400038024038B50446DE
:103B40000D4621B123691D4207D0012038BD4FF435
:103B5000BD710348FDF79DFCF4E70020F6E700BFC8
:103B600000E3000870B5054614460E4621B1012C4D
:103B700008D86CB1AE6170BD4FF4CD710648FDF749
:103B800088FCF4E740F29B110348FDF782FCF0E764
:103B90003604AE61EFE700BF00E30008F0B58BB07C
:103BA000002800F0988005460368B3F1A04F06D0C6
:103BB0004A4A934203D086214948FDF76AFC95F8AA
:103BC000BD33FBB1032385F8BD33286803F0E4F867
:103BD0002C4654F8107B6E460FCC0FC60FCC0FC688
:103BE00094E8030086E803002B1D0ECB384602F054
:103BF00089FF044660B1022385F8BD3301242046C5
:103C00000BB0F0BD85F8BC332846FDF779FFD9E746
:103C10000021286803F0C6F8234616E0C3EBC30270
:103C200005EB8202012182F83D1082F83C30A2F8B7
:103C30004230002182F83F1051649164C3EBC3020B
:103C400005EB820211650133DBB269688B42E5D373
:103C500016E0C4EBC40305EB8303002283F8FD21C7
:103C600083F8FC4183F8FF21C3F80422C3F808223B
:103C7000C4EBC40305EB8303C3F810220134E4B2A0
:103C8000A142E6D82C4654F8107B6E460FCC0FC6E6
:103C90000FCC0FC694E8030086E803002B1D0ECB63
:103CA000384603F097F8044660B9002385F83830A9
:103CB000012385F8BD336B6A012B08D0286803F017
:103CC0005DFC9CE7022385F8BD33012497E7284675
:103CD00000F03BFDF2E7012491E700BF0000044043
:103CE00038E3000890F8BC33012B0ED010B5044621
:103CF000012380F8BC33006803F034FC206803F033
:103D000045F8002084F8BC0310BD02207047000075
:103D10002DE9F04F87B004460668304603F06BFC8F
:103D200010B107B0BDE8F08FB3460746206803F036
:103D300031FC0028F5D0206803F02CFC10F0020FB5
:103D400004D02268536903F002035361206803F032
:103D500021FC10F4002540F09180206803F01AFC4B
:103D600010F4802F40F08B81206803F013FC0028B2
:103D7000C0F26582206803F00DFC10F4006F0AD0D9
:103D8000D6F8083813F0010F40F0738222685369A7
:103D900003F400635361206803F0FCFB10F0006F34
:103DA00015D02268536903F00063536194F8F4332B
:103DB000002B40F06282012184F8F41323685B6DCC
:103DC000C3F38303C4F8F8332046FEF749F82068AC
:103DD00003F0E0FB10F4805F40F05382206803F0B2
:103DE000D9FB10F4005F40F0A682206803F0D2FBFC
:103DF00010F0100F14D02268936923F01003936120
:103E0000376A07F00F08C7F34343022B00F0B08274
:103E1000062B00F0CC822268936943F01003936173
:103E2000206803F0B7FB10F0080F40F0D282206842
:103E300003F0B0FB10F4801F40F0D482206803F040
:103E4000A9FB10F4001F40F0D782206803F0A2FB0A
:103E500010F0804F40F0DA82206803F09BFB10F0F6
:103E6000040F3FF45EAF23685D6815F0040F40F067
:103E7000D682226853682B43536052E7206803F0D0
:103E80008DFB3D46A1460446CFE00BEB45130122D6
:103E9000C3F8082BD9F80030196C03EB451303F570
:103EA000306ADAF80830D9F81020012A0AD0BB4A63
:103EB00091426CD113F4004F5ED04FF40043CAF826
:103EC0000830C0E013F0080F17D0B54A914206D968
:103ED00013F4004F03D04FF40043CAF808304846AB
:103EE000FDF776FE09F571720121D9F8000003F0A3
:103EF000A3FB0823CAF80830A5E013F0200F03D075
:103F00002023CAF808309EE013F0280F40F09B8071
:103F1000A34A914207D913F4004F04D04FF4004351
:103F2000CAF808308FE0C5EBC50309EB8303D3F86B
:103F30000422DAF81010C1F31201521AC3F8142245
:103F4000D3F80412D3F808220A44C3F80822E9B2CD
:103F50004846FDF745FE002D75D11C2303FB059354
:103F6000D3F81032002B6ED109F571720121D9F806
:103F7000000003F061FB66E013F0200F02D0202365
:103F8000CAF80830E9B24846FDF72AFE5BE0E9B21C
:103F90004846FDF725FE56E0D9F80030D3F840A09A
:103FA00003EB451303F530639968D9F81020012A13
:103FB00012D07A4A924519D04846FDF709FE784B4F
:103FC0009A4503D9D9F81030012B16D00BEB4513C5
:103FD0000822C3F8082B39E0714A9245ECD911F454
:103FE000004FE9D04FF400429A60E5E711F4004F2A
:103FF000E2D04FF400429A60DEE709F571720121C8
:10400000D9F8000003F018FBE0E70BEB4513202282
:10401000C3F8082B18F4005F05D00BEB45134FF4E1
:104020000052C3F8082B0135640834B314F0010FB3
:10403000F9D0E9B2D9F8000003F0C0FA804610F0D8
:10404000010F7FF422AF18F0080FA5D118F0100F60
:1040500004D00BEB45131022C3F8082B18F0200FE7
:10406000D8D0D9F81030012BCFD109F571720121C8
:10407000D9F8000003F0E0FAC7E74C466DE6206887
:1040800003F094FA3D46029707460396A04634E0B3
:10409000C5EBC50308EB8303596C9A6C0A449A6418
:1040A0004EE008F571720121D8F8000003F0C4FA5F
:1040B00014F0080F04D00BEB45130822C3F80829AD
:1040C00014F0100F04D00BEB45131022C3F808298D
:1040D00014F0400F04D00BEB45134022C3F808291D
:1040E00014F0020F04D00BEB45130222C3F8082989
:1040F00014F0800F36D101357F08002F00F09B802F
:1041000017F0010FF7D0EEB23146D8F8000003F0F7
:104110005EFA044610F0010FCAD005F00F0301212A
:1041200001FA03F2DBF8343823EA0203CBF834381F
:104130000BEB4513C3F80819D8F810308B42A7D001
:1041400031464046FDF758FDD8F81030012BAFD16D
:10415000002DADD1C5EBC50308EB83031B6D002B10
:10416000A6D19EE7D8F8003004939A46C5EBC50364
:1041700008EB83035A6D1B6D9A42BCD89B1AC5EBA2
:10418000C50208EB8202526C934200D81A4602F133
:1041900003094FEA99090597049F1AE00A31544F21
:1041A0000A30544F06F103094FEA9909C5EBC504DB
:1041B00008EB8404A16C98F810300093B3B2EAB213
:1041C000384603F03FF9A36C3344A364636D1E4487
:1041D00066650AEB451303F510639B699BB24B457B
:1041E00012D3C5EBC50208EB8202516D136D8B42F1
:1041F0000AD94BB15B1AC5EBC50208EB8202566CBB
:10420000B342CFD81E46CDE7059FC5EBC50308EBEB
:1042100083031A6D5B6D9A423FF66DAF05F00F0197
:10422000012202FA01F1049BD3F8342822EA0102A8
:10423000C3F834285FE7029F039E444694E5D6F80E
:10424000043823F00103C6F8043894F8F433012B42
:1042500008D02046FDF710FD2268536903F00043A3
:10426000536187E5002184F8F4132046FDF7F8FD3B
:10427000F2E72046FDF7E8FC88E52046FDF7E4FC80
:10428000A5E506F50068D8F8043023F00103C8F866
:1042900004301021206802F095FE14E00BEB471368
:1042A0004FF67F31C3F80819D3F8002922F4001221
:1042B000C3F80029C3F8081BD3F8002B22F400121E
:1042C000C3F8002B01376368BB42E7D8D8F81C302D
:1042D00043F00113C8F81C30236BEBB1D8F88430DD
:1042E00043F00B03C8F88430D8F8443043F00B0394
:1042F000C8F84430D6F8003823F4FE63C6F8003816
:1043000004F57172217C206803F096F922685369E4
:1043100003F48053536161E5D8F8143043F400533B
:1043200043F02B03C8F81430D8F8103043F00B03D7
:10433000C8F81030DEE7206803F061F9206802F069
:1043400055FE90B90023E360276800F025FE014682
:10435000227B384602F0A8FC2046FDF75EFC22686E
:10436000536903F4005353613FE50323E360EBE734
:1043700047F6F0731F423FF44EAD4FEA171BC8EBF0
:10438000C80904EB8909C7F30A12D9F808123046A4
:1043900003F06CF8CBF30A02D9F808321344C9F8D9
:1043A0000832D9F814321A44C9F8142233E5082225
:1043B00004F57171304603F059F8C7F30A13C8EBDE
:1043C000C80104EB8101D1F814221344C1F814325E
:1043D00021E52046FDF71BFC2268536903F0080322
:1043E000536124E5E9B22046FDF752FC2268536987
:1043F00003F48013536121E5E9B22046FDF742FC46
:104400002268536903F4001353611EE52046FDF74B
:1044100045FC2268536903F0804353611CE5204644
:10442000FDF742FC25E500BF90F8BC33012B0DD011
:1044300010B50446012380F8BC3380F838100068BA
:1044400003F080F8002084F8BC0310BD0220704700
:10445000F8B507460C4611F0800F27D101F00F0583
:10446000C5EBC506B60006F5FC760644311DC5EB66
:10447000C50500EB8505002085F8FD0104F00F045B
:104480000C708A60CB704A7802B1CC80022B1DD0B0
:1044900097F8BC33012B1CD0012387F8BC33386854
:1044A00002F0B5FD002087F8BC03F8BD01F00F0055
:1044B000C0EBC0018900383139440431C0EBC00081
:1044C00007EB8000012580F83D50D7E700230B71F2
:1044D000DEE70220E9E710B504460A4611F0800F36
:1044E00020D101F00F00C0EBC0039B0003F5FC736B
:1044F0002344191DC0EBC00004EB8000002380F8AA
:10450000FD3102F00F020A7094F8BC33012B19D070
:10451000012384F8BC33206802F0C4FD002084F835
:10452000BC0310BD01F00F00C0EBC0039B0038338B
:104530002344191DC0EBC00004EB8000012380F868
:104540003D30DEE70220ECE738B501F00F04C4EBA4
:10455000C401890001F5FC7101440431C4EBC405B8
:1045600000EB8505C5F80822C5F810320023C5F810
:10457000143285F8FD3185F8FC410369012B06D022
:1045800064B9DAB2006802F0D7FE002038BDC4EB8F
:10459000C40500EB8505C5F80C22F1E7DAB2006826
:1045A00002F0C8FDF1E738B501F00F04C4EBC40117
:1045B0008900383101440431C4EBC40500EB8505A2
:1045C000AA642B6500236B65012385F83D3085F8CF
:1045D0003C400369012B06D05CB9DAB2006802F0F6
:1045E000ABFE002038BDC4EBC40500EB8505EA64D2
:1045F000F2E7DAB2006802F09DFDF2E738B501F0AB
:104600000F054268954239D804460B4611F0800FD9
:104610001FD1C1EBC101890001F5FC7101440431D6
:10462000C3EBC30300EB8303002283F8FD210123C6
:104630008B700D7094F8BC33012B21D0012384F8CA
:10464000BC33206802F023FF8DB1002084F8BC0346
:1046500038BDC5EBC5018900383101440431C5EBD3
:10466000C50300EB8303012283F83D20DFE704F557
:104670007172217C206802F0DFFFE6E70120E7E7A6
:104680000220E5E701F00F034268934231D810B5EC
:10469000044611F0800F1ED1C3EBC301890001F560
:1046A000FC7101440431C3EBC30200EB8202002021
:1046B00082F8FD0100228A700B7094F8BC33012B44
:1046C00019D0012384F8BC33206802F00DFF0020CC
:1046D00084F8BC0310BDC3EBC30189003831014429
:1046E0000431C3EBC30200EB8202012082F83D00DB
:1046F000E0E7012070470220ECE730B40468606A0C
:1047000019B940EA0240A06218E00D46A36A00EB26
:1047100013400023691E8B4209D203F1400104EBD0
:104720008101496800EB11400133DBB2F2E740EA56
:10473000024005F13F0104EB81014860002030BCDC
:1047400070470368596200207047034602680121E0
:10475000C0F8FC13002083F8F403936943F000636E
:104760009361536D43F0805343F0030353657047E7
:1047700010B582B01B4B1A6C42F080521A641B6C4D
:1047800003F080530193019B174A136843F480336D
:104790001360FDF78DFD0446134B5B6813F4803FF7
:1047A00008D1FDF785FD001BB0F57A7FF4D9032011
:1047B00002B010BD0C4A136843F400331360FDF7D8
:1047C00077FD0446084B5B6813F4003F07D1FDF703
:1047D0006FFD001BB0F57A7FF4D90320E8E70020D5
:1047E000E6E700BF0038024000700040002800F0FB
:1047F000628270B582B0044603680F2B27D8236805
:1048000013F0010F3DD063682BB1B3F5803F02D0A8
:10481000B3F5A02F21D1A74B9B6803F00C03042B09
:1048200026D0A44B9B6803F00C03082B1BD06368B5
:10483000B3F5803F54D0002B68D19E4B1A6822F408
:1048400080321A601A6822F480221A604DE04FF418
:10485000B2719948FCF71DFED1E74FF4B571964847
:10486000FCF717FED7E7934B5B6813F4800FDED09D
:10487000904B1B6813F4003F03D06368002B00F0DB
:104880001C82236813F0020F00F08880E368012B7C
:1048900062D823691F2B65D8864B9B6813F00C0FD9
:1048A0006BD0844B9B6803F00C03082B60D0E3684B
:1048B000002B00F09A807F4A136843F001031360D5
:1048C000FDF7F6FC05467B4B1B6813F0020F40F02A
:1048D0008380FDF7EDFC401B0228F4D90320F1E1B1
:1048E000744A136843F48033136063682BB3FDF795
:1048F000DFFC05466F4B1B6813F4003FC1D1FDF789
:10490000D7FC401B6428F5D90320DBE1B3F5A02FC9
:1049100009D0684B1A6822F480321A601A6822F4AF
:1049200080221A60E1E7634B1A6842F480221A6021
:104930001A6842F480321A60D7E7FDF7B9FC0546E1
:104940005C4B1B6813F4003F9BD0FDF7B1FC401B90
:104950006428F5D90320B5E14FF4CE715648FCF731
:1049600098FD96E740F29D115348FCF792FD93E7BE
:10497000504B5B6813F4800F99D14E4B1B6813F0BA
:10498000020F03D0E368012B40F09981494A136874
:1049900023F0F803216943EAC1031360236813F08D
:1049A000080F50D06369012B33D86369002B36D0D0
:1049B000404A536F43F001035367FDF779FC054606
:1049C0003C4B5B6F13F0020F3DD1FDF771FC401BB8
:1049D0000228F5D9032075E1364A136823F0F8035D
:1049E000216943EAC1031360D8E7324A136823F010
:1049F00001031360FDF75CFC05462E4B1B6813F0AA
:104A0000020FCBD0FDF754FC401B0228F5D9032040
:104A100058E140F2DD112848FCF73BFDC5E7254A87
:104A2000536F23F001035367FDF742FC0546214B0A
:104A30005B6F13F0020F06D0FDF73AFC401B022813
:104A4000F5D903203EE1236813F0040F00F08D80B8
:104A5000A368012B01D9052B10D1164B1B6C13F049
:104A6000805F11D1134B1A6C42F080521A641B6C98
:104A700003F080530193019B012506E040F20721DA
:104A80000D48FCF706FDE8E700250C4B1B6813F406
:104A9000807F15D0A368012B26D0002B3CD1054B7D
:104AA0001A6F22F001021A671A6F22F004021A67C5
:104AB0001FE000BF0038024070E3000800700040B3
:104AC000824A136843F480731360FDF7F1FB0646D6
:104AD0007E4B1B6813F4807FDCD1FDF7E9FB801B64
:104AE0006428F5D90320EDE0794A136F43F0010300
:104AF0001367A36833B3FDF7DBFB0646744B1B6FEC
:104B000013F0020F2FD1FDF7D3FB801B41F2883346
:104B10009842F3D90320D5E0052B09D06C4B1A6FCE
:104B200022F001021A671A6F22F004021A67E0E706
:104B3000674B1A6F42F004021A671A6F42F00102C3
:104B40001A67D6E7FDF7B4FB0646614B1B6F13F0FF
:104B5000020F08D0FDF7ACFB801B41F2883398426E
:104B6000F3D90320AEE0002D3ED1A369022B41D83A
:104B7000A369002B00F0A580554A926802F00C0250
:104B8000082A00F0A180022B7FD1E36913B1B3F5AD
:104B9000800F35D1236A023B3D2B37D8636A323B05
:104BA000B3F5BF7F38D8A36A022B05D0042B03D0FE
:104BB000062B01D0082B35D1E36A023B0D2B37D8E9
:104BC000434A136823F080731360FDF771FB0546B9
:104BD0003F4B1B6813F0007F30D0FDF769FB401B93
:104BE0000228F5D903206DE0394A136C23F0805375
:104BF0001364BAE740F24B213648FCF74AFCB7E7AA
:104C00004FF415713348FCF744FCC3E740F25521DB
:104C10003048FCF73EFCC1E740F256212D48FCF736
:104C200038FCC0E740F257212A48FCF732FCC3E7C2
:104C30004FF416712748FCF72CFCC1E7E369226AA0
:104C40001343626A43EA8213A26A5208013A43EAB2
:104C50000243E26A43EA026343F000531C4A536092
:104C6000136843F080731360FDF722FB0446184B72
:104C70001B6813F0007F06D1FDF71AFB001B02280A
:104C8000F5D903201EE000201CE0114A136823F030
:104C900080731360FDF70CFB04460D4B1B6813F08B
:104CA000007F06D0FDF704FB001B0228F5D9032086
:104CB00008E0002006E001207047012002E001200A
:104CC00000E0002002B070BD0120FBE70070004052
:104CD0000038024070E30008F8B5244B9B6803F0ED
:104CE0000C03042B3DD0082B3DD1204B5A6802F019
:104CF0003F025B6813F4800F12D01C4B5968C1F35C
:104D0000881100231A48A1FB0001FBF799FA174B01
:104D10005B68C3F3014301335B00B0FBF3F023E0B6
:104D2000124B5B68C3F388135C010025E41A65F13C
:104D30000005AE0146EA9466A701381B66EB050143
:104D4000CC0044EA5074C500E81844F100018B021D
:104D500043EA90538402204619460023FBF770FA79
:104D6000D5E7034800E00348F8BD00BF0038024023
:104D700040787D010024F400002800F0FB8070B52D
:104D80000D4604460368013B0E2B6DD80F2D71D8DC
:104D90007C4B1B6803F00F03AB420BD2794A1368BC
:104DA00023F00F032B431360136803F00F03AB4290
:104DB00040F0E280236813F0020F29D013F0040FB3
:104DC00004D0714A936843F4E0539360236813F06E
:104DD000080F04D06C4A936843F460439360A3685F
:104DE0007BB1802B0DD0902B0BD0A02B09D0B02BFA
:104DF00007D0C02B05D0D02B03D0E02B01D0F02B57
:104E00003ED1614A936823F0F003A1680B4393609D
:104E1000236813F0010F4DD06368022B36D8636806
:104E2000012B39D0022B3ED0574A126812F0020FE4
:104E300000F0A48054498A6822F0030213438B6077
:104E4000FDF736FA0646504B9B6803F00C03626888
:104E5000B3EB820F2ED0FDF72BFA801B41F2883383
:104E60009842F0D9032078E040F2CA214748FCF785
:104E700010FB8BE740F2CB214448FCF70AFB87E7A5
:104E800040F2EF214148FCF704FBBAE740F2F6217B
:104E90003E48FCF7FEFAC2E73B4A126812F4003FB4
:104EA000C8D1012059E0384A126812F0007FC1D100
:104EB000012052E0334B1B6803F00F03AB420AD9C9
:104EC000304A136823F00F032B431360136803F079
:104ED0000F03AB4254D1236813F0040F14D0E368DE
:104EE0005BB1B3F5805F08D0B3F5A05F05D0B3F533
:104EF000C05F02D0B3F5E05F30D1234A936823F45A
:104F0000E053E1680B439360236813F0080F15D05A
:104F100023695BB1B3F5805F08D0B3F5A05F05D01E
:104F2000B3F5C05F02D0B3F5E05F1DD1164A9368B8
:104F300023F46043216943EAC1039360FFF7CCFE89
:104F4000114B9B68C3F30313114AD35CD840114B38
:104F500018600020FDF76EF9002070BD40F233317B
:104F60000A48FCF796FAC8E740F23A310748FCF7DE
:104F700090FADBE7012070470120EEE70120ECE723
:104F80000120EAE7003C02400038024070E30008DC
:104F9000ECE1000800000020014B1868704700BFDA
:104FA00000000020F0B583B0044602688F4B134028
:104FB000002B00F0F580276817F0010713D0E36A93
:104FC0001BB1B3F5000F40F0F180894B9A6822F4D1
:104FD00000029A609A68E16A0A439A60E36A002BC9
:104FE00000F0EA800027256815F400251AD0636BCD
:104FF00033B1B3F5801F03D0B3F5001F40F0DE805E
:105000007B4AD2F88C3023F44013616B0B43C2F817
:105010008C30636BB3F5801F00F0D680002B00F05E
:10502000D5800025236813F4801F18D0A36B33B1FB
:10503000B3F5800F03D0B3F5000F40F0C9806C4A80
:10504000D2F88C3023F44003A16B0B43C2F88C30B0
:10505000A36BB3F5800F00F0C18003B9012523686D
:1050600013F0200F00F0FB80A36AB3F5807F79D0A6
:10507000B3F5007F76D05F4A934273D002F5803259
:1050800093426FD002F5803293426BD002F58032AA
:10509000934267D002F58032934263D002F58032AA
:1050A00093425FD002F5803293425BD002F58032AA
:1050B000934257D002F58032934253D002F58032AA
:1050C00093424FD002F5803293424BD002F58032AA
:1050D000934247D002F58032934243D002F58032AA
:1050E00093423FD002F5803293423BD002F58032AA
:1050F000934237D002F58032934233D002F58032AA
:1051000093422FD002F5803293422BD002F58032A9
:10511000934227D002F58032934223D002F58032A9
:1051200093421FD002F5803293421BD002F58032A9
:10513000934217D002F58032934213D002F58032A9
:1051400093420FD002F5803293420BD002F58032A9
:10515000934207D002F58032934203D002F58032A9
:1051600093423DD1224B1A6C42F080521A641B6C60
:1051700003F080530193019B1F4A136843F480732B
:105180001360FDF795F806461B4B1B6813F4807FF0
:1051900036D1FDF78DF8801B6428F5D90320DCE1BA
:1051A00040F237311548FCF774F904E740F23D311D
:1051B0001248FCF76EF908E7012714E740F24D3179
:1051C0000E48FCF766F91BE7012727E7012529E7C9
:1051D00040F261310948FCF75CF930E701273CE710
:1051E00040F276310548FCF754F9BBE7F1FFBD0406
:1051F000003802400003020000700040A8E30008ED
:10520000AE4B1B6F13F4407316D0A26A02F44072C7
:105210009A4211D0A94B1A6F22F44072196F41F4CF
:1052200080311967196F21F4803119671A671B6F74
:1052300013F0010F40F09381A36A03F44072B2F5BA
:10524000407F00F09E819D4A936823F4F813936099
:105250009A490B6FA26AC2F30B0213430B672368D0
:1052600013F0100F12D0236B1BB1B3F1807F40F00D
:105270009381924BD3F88C2022F08072C3F88C205B
:10528000D3F88C20216B0A43C3F88C20236813F4D5
:10529000804F11D0E36D33B1B3F5803F03D0B3F548
:1052A000003F40F07F81854AD2F8903023F44033AC
:1052B000E16D0B43C2F89030236813F4004F11D016
:1052C000236E33B1B3F5802F03D0B3F5002F40F038
:1052D0006F817A4AD2F8903023F44023216E0B4339
:1052E000C2F89030236813F4803F11D0636E33B15D
:1052F000B3F5801F03D0B3F5001F40F05F816F4A04
:10530000D2F8903023F44013616E0B43C2F8903012
:10531000236813F0400F10D0E36B012B04D9032B4B
:1053200002D0022B40F05081644AD2F8903023F032
:105330000303E16B0B43C2F89030236813F0800F36
:1053400011D0236C33B1042B04D00C2B02D0082BCA
:1053500040F04081594AD2F8903023F00C03216C80
:105360000B43C2F89030236813F4807F11D0636C34
:1053700033B1102B04D0302B02D0202B40F03081E1
:105380004E4AD2F8903023F03003616C0B43C2F8E0
:105390009030236813F4007F11D0A36C33B1402BFD
:1053A00004D0C02B02D0802B40F02081434AD2F899
:1053B000903023F0C003A16C0B43C2F890302368F7
:1053C00013F4806F14D0E36C4BB1B3F5807F06D03B
:1053D000B3F5407F03D0B3F5007F40F00D81374A2D
:1053E000D2F8903023F44073E16C0B43C2F8903054
:1053F000236813F4006F14D0236D4BB1B3F5806FA5
:1054000006D0B3F5406F03D0B3F5006F40F0FA80DB
:105410002A4AD2F8903023F44063216D0B43C2F83E
:105420009030236813F4805F14D0636D4BB1B3F5F3
:10543000805F06D0B3F5405F03D0B3F5005F40F066
:10544000E7801E4AD2F8903023F44053616D0B433D
:10545000C2F89030236813F4005F14D0A36D4BB1F1
:10546000B3F5804F06D0B3F5404F03D0B3F5004FEE
:1054700040F0D480114AD2F8903023F44043A16D1B
:105480000B43C2F89030236813F4001F18D0636FE9
:10549000B3F1006F02D0002B40F0C680074AD2F86B
:1054A000903023F00063616F0B43C2F89030636F5C
:1054B000B3F1006F00F0BE8002E000BF0038024090
:1054C000236813F4802F14D0E36E4BB1B3F1807FC7
:1054D00006D0B3F1007F03D0B3F1407F40F0AC8041
:1054E000B54AD2F8903023F04073E16E0B43C2F816
:1054F0009030236813F4000F0FD0A36FB3F1805FD7
:1055000002D0002B40F09E80AB4AD2F8903023F0BE
:105510008053A16F0B43C2F89030236813F0806F63
:105520000FD0E36FB3F1005F02D0002B40F090800A
:10553000A14AD2F8903023F00053E16F0B43C2F838
:105540009030002F40F08A802368B3F1007F00F094
:105550008580012D00F03481002003B0F0BDFCF700
:10556000A7FE0646944B1B6F13F0020F7FF464AE48
:10557000FCF79EFE801B41F288339842F2D903204B
:10558000EBE78D498A6822F4F81223F0704323F484
:10559000407313438B605BE64FF46C718748FBF7F5
:1055A00078FF66E640F2BA318448FBF772FF7AE68C
:1055B0004FF471718148FBF76CFF8AE640F2CE31FF
:1055C0007E48FBF766FF9AE64FF476717B48FBF75F
:1055D00060FFA9E640F2E2317848FBF75AFFB9E6EE
:1055E0004FF47B717548FBF754FFC9E640F2F63182
:1055F0007248FBF74EFFD9E64FF480616F48FBF726
:1056000048FFECE640F20A416C48FBF742FFFFE638
:1056100040F214416948FBF73CFF12E740F21E419B
:105620006648FBF736FF25E74FF485616348FBF7D3
:1056300030FF33E7012543E74FF487615F48FBF70D
:1056400028FF4DE740F242415C48FBF722FF5BE751
:1056500040F24C415948FBF71CFF69E7564A136872
:1056600023F080631360FCF723FE0646524B1B6851
:1056700013F0006F06D0FCF71BFE801B6428F5D9E1
:1056800003206AE76368323BB3F5BF7F6FD82368B6
:1056900013F0010F12D0E36A83B9A368023B052B14
:1056A0006BD8454AD2F88430616803F0706343EAEE
:1056B0008113A16843EA0173C2F88430236813F4AC
:1056C000002F03D0626BB2F5801F06D013F4801F49
:1056D00021D0A36BB3F5800F1DD1E368023B0D2BE6
:1056E00051D8E369013B1F2B53D8334AD2F88410B9
:1056F0006068E3681B0643EA801301F0E0410B4356
:10570000C2F88430D2F88C3023F01F03E1690139EC
:105710000B43C2F88C30236813F0007F12D0A368CB
:10572000023B052B3BD8E368023B0D2B3DD862685A
:10573000E3681B0643EA8213A26843EA02731E4A27
:10574000C2F884301C4A136843F080631360FCF78E
:10575000AFFD0646184B1B6813F0006F7FF4F9AEDF
:10576000FCF7A6FD801B6428F4D90320F5E640F27F
:1057700067411248FBF78DFE89E740F26D410F4803
:10578000FBF787FE8DE740F27C410C48FBF781FE7A
:10579000A7E740F27E410948FBF77BFEA5E74FF4FF
:1057A00092610648FBF775FEBDE740F29141034860
:1057B000FBF76FFEBBE700BF00380240A8E300081C
:1057C000444A136823F080531360FCF771FD0546CB
:1057D000404B1B6813F0005F06D0FCF769FD401BCF
:1057E0006428F5D90320B8E62369323BB3F5BF7FBF
:1057F00045D8236813F4002F01D0626B22B113F453
:10580000801F20D0A36BF3B96369023B0D2B3CD8FA
:10581000236A013B1F2B3ED82E4AD2F888302169DB
:1058200003F4403343EA8113616943EA0163C2F838
:105830008830D2F88C3023F4F853216A013943EAD6
:105840000123C2F88C30236813F4001F03D0636F68
:10585000B3F1006F25D01F4A136843F080531360E3
:10586000FCF726FD04461B4B1B6813F0005F2FD18D
:10587000FCF71EFD001B6428F5D903206DE640F2FD
:10588000BE411548FBF705FEB3E740F2C54112489B
:10589000FBF7FFFDBCE740F2C7410F48FBF7F9FDFE
:1058A000BAE7A369032B0DD80A49D1F888202069EB
:1058B000A3691B0443EA801302F070621343C1F82A
:1058C0008830C8E740F2D9410348FBF7E2FDEBE737
:1058D000002042E600380240A8E30008002800F05B
:1058E0001C8110B5044603688D4A934214D0A2F57A
:1058F0007842934210D002F5806293420CD002F5B8
:105900007842934208D002F5E052934204D04FF41B
:10591000A2718448FBF7BDFD63681BB1B3F5827FBC
:1059200040F0B380A36833B1B3F5806F03D0B3F513
:10593000004F40F0B080E368B3F5706F24D0B3F54A
:10594000606F21D0B3F5506F1ED0B3F5406F1BD000
:10595000B3F5306F18D0B3F5206F15D0B3F5106FD5
:1059600012D0B3F5006F0FD0B3F5E06F0CD0B3F5E4
:10597000C06F09D0B3F5A06F06D0B3F5806F03D028
:10598000B3F5407F40F08D80A369B3F5007F04D06C
:105990001BB1B3F5802F40F08A80636B082B02D0D7
:1059A000002B40F08A80E3696BB1082B0BD0102BE1
:1059B00009D0182B07D0202B05D0282B03D0302B53
:1059C00001D0382B7FD1236A13B1802B40F0818026
:1059D000636A13B1102B40F08280636A43B9236974
:1059E00013B1022B40F081806369012B00F28380A8
:1059F0000023A36294F85D30002B00F08280022324
:105A000084F85D302268136823F040031360E36874
:105A1000B3F5E06F7BD90022B3F5706F04D0B3F516
:105A2000E06F01D00021A162216B21B9B3F5E06FD5
:105A300070D9022323636368A1680B4321690B4378
:105A400061690B43A16901F400710B43E1690B43E8
:105A5000216A0B43A06A216803430B60638B03F048
:105A60000403616A0B43616B0B43E1680B432168DC
:105A700013434B602268D36923F40063D361002091
:105A80002066012384F85D3010BD40F245112548A1
:105A9000FBF7FFFC46E74FF4A3712248FBF7F9FC44
:105AA00049E740F247111F48FBF7F3FC6CE74FF45E
:105AB000A4711C48FBF7EDFC6FE740F2491119484F
:105AC000FBF7E7FC6FE74FF4A5711648FBF7E1FC25
:105AD00079E740F24B111348FBF7DBFC78E74FF412
:105AE000A6711048FBF7D5FC77E740F24F110D483F
:105AF000FBF7CFFC78E74FF4A8710A48FBF7C9FC25
:105B000076E784F85C302046FBF7A0FE77E74FF499
:105B1000805281E7012323638DE70120704700BF96
:105B200000300140E0E3000830B4036A23F480331E
:105B30000362036A4468426D22F4803222F07002EC
:105B40000D682A4323F400338D6843EA0543094D69
:105B5000A84203D005F58065A84204D124F480341E
:105B60004D6944EA0524446042654A6882650362DF
:105B700030BC70470000014030B4036A23F4801346
:105B80000362026A4468436D23F0807323F4E043A8
:105B90000D6843EA052322F400128D6842EA05529B
:105BA000094DA84203D005F58065A84204D124F42C
:105BB00080244D6944EA8524446043654B68C3658D
:105BC000026230BC704700BF000001402DE9F04187
:105BD00004460D46036A23F001030362066A476820
:105BE000836923F4803323F073030A6842EA0308CD
:105BF00026F002038E681E43204B984203D003F523
:105C00008063984209D1EB680BB1082B24D126F0B0
:105C10000806EB681E4326F00406184B9C4203D08E
:105C200003F580639C420FD1AB69B3F5007F00D0D0
:105C3000C3B96B69B3F5807F00D0CBB927F4407747
:105C40006B693B43AF691F436760C4F818806B689A
:105C500063632662BDE8F08141F276710848FBF784
:105C600018FCD4E741F283710548FBF712FCE0E72A
:105C700041F284710248FBF70CFCDFE700000140B1
:105C800018E400082DE9F04104460E46036A23F4A7
:105C900080730362056A4768C36923F4803323F085
:105CA00073030A6842EA030825F400758B6845EA25
:105CB0000325224B984203D003F5806398420AD112
:105CC000F3680BB1082B27D125F40065F36845EA8A
:105CD000032525F48065194B9C4203D003F58063AE
:105CE0009C4211D1B369B3F5007F00D0D3B9736979
:105CF000B3F5807F00D0DBB927F44057736947EADA
:105D00000317B36947EA03176760C4F81C80736818
:105D1000E3632562BDE8F08141F60C010848FBF71A
:105D2000B8FBD1E741F619010548FBF7B2FBDEE706
:105D300041F61A010248FBF7ACFBDDE70000014029
:105D400018E400082DE9F04104460F46036A23F4E5
:105D500080530362056AD0F80480C36923F080731E
:105D600023F4E6430E6843EA062625F400558B68C3
:105D700045EA03350F4B984203D003F58063984200
:105D800009D17B69B3F5807F00D063B928F48048DE
:105D90007B6948EA8318C4F80480E6617B68236461
:105DA0002562BDE8F08141F658010348FBF771FB1D
:105DB000ECE700BF0000014018E4000810B50446FD
:105DC0000368284A934237D0B3F1804F34D0A2F50C
:105DD0007C42934230D002F5806293422CD002F58F
:105DE0008062934228D002F58062934224D002F56B
:105DF0008062934220D002F5704293421CD002F59B
:105E00007052934218D002F58062934214D002F58A
:105E10008062934210D0A2F5983293420CD002F5E2
:105E20008062934208D002F58062934204D04FF41E
:105E3000C0710D48FBF72DFB022384F83D3022682A
:105E400091680A4B0B40062B06D0B3F5803F03D078
:105E5000136843F001031360012384F83D300020F0
:105E600010BD00BF0000014018E400080700010059
:105E70000368304A904212D0B0F1804F0FD0A2F5A3
:105E80007C4290420BD002F58062904207D002F52E
:105E90008062904203D002F57842904203D123F011
:105EA00070034A681343234A90422AD0B0F1804FCE
:105EB00027D0A2F57C42904223D002F58062904226
:105EC0001FD002F5806290421BD002F578429042CA
:105ED00017D002F57052904213D002F580629042C2
:105EE0000FD002F5806290420BD0A2F5983290421A
:105EF00007D002F58062904203D002F580629042A2
:105F000003D123F44073CA68134323F080034A6922
:105F1000134303608B68C3620B688362054B98422E
:105F200003D003F58063984201D10B690363012319
:105F3000436170470000014000287BD010B5044643
:105F400003683D4A934237D0B3F1804F34D0A2F575
:105F50007C42934230D002F5806293422CD002F50D
:105F60008062934228D002F58062934224D002F5E9
:105F70008062934220D002F5704293421CD002F519
:105F80007052934218D002F58062934214D002F509
:105F90008062934210D0A2F5983293420CD002F561
:105FA0008062934208D002F58062934204D040F2AE
:105FB0009A412248FBF76DFAA3683BB1102B05D03C
:105FC000202B03D0402B01D0602B1BD123692BB198
:105FD000B3F5807F02D0B3F5007F19D1A3690BB16F
:105FE000802B1BD194F83D30F3B1022384F83D306F
:105FF000214651F8040BFFF73BFF012384F83D30A5
:10600000002010BD40F29B410C48FBF742FADDE74F
:1060100040F29C410948FBF73CFADFE740F29D4122
:106020000648FBF736FADDE784F83C302046FBF7FC
:1060300051FCDAE7012070470000014018E4000835
:106040002DE9F04104460E46036A23F01003036273
:10605000056A4768836923F0807323F4E6430A687E
:1060600043EA022825F020058B6845EA0315224BF8
:10607000984203D003F5806398420AD1F3680BB1CC
:10608000082B27D125F08005F36845EA031525F094
:106090004005194B9C4203D003F580639C4211D10B
:1060A000B369B3F5007F00D0D3B97369B3F5807FCE
:1060B00000D0DBB927F44067736947EA8307B36907
:1060C00047EA83076760C4F818807368A363256292
:1060D000BDE8F08141F2C1710848FBF7DAF9D1E778
:1060E00041F2CF710548FBF7D4F9DEE741F2D071F8
:1060F0000248FBF7CEF9DDE70000014018E4000894
:1061000070B504460D4616465AB1042A09D0082A2D
:1061100007D00C2A05D0102A03D0142A01D03C2A1B
:106120003CD12B68602B0DD0702B0BD0AC4A934226
:1061300008D01032934205D01032934202D0103270
:10614000934231D1AB680BB1022B33D12B690BB128
:10615000042B35D194F83C30012B00F069810123E8
:1061600084F83C30022384F83D30142E75D8DFE8E3
:1061700016F02D007400740074007B00740074002D
:106180007400B400740074007400E40074007400BF
:10619000740015017400740074003D0140F6136131
:1061A0009048FBF776F9BCE740F614618D48FBF7A1
:1061B00070F9C7E740F615618A48FBF76AF9C5E749
:1061C00040F616618748FBF764F9C3E72368864AFF
:1061D00093422FD0B3F1804F2CD0A2F57C42934252
:1061E00028D002F58062934224D002F58062934267
:1061F00020D002F5784293421CD002F570529342AF
:1062000018D002F58062934214D002F58062934266
:1062100010D0A2F5983293420CD002F580629342DE
:1062200008D002F58062934204D040F622616D48A6
:10623000FBF72FF929462068FFF7C8FC226893690D
:1062400043F0080393612268936923F00403936188
:106250002268936929690B439361012384F83D30D7
:10626000002084F83C0070BD23685F4A93421FD031
:10627000B3F1804F1CD0A2F57C42934218D002F5B6
:106280008062934214D002F58062934210D002F5EE
:10629000784293420CD002F57052934208D0A2F596
:1062A0009432934204D040F633614E48FBF7F1F844
:1062B00029462068FFF7C4FE2268936943F400630F
:1062C00093612268936923F48063936122689369E0
:1062D000296943EA01239361BFE72368424A934255
:1062E00017D0B3F1804F14D0A2F57C42934210D066
:1062F00002F5806293420CD002F58062934208D08E
:1063000002F57842934204D040F644613548FBF7E9
:10631000C0F829462068FFF7B5FC2268D36943F02E
:106320000803D3612268D36923F00403D361226890
:10633000D36929690B43D3618FE723682A4A9342C3
:1063400017D0B3F1804F14D0A2F57C42934210D005
:1063500002F5806293420CD002F58062934208D02D
:1063600002F57842934204D040F655611D48FBF790
:1063700090F829462068FFF7E5FC2268D36943F4CA
:106380000063D3612268D36923F48063D3612268F8
:10639000D369296943EA0123D3615EE72368124A7E
:1063A000934208D002F58062934204D040F66661C1
:1063B0000C48FBF76EF829462068FFF7B5FB22680A
:1063C000536D43F0080353652268536D23F00403B3
:1063D00053652268536D29690B4353653DE700BF40
:1063E0004000010018E40008000001402368114A41
:1063F000934208D002F58062934204D040F6776160
:106400000D48FBF746F829462068FFF7B5FB2268E0
:10641000536D43F4006353652268536D23F4806326
:1064200053652268536D296943EA0123536514E7D4
:10643000022018E70000014018E4000870B5044687
:106440000D4616462A4B98422FD0B0F1804F2CD0E3
:10645000A3F57C43984228D003F58063984224D06A
:1064600003F58063984220D003F5784398421CD00E
:1064700003F57053984218D003F58063984214D006
:1064800003F58063984210D0A3F5983398420CD05E
:1064900003F58063984208D003F58063984204D0E6
:1064A00041F6AD211348FAF7F4FF5DB1042D09D090
:1064B000082D07D00C2D05D0102D03D0142D01D0A0
:1064C0003C2D0ED105F01F05012303FA05F2236AC6
:1064D00023EA02032362236A06FA05F51D432562B7
:1064E00070BD41F6AE210348FAF7D3FFEAE700BFDB
:1064F0000000014018E4000838B504460D46036862
:106500004E4A934245D0B3F1804F4FD04C4A93420C
:1065100055D04C4A93425BD04B4A934261D04B4A90
:10652000934267D04A4A934271D04A4A934273D009
:10653000494A934273D0494A934273D0484A93429E
:1065400075D0484A934275D040F2D3214648FAF7B5
:10655000A0FF012229462068FFF770FF2368374A11
:10656000934203D002F58062934203D15A6C42F405
:1065700000425A64226891683C4B0B40062B06D0BF
:10658000B3F5803F03D0136843F00103136000208C
:1065900038BD0029DDD00429DBD00829D9D00C2949
:1065A000D7D01029D5D01429ADD1D2E7002DD0D025
:1065B000042DCED0082DCCD00C2DA7D1C9E7002DAD
:1065C000C7D0042DC5D0082DC3D00C2DA1D1C0E754
:1065D000002DBED0042DBCD0082DBAD00C2D9BD1DF
:1065E000B7E7002DB5D0042DB3D0082DB1D00C2DB8
:1065F00095D1AEE7002DACD0042DAAD0082DA8D09F
:106600000C2DA6D0102DA4D0142D8BD1A1E7002DD8
:106610009FD0042D89D19CE7002D9AD088E7002DCA
:1066200097D088E7002D94D0042D87D191E7002DD5
:106630008FD086E7002D8CD086E700BF0000014098
:106640000004004000080040000C0040000401402D
:106650000040014000440140004801400018004053
:10666000001C00400020004018E400080700010062
:1066700038B504460D460368544A934243D0B3F1FB
:10668000804F4DD0524A934253D0524A934259D0F0
:10669000514A93425FD0514A934265D0504A934247
:1066A0006FD0504A934271D04F4A934271D04F4AB3
:1066B000934271D04E4A934273D04E4A934273D064
:1066C00040F2F9214C48FAF7E4FE002229462068FE
:1066D000FFF7B4FE23683D4A934268D002F580621A
:1066E000934264D02368196A41F21112114208D111
:1066F000196A40F24442114203D11A6822F00102A1
:106700001A60002038BD0029DFD00429DDD0082917
:10671000DBD00C29D9D01029D7D01429AFD1D4E798
:10672000002DD2D0042DD0D0082DCED00C2DA9D143
:10673000CBE7002DC9D0042DC7D0082DC5D00C2D16
:10674000A3D1C2E7002DC0D0042DBED0082DBCD0EF
:106750000C2D9DD1B9E7002DB7D0042DB5D0082D53
:10676000B3D00C2D97D1B0E7002DAED0042DACD016
:10677000082DAAD00C2DA8D0102DA6D0142D8DD167
:10678000A3E7002DA1D0042D8BD19EE7002D9CD036
:106790008AE7002D99D08AE7002D96D0042D89D163
:1067A00093E7002D91D088E7002D8ED088E7196AF5
:1067B00041F21112114295D1196A40F2444211423C
:1067C00090D15A6C22F400425A648BE700000140D9
:1067D0000004004000080040000C0040000401409C
:1067E00000400140004401400048014000180040C2
:1067F000001C00400020004018E40008F8B50446E2
:106800000D460368524A93421FD0B3F1804F1CD00B
:10681000A2F57C42934218D002F58062934214D0D4
:1068200002F58062934210D002F5806293420CD050
:1068300002F58062934208D002F57042934204D080
:1068400040F263614348FAF724FE2B686BB1102BCA
:106850000BD0202B09D0302B07D0402B05D0502B4C
:1068600003D0602B01D0702B5ED1AB68802B01D0A0
:10687000002B5FD194F83C30012B67D0012384F8C2
:106880003C30022384F83D3023685E689F68304ABC
:10689000934203D002F58062934232D16B6863B3B6
:1068A000B3F5801F29D0B3F5001F26D0B3F5401FE4
:1068B00023D0B3F5800F20D0B3F5A00F1DD0B3F5D2
:1068C000C00F1AD0B3F5E00F17D0B3F5000F14D0F6
:1068D000B3F5100F11D0B3F5200F0ED0B3F5300F74
:1068E0000BD0B3F5400F08D0B3F5500F05D0B3F57A
:1068F000600F02D0B3F5700F22D126F470066B68DA
:106900001E4326F070062B681E4327F08007AB68F5
:106910003B432268566022689360012384F83D302F
:10692000002084F83C00F8BD40F264610948FAF7A1
:10693000B0FD9AE740F265610648FAF7AAFD99E7CB
:1069400040F277610348FAF7A4FDD6E70220EAE7B0
:106950000000014050E4000870B506460D4603688B
:10696000664A934208D002F58062934204D040F216
:10697000A6616348FAF78DFD2B68B3F5006F01D06F
:10698000002B76D16B68B3F5806F01D0002B76D1E8
:10699000AB6843B1B3F5807F05D0B3F5007F02D07B
:1069A000B3F5407F71D1EB68FF2B74D82B69B3F539
:1069B000805F01D0002B74D16B6913B1B3F5005F18
:1069C00075D1AB690F2B78D8AB6AB3F5804F01D086
:1069D000002B78D196F83C30012B00F08C800123FD
:1069E00086F83C30EB6823F44074AB681C4324F415
:1069F00080646B681C4324F400642B681C4324F4FB
:106A000080542B691C4324F400546B691C4324F408
:106A10008044AB6A1C4324F47024AB6944EA034409
:106A20003368364A934203D002F5806293421AD10A
:106A3000EB69B3F1807F01D0002B4AD12B6A13B1EF
:106A4000B3F1007F4BD16B6A0F2B4ED824F4700446
:106A50006B6A44EA035424F08074EB691C4324F00D
:106A600000742B6A1C4333685C64002086F83C0089
:106A700070BD40F2A7612248FAF70BFD82E74FF4A0
:106A8000D5611F48FAF705FD82E740F2A9611C486D
:106A9000FAF7FFFC87E740F2AA611948FAF7F9FC18
:106AA00084E740F2AB611648FAF7F3FC84E740F262
:106AB000AC611348FAF7EDFC83E740F2AD61104892
:106AC000FAF7E7FC80E740F2AE610D48FAF7E1FC27
:106AD00080E740F2C3610A48FAF7DBFCAEE740F218
:106AE000C4610748FAF7D5FCADE740F2C561044838
:106AF000FAF7CFFCAAE70220BAE700BF0000014086
:106B000050E4000884B010B5044603A880E80E00E5
:106B1000089B012B29D0032B54D0E36843F040039A
:106B2000E360002301335E4A934200F2A2802269AF
:106B3000002AF7DA236943F00103236100230133BC
:106B4000574A934200F29780226912F0010FF6D162
:106B50000020A36B43F48033A363069B012B00F05A
:106B60009480BDE8104004B07047A36B23F48033D9
:106B7000A363E36823F4840323F04003E360E36842
:106B800023F44013E3600F9B012B16D00023013345
:106B9000434A934271D82269002AF8DA236943F004
:106BA00001032361002301333D4A934267D82269E0
:106BB00012F0010FF7D10020CFE7E36843F4801310
:106BC000E360E3E7A36B23F48033A363E36823F478
:106BD000840323F04003E360E36823F44013E3609D
:106BE000E36823F01003E360A36B43F40003A363A3
:106BF0002C4A936943F0040393610023294A926964
:106C000012F0020F05D10133254A9342F6D9032031
:106C100010E0244B0A221A60DA6842F4716242F0F2
:106C20000302DA601A6842F001021A600220FBF7E0
:106C300045FB002090BB0F9B012B15D00023013397
:106C4000174A93421DD82269002AF8DA236943F0D3
:106C50000103236100230133114A934213D82269AF
:106C600012F0010FF7D178E7E36843F48013E36093
:106C7000E4E703206DE703206BE703206DE70320C3
:106C80006BE7032069E7032067E7A36843F0060387
:106C9000A360A36843F02003A36062E7012060E7DC
:106CA000400D0300007C0140032A0AD00921C2687C
:106CB00022F47052C260C36843EA8123C36000209B
:106CC0007047234B0B44234A93422FD9224B0B444A
:106CD000224A93422CD9A1F57403A3F51053204AFC
:106CE000934227D9A1F18373A3F5E7431D4A934249
:106CF00022D31D4B0B441D4A93421FD91C4B0B44FE
:106D00001C4A93421CD31C4B0B441C4A934219D37C
:106D1000A1F1B773A3F55853194A934214D3194BF1
:106D20000B44194A934211D20721C0E70F21BEE755
:106D30000E21BCE70D21BAE70C21B8E70B21B6E71D
:106D40000A21B4E70921B2E70821B0E70621AEE73E
:106D5000405327FFFF340C00401E1BFF3F420F0033
:106D60007F4F120020D6130060B6E5FE5FE31600E9
:106D700000D3CEFE40771B00C05BB3FEC091210064
:106D800020753800E05459FEE09C4100836843F0D0
:106D90000103836000207047836823F00103836050
:106DA0000020704708B5C36823F0C043C3600129C1
:106DB00009D069B9C36843F08043C3603220FBF750
:106DC0007DFA002008BDC36843F00053C360F5E7B7
:106DD0000120F7E784B0F0B5044606A880E80E006D
:106DE0002146002306E003F1400204EB820200206A
:106DF000506001330E2BF6D9109E002E41D1A36BAB
:106E000023F40013A363236843F040032360236843
:106E100043F0800323600023C4F8003E04F50065BE
:106E2000D4F80038C4F800380B9B012B2ED0032B6C
:106E30003AD0D4F8003843F00303C4F800384FF4D4
:106E400084632361002301335B4A93423AD8226969
:106E500012F0200FF7D1002000B101201023236190
:106E600000230133544A93422ED8226912F0100FA6
:106E7000F7D1002303B1012000232B616B61EB618B
:106E80002FE0A36B43F40013A363C4E7089B23B96B
:106E9000D4F80038C4F80038D1E7D4F8003843F00B
:106EA0000103C4F80038CAE7089B23B9D4F80038B6
:106EB000C4F80038C3E7D4F8003843F00103C4F83D
:106EC0000038BCE70320C7E70323D3E7DBB94FF063
:106ED000006CC2F800C900223A614FF67F32BA60F6
:106EE0000133DDF818E09E4512D901EB431202F59B
:106EF0001067D2F800C9BCF1000FE7DB4FF0000CBF
:106F0000C2F800C9E7E74FF0904CC2F800C9E2E7C9
:106F100000230AE0CBB14FF0904CC2F800CB002226
:106F20003A614FF67F32BA6001339E4512D901EBC8
:106F3000431202F53067D2F800CBBCF1000FE9DB59
:106F40004FF0000CC2F800CBE9E74FF0006CC2F83C
:106F500000CBE4E72B6923F480732B61099B012BA1
:106F600019D00022A2616FF0804262611BB9A3694F
:106F700043F01003A361A269104B1343A3610C9B60
:106F80001BB1A36943F00803A361012E0CD0BDE837
:106F9000F04004B070470A4A2A632A6B42F48032F8
:106FA00042F003022A63DCE7A36943F0804343F025
:106FB0000403A361EBE700BF400D030000383C80F1
:106FC00000018000890141F02001016100230133AB
:106FD000054A934205D8026912F0200FF7D100202C
:106FE00070470320704700BF400D0300D0F80838F9
:106FF00013F0060307D0022B07D0062B01D0002088
:10700000704703207047002070470320704770B41A
:107010000C784B78012B22D0D0F81C3804F00F06E6
:107020000122B24043EA0243C0F81C3800EB44108E
:10703000D0F8003B13F4004F0ED1D0F8003B8A6823
:10704000C2F30A02C97842EA8142134343F08053F3
:1070500043F40043C0F8003B002070BC7047D0F8F8
:107060001C2804F00F06B3409BB21343C0F81C3831
:1070700000EB4410D0F8003913F4004FECD1D0F8F5
:1070800000398A68C2F30A02C97842EA814242EAB8
:1070900084541C4344F0805444F40044C0F8004934
:1070A000DAE7000070B40B784A78012A1FD0D0F8D4
:1070B0003C5803F00F06012404FA06F625EA0645BB
:1070C000C0F83C58D0F81C58097801F00F018C40EA
:1070D00025EA0444C0F81C4800EB4310D0F8002B0C
:1070E000124B1340C0F8003B002070BC7047D0F832
:1070F0003C6803F00F0402FA04F4A4B226EA040484
:10710000C0F83C48D0F81C48097801F00F018A40CB
:1071100092B224EA0202C0F81C2800EB4310D0F817
:107120000039034A1A40C0F80029DDE70078F3EF80
:10713000007833ECF0B40B784C78012C2BD000EBBA
:10714000431303F530642569ED0CED0425612569D1
:1071500025F0FF5525F4C01525614D69002D40F03F
:10716000BB8025698E68C6F3120635432561256903
:1071700045F400252561012A00F0C380CA78012A60
:1071800000F0C580D3F8002B42F00442C3F8002B76
:107190000020F0BC704705464C69002C47D100EB3D
:1071A0004314D4F8106926F0FF5626F4C016C4F82C
:1071B0001069D4F8106946F40026C4F81069D4F8B0
:1071C0001069F60CF604C4F81069012A65D0CC7871
:1071D000012C0BD04C694CB1D0F834480E7806F035
:1071E0000F070126BE403443C0F83448CC78012C48
:1071F0005BD000EB4313D3F8004944F00444C3F8D8
:107200000049CB78012BC3D1C8680E784969002AA0
:10721000BED189B2033189089142B9D905EB063351
:1072200003F5805350F8044B1C600132F4E700EB87
:107230004314D4F81069F60CF604C4F81069D4F8B5
:10724000106926F0FF5626F4C016C4F81069D4F869
:1072500010794E69D1F808C06644013EB6FBFCF6D1
:10726000DFF8D0C00CEAC6463E43C4F81069D4F833
:1072700010694F69C7F312073E43C4F8106904F55B
:107280001064CE78012EA0D1266926F0C046266172
:10729000266946F00056266197E70C69002CA5D0B8
:1072A00000EB4316C6F81449A0E7D0F8084814F4D8
:1072B000807F08D100EB4316D6F8004944F0005413
:1072C000C6F8004995E700EB4316D6F8004944F0AC
:1072D0008054C6F800498CE78E683544013DB5FB03
:1072E000F6F52669134F07EAC5473E43266127692D
:1072F0008E68ADB206FB05F5C5F312053D43256169
:1073000039E7CA68002A3FF439AF626136E7D0F83E
:10731000082812F4807F06D1D3F8002B42F00052E7
:10732000C3F8002B2EE7D3F8002B42F08052C3F8AD
:10733000002B27E70000F81F70B40B784C78012C65
:1073400026D000EB431000F530631C69E40CE40424
:107350001C611C6924F0FF5424F4C0141C614C69A6
:107360000CB18C684C611C6944F400241C611C69DC
:107370008D68C5F312052C431C61012A5DD0D0F83D
:10738000003B43F00443C0F8003B002070BC704752
:107390004C6964BB00EB4314D4F8105925F0FF5539
:1073A00025F4C015C4F81059D4F8105945F4002537
:1073B000C4F81059D4F81059ED0CED04C4F8105964
:1073C000012A32D04A694AB1D0F83428097801F04C
:1073D0000F040121A1400A43C0F8342800EB4310F8
:1073E000D0F8002942F00442C0F80029CDE700EBB4
:1073F000431404F510642569ED0CED04256125693D
:1074000025F0FF5525F4C01525614E698D68AE4203
:1074100000D94D61256945F40025256125694E692E
:10742000C6F3120635432561CAE70A69002AD5D09A
:1074300000EB4311C1F81429D0E7CA68002A9ED096
:107440005A619CE770B49DF80C4064B903339D0801
:10745000AC4208D200EB023303F5805351F8046BC1
:107460001E600134F4E7002070BC704710B4033292
:1074700094080023A34206D200F58052126841F816
:10748000042B0133F6E708465DF8044B70470B7890
:107490004A78012A14D000EB4310D0F8002B002AC0
:1074A00006DB2BB1D0F8003B23F08043C0F8003B53
:1074B000D0F8003B43F40013C0F8003B00207047B5
:1074C00000EB4310D0F80029002A06DB2BB1D0F8DE
:1074D000003923F08043C0F80039D0F8003943F474
:1074E0000013C0F80039E9E70B784A78012A0ED07A
:1074F00000EB4310D0F8003B23F40013C0F8003B2E
:10750000CB78023BDBB2012B15D90020704700EB92
:107510004310D0F8003923F40013C0F80039CB78B9
:10752000023BDBB2012BF0D8D0F8003943F0805396
:10753000C0F80039E9E7D0F8003B43F08053C0F8C9
:10754000003BE2E7D0F8003823F4FE63C0F80038CF
:10755000D0F80038090101F4FE611943C0F80018A1
:107560000020704708B5D0F8043823F00203C0F8B3
:1075700004380320FAF7A2FE002008BD08B5D0F8B1
:10758000043843F00203C0F804380320FAF796FEEB
:10759000002008BD4269806910407047D0F8183853
:1075A00000F50060C0691840000C7047D0F818382A
:1075B00000F50060C069184080B2704700EB4111CF
:1075C000D1F8082B00F5006040691040704710B4F6
:1075D000D0F81048D0F8343801F00F02D340DB0166
:1075E000DBB2234300EB411000F5106080681840C7
:1075F0005DF8044B7047406900F001007047D0F817
:10760000003923F4FF6323F00703C0F8003900F5C5
:1076100000639A6802F00602042A05D05A6842F410
:1076200080725A6000207047D0F8002942F00302AF
:10763000C0F80029F2E7000010B4046C154B9C421E
:1076400003D9D0F8003B002B16DB0024C0F8104B08
:10765000D0F8104B44F40024C0F8104BD0F8104B75
:1076600044F01804C0F8104BD0F8104B44F0C0445C
:10767000C0F8104B012903D000205DF8044B70477F
:10768000C0F8142BD0F8003B43F08023C0F8003B37
:10769000F2E700BF0A30544FC0B108B50346D0F836
:1076A000900210B10020C3F89002D3F88C0210B100
:1076B0000020C3F88C0209B1C3F88812012183F8B5
:1076C00074121A701846FAF7F5FA08BD02207047CE
:1076D00010B582B00E4B1B6801934FF000030023DE
:1076E000ADF8023081B10446C0F890128B6A0DF1FA
:1076F00002009847C4F88C020020054B1A68019BD1
:107700005A4003D102B010BD0220F6E701F0ACF8F8
:1077100088E4000808B5FAF711FB08BD08B5D0F8F1
:10772000903213B11B68984708BD0220FCE708B5EA
:10773000D0F890320BB15B689847002008BD38B58F
:10774000044600F52075284600F06AFC0123C4F8C1
:107750006C32B4F88632C4F8703294F8801201F0BA
:107760001F03012B0DD0022B10D02BB101F0800193
:107770002046FAF713FB03E02946204600F002F901
:1077800038BD2946204600F0F1FAF9E7294620469F
:1077900000F029FBF4E738B504460D4639BB134623
:1077A000D0F86C22032A01D0084638BDD0F84C111D
:1077B000D0F8502191420CD8D0F890321B691BB1FF
:1077C00090F87422032A10D0204600F084FC28464A
:1077D000EBE7891AC0F84C118A4228BF0A4692B2D8
:1077E000194600F070FC2846DFE79847ECE7D0F830
:1077F00090329B692BB190F87422032A03D19847E9
:10780000D3E70220D1E70220CFE738B504460D4682
:10781000002949D11346D0F86C22022A05D094F8E9
:107820007832012B3BD0284638BD026A416A8A4231
:1078300011D88A421CD0D4F89032DB681BB194F87E
:107840007422032A28D080212046FAF7A7FA20467E
:1078500000F04CFCE3E7521A026292B2194600F0C3
:107860002AFC00231A4619462046FAF7EAFAD6E718
:10787000C3699942DFD8D0F870229342DBD200224C
:10788000114600F018FC0021C4F870120B460A469D
:107890002046FAF7D6FAC2E720469847D3E70023F6
:1078A00084F878322846BFE7D0F890325B692BB174
:1078B00090F87422032A03D19847B5E70220B3E772
:1078C0000220B1E770B50446012380F8743200232A
:1078D000C0F86C324360C0F87C32D0F8943223B1E7
:1078E000D0F890325B68002198474023002211466F
:1078F0002046FAF732FA0126C4F844614025C4F85C
:1079000050512B46002280212046FAF726FAA66124
:107910006562002070BD01740020704790F87432D9
:1079200080F87532042380F874320020704790F894
:107930007432042B01D00020704790F8753280F823
:107940007432F8E708B590F87432032B01D00020A8
:1079500008BDD0F89032DB69002BF8D09847F6E7E5
:1079600000207047002070470020704708B50123B1
:1079700080F87432D0F8903213B15B68017998477F
:10798000002008BD30B583B004460D46A34B1B68EC
:1079900001934FF000030B7803F06003202B0AD013
:1079A000402B08D0B3B18021FAF7F8F90021204626
:1079B000FAF7F4F905E0D4F890329B68294620469E
:1079C0009847964B1A68019B5A4040F0CB810020A3
:1079D00003B030BD4B78092B00F2BC81DFE813F017
:1079E0007401A301BA019A01BA01B5000A00BA01F3
:1079F0004B01E4004A88130A013B062B00F29380F6
:107A0000DFE803F004192D91916D7E00D0F88832E3
:107A10001B680DF10201007C9847BDF802201AB1E5
:107A2000EB88002B40F08780EB88002BC9D12046E3
:107A300000F051FBC5E7037C43B9D0F890329B6A54
:107A40000DF10200984702234370E6E7D0F8903228
:107A5000DB6A0DF10200984702234370DDE7D2B2E2
:107A6000052A34D8DFE802F0030B131B232BD0F8D0
:107A700088325B680DF10201007C9847CDE7D0F8B1
:107A800088329B680DF10201007C9847C5E7D0F869
:107A90008832DB680DF10201007C9847BDE7D0F821
:107AA00088321B690DF10201007C9847B5E7D0F8D8
:107AB00088325B690DF10201007C9847ADE7D0F890
:107AC00088329B690DF10201007C9847A5E780216F
:107AD000FAF764F900212046FAF760F971E7037CB0
:107AE00033B9D0F890325B6B0DF10200984794E700
:107AF0008021FAF753F900212046FAF74FF960E7A1
:107B0000037C43B9D0F890321B6B0DF1020098470B
:107B10000723437081E78021FAF740F900212046CE
:107B2000FAF73CF94DE78021FAF738F900212046B1
:107B3000FAF734F945E79A4228BF1A46ADF8022011
:107B40000146204600F0AAFA6EE78B881BBBCB8863
:107B50000BBB4B887F2B1ED803F07F0590F8743247
:107B6000032B0CD080F876522946FAF74CF92046C0
:107B700000F0B1FA5DB1022384F8743221E780216C
:107B8000FAF70CF900212046FAF708F919E7012362
:107B900084F8743215E780212046FAF7FFF80021B7
:107BA0002046FAF7FBF80CE789781D4B197001297C
:107BB00012D890F87432022B16D0032B32D08021C9
:107BC000FAF7ECF800212046FAF7E8F8144B197898
:107BD0002046FFF7ACFDF4E68021FAF7DFF800213C
:107BE0002046FAF7DBF8ECE6A1B14160032380F808
:107BF0007432FFF793FD022803D0204600F06BFAA1
:107C0000DFE680212046FAF7C9F800212046FAF77E
:107C1000C5F8D6E600F05FFAD3E600BF8CE40008B2
:107C2000F80E002089B14368994221D0D9B2FFF7FC
:107C30007EFD4D4B197861602046FFF76FFD0228ED
:107C40000DD0204600F047FABBE6022380F87432DC
:107C50004160FFF76CFD204600F03DFAB1E680215F
:107C60002046FAF79BF800212046FAF797F8A8E695
:107C700000F031FAA5E6CB88012B0ED190F87432D2
:107C8000022B12D85BB2BBB980212046FAF786F8E6
:107C900000212046FAF782F893E68021FAF77EF871
:107CA00000212046FAF77AF88BE6032BECD101226B
:107CB000011D00F0F3F984E60146002341F8083F76
:107CC000012200F0EBF97CE690F87432013B022BC4
:107CD00018D8CB88022B0DD10023C360D0F87C329A
:107CE0000BB10223C360022204F10C01204600F014
:107CF000D5F966E68021FAF751F800212046FAF717
:107D00004DF85EE68021FAF749F800212046FAF79F
:107D100045F856E64B88012B7FF453AEC0F87C3211
:107D200000F0D9F94DE690F87432013B022B09D8E6
:107D30004B88012B7FF445AE0023C0F87C3200F065
:107D4000CAF93EE68021FAF729F800212046FAF721
:107D500025F836E68021FAF721F800212046FAF7C7
:107D60001DF82EE600F080FDF80E002038B5044620
:107D70000D460B7803F06003202B0BD0402B09D06D
:107D800043B18021FAF70AF800212046FAF706F8F5
:107D9000002038BD94F87432013B022B1AD82B799D
:107DA000022B0ED8D4F890329B682946204698477B
:107DB000EB88002BECD10028EAD1204600F08BF9AB
:107DC000E6E780212046F9F7E9FF00212046F9F790
:107DD000E5FFDDE780212046F9F7E0FF002120469E
:107DE000F9F7DCFFD4E770B505468B880C7804F012
:107DF0006004202C0CD0DAB2402C09D084B1802150
:107E0000F9F7CCFF00212846F9F7C8FF002405E068
:107E1000D5F890329B68284698470024204670BDCC
:107E2000202C0ED04E78012E42D0032E0FD0002EE3
:107E30006ED08021F9F7B2FF00212846F9F7AEFF96
:107E4000ECE7D0F890329B6898470446E6E790F854
:107E50007432022B09D0032B1BD08021F9F79EFF2F
:107E600000212846F9F79AFFD8E70AB1802A08D1FD
:107E700080212846F9F792FF00212846F9F78EFF66
:107E8000CCE71146F9F78AFF80212846F9F786FFEB
:107E9000C4E74B8823B91AB1802A01D0CB881BB123
:107EA000284600F018F9B9E71146F9F777FFF7E728
:107EB00090F87432022B09D0032B1BD08021F9F7E4
:107EC0006DFF00212846F9F769FFA7E70AB1802A6C
:107ED00008D180212846F9F761FF00212846F9F7EB
:107EE0005DFF9BE71146F9F759FF80212846F9F716
:107EF00055FF93E74B88002B90D112F07F0F03D1F1
:107F0000284600F0E8F889E71146F9F756FFF7E749
:107F100090F8741202290AD0032930D08021F9F791
:107F20003DFF00212846F9F739FF344676E70AB1CC
:107F3000802A12D113F0800F18D102F07F0202EBD9
:107F40008202910001F5A071294400230B600222F6
:107F5000284600F0A3F8344660E78021F9F71EFFB9
:107F600000212846F9F71AFF344657E702F07F024E
:107F700002EB82029100103129440431E5E75BB243
:107F8000002B1EDB02F00F0101EB810100EB8101F0
:107F9000D1F8441139B3002B2EDB02F07F0303EB41
:107FA00083039C0004F5A0742C440AB1802A2CD1D0
:107FB0000023236002222146284600F06FF8344651
:107FC0002CE702F00F0101EB810100EB81018969CF
:107FD0000029E0D18021F9F7E1FE00212846F9F7D8
:107FE000DDFE34461AE78021F9F7D8FE0021284645
:107FF000F9F7D4FE344611E702F07F0303EB830365
:108000009C0010342C440434CFE711462846F9F77D
:10801000E3FE10B101232360CCE700232360C9E70E
:108020000B7803704B7843708B78CA7803EB02238C
:1080300043800B794A7903EB022383808B79CA79D9
:1080400003EB0223C380704710B504468021F9F783
:10805000A5FE00212046F9F7A1FE10BD40B130B4C5
:1080600004460023057825B10133DBB20130F9E77E
:10807000704701335B0013800B7003234B700223A6
:1080800007E001345A1CD2B2C8540233DBB20020DC
:10809000885420780028F4D130BC704710B51346BE
:1080A0000222C0F86C22C36103620A460021F9F77C
:1080B000B9FE002010BD08B513460A460021F9F7A5
:1080C000B1FE002008BD08B513460A460021F9F7A5
:1080D000B8FE002008BD08B50423C0F86C320023A8
:1080E0001A461946F9F79EFE002008BD08B505237B
:1080F000C0F86C3200231A461946F9F7A2FE002098
:1081000008BD0000DFF834D0002103E00C4B5B58C1
:10811000435004310B480C4B42189A42F6D30B4A99
:1081200002E0002342F8043B094B9A42F9D3F9F7E5
:10813000C1FC00F011F8F9F757F87047000004206F
:10814000D0E8000800000020D00A0020D00A00205B
:1081500090190020FEE7000070B50D4E0D4D761B06
:10816000B61006D0002455F8043B01349847A642C7
:10817000F9D1094E094D761B06F018F8B61006D055
:10818000002455F8043B01349847A642F9D170BD4C
:10819000C0E80008C0E80008CCE80008C0E8000813
:1081A000024B0146186800F00BB800BF2401002004
:1081B000024B0146186803F0D7B900BF2401002024
:1081C0002DE9F04F01F10B05162D83B0064624D89A
:1081D000102900F2B78000F0FDFA102502211823C3
:1081E000DFF8F0844344A3F108025C68944200F095
:1081F000B580636823F003032344D4E902515A682D
:10820000E96042F0010230468D605A6000F0E8FA01
:108210000834204603B0BDE8F08F35F0070500F1C3
:108220009180A94200F28E8000F0D4FAB5F5FC7F6F
:10823000C0F090816B0A00F08C80042B00F2668104
:10824000AB0903F1390103F13807CB00DFF884846F
:108250004344A3F108005C68A04206D10CE0002A68
:1082600080F22281E468A04206D0636823F0030311
:108270005A1B0F2AF3DD3946D8F81040DFF858C4EE
:10828000644577D0626822F00302531B0F2B00F382
:108290006F81002BC8E904CC80F26081B2F5007FC9
:1082A00080F01081D3080133500901228240D8F8B0
:1082B000040058F83370A76008EBC30E0243AEF118
:1082C0000800E060C8F8042048F83340FC608B10D8
:1082D00001209840904254D8104206D121F0030169
:1082E0004000104201F10401FAD008EBC1094C46EC
:1082F0008E46E768BC4207D114E1002B80F21B8157
:10830000FF68BC4200F00E817A6822F00302531B22
:108310000F2BF2DDD7E902E4791945F001057D6004
:1083200043F00105CEF80C403046C4F808E0C8E937
:108330000411C1E902CC4D60BB5000F051FA07F1C5
:10834000080402E00C2333600024204603B0BDE89B
:10835000F08F4FF4007340213F2777E7DC68A3429A
:1083600008BF02317FF445AFD8F81040DFF868C38A
:10837000644587D1D8F804208B10012098409042A2
:10838000AAD9D8F80840676827F00307BD4202D889
:108390007B1B0F2B77DCDFF84493CA4BD9F8002006
:1083A0001B6801322B4404EB070A00F02E8103F511
:1083B00080530F3323F47F6B2BF00F0B594630465D
:1083C00000F014FA411C024600F0EB80824500F2F6
:1083D000E680BD4B196859441960084600F04B818E
:1083E000D9F80010019301311BBFA2EB0A0A5044D7
:1083F000C9F80020186012F0070A00F01481CAF1D1
:1084000008010A44CAF5805193440831A1EB0B01DD
:10841000C1F30B0949463046009200F0E7F9421CCF
:10842000DDE9002300F05C81801A00EB090B19687C
:10843000C8F808204BF001004944444550601960D9
:1084400000F026810F2F40F2258160680C3F27F055
:10845000070700F0010004EB070C38434FF0050E4E
:108460000F2F6060CCE901EE00F2428150681446A3
:10847000964B1A688A4238BF1960954B1A688A422F
:1084800038BF196090E0621943F0010345F001051F
:1084900065603046C8F80820536000F0A1F9083440
:1084A000204603B0BDE8F08F2344E1685A68A56810
:1084B00042F00102E96030468D605A6000F090F9A8
:1084C000083442E7B2F5206F4FEA522361D3142BF0
:1084D00000F2BA8003F15C00C0005B3308EB0007D8
:1084E00058F80000083F874200F09280436823F06C
:1084F0000303934202D980688742F7D1C768D8F84E
:108500000420C4E90207BC60C460E0E6142B59D91A
:10851000542B00F2A1802B0B03F16F0103F16E07C6
:10852000CB0093E60EF1010E1EF0030F04F10804D8
:108530007FF4DFAE51E03A443C465368F96854F8A2
:10854000085F43F0010353603046E9608D6000F03E
:1085500047F9FAE6E90805F1080341E62244304606
:10856000536843F001035360083400F039F9ECE636
:10857000611943F0010745F0010565603046C8E91F
:108580000411C1E902CC4F60A35000F029F908346E
:10859000DBE6930903F13900C00038339EE7444518
:1085A00064D0D8F80840606820F0030B5D45ABEB61
:1085B000050302D80F2B3FF766AF304600F010F9E5
:1085C0000024C2E603F15C0103F15B07CB003DE64A
:1085D00059F808394B4540F0AA8011F0030F01F11A
:1085E000FF31F5D1D8F8043023EA0003C8F804308D
:1085F000400098423FF6C5AE18B9C2E640000EF101
:10860000040E1842FAD071466FE603F1100BD5E65E
:108610009A104FF0010ED8F804300EFA02F21A4305
:10862000C8F804206DE702EB0B014942C1F30B09C6
:1086300049463046009200F0D9F8431CDDE900239A
:108640007FF4F2AED146F2E6542B26D8130B03F199
:108650006F00C0006E3341E7B3F5AA7F26D8EB0B5D
:1086600003F1780103F17707CB00EFE5164B1868AB
:1086700058441860B4E6CAF30B0CBCF1000F7FF449
:10868000AFAED8F80840BB444BF001006060EFE6A5
:108690001446EDE6012353608FE7B3F5AA7F33D884
:1086A000D30B03F17800C000773317E740F2545240
:1086B000934233D8AB0C03F17D0103F17C07CB006F
:1086C000C4E500BF2C0F0020FC0E0020240F00206A
:1086D000280F0020500500205805002058090020D0
:1086E000AAF1080AD344ABEB020B4FF000099EE657
:1086F00004F108013046009302F036FFD8F8084034
:10870000009B60681968B3E640F2545083420AD86F
:10871000930C03F17D00C0007C33DFE64FF47E73E1
:108720007F217E2792E54FF47E707E23D6E6D8F82F
:1087300004305DE7F0B4860746D0541E002A3CD0D2
:10874000CAB2034601E0013C37D303F8012B9D0771
:10875000F9D1032C2AD9CDB245EA05250F2C45EADB
:10876000054534D9A4F1100222F00F0C03F12007C3
:108770001609674403F1100242E9045542E9025523
:108780001032BA42F8D1721C14F00C0F03EB021233
:1087900004F00F0613D0331F23F0030304331344F4
:1087A00042F8045B9342FBD106F003042CB1CAB239
:1087B0001C4403F8012B9C42FBD1F0BC70473446AB
:1087C0001346002CF3D1F8E714460346C1E71A46D6
:1087D0002646E0E7014802F0D3BF00BF7819002029
:1087E000014802F0CFBF00BF7819002038B5074D0F
:1087F0000022044608462A6005F0C0FC431C00D055
:1088000038BD2B68002BFBD0236038BD8C190020AD
:108810000EB430B59CB01FAB0C4C0D4D53F8042B6F
:108820000193014602910691206802A96FF000446D
:10883000CDE90445079400F033F8029B00221A703A
:108840001CB0BDE8304003B0704700BF24010020D9
:108850000802FFFF034B1A6812B9A2F576021A60EC
:10886000704700BF300F002000B50C4D0FCD8DB00C
:108870006C460FC40FCD0FC495E80F0007C46846BF
:108880002370F7F75DFE69460246022001F0A4FD61
:10889000062003F061FB7F2005F086FC94E40008CD
:1088A0002DE9F04F2DED068BCFB08B461746089380
:1088B000814602F05DFF036811931846F7F740FE0A
:1088C000BBF80C3010901E0604D5DBF81030002BDE
:1088D00001F0188000239FED747BCDE92333CDE9AF
:1088E0001333CDE915330C931293049325AB2293E4
:1088F00098463B788DED0E7B09EE10BA002B00F008
:1089000059813C4604E014F8013F002B00F0A88098
:10891000252BF8D1E51B40F0A6802378002B00F032
:108920004981002305938DF86B300293661C4FF04C
:10893000FF33647803932B254FF0200A0136A4F10E
:1089400020035A2B00F2B480DFE813F09402B20047
:10895000B2008E02B200B200B2006A00B200B200F1
:10896000F2010302B200FD01A302B2009D025B000E
:108970005B005B005B005B005B005B005B005B001F
:10898000B200B200B200B200B200B200B2004901BF
:10899000B2009501C602490149014901B200B20085
:1089A000B200B2008802B200B2000702B200B20008
:1089B000B200A301B2007802B200B200BC07B2005C
:1089C000B200B200B200B200B200B200B20049017F
:1089D000B2009501C9014901490149013A02C901A1
:1089E0008400B2005B02B2004302B5076402840057
:1089F000B200A3018200B807B200B2009307B20030
:108A00008200A4F13003002216F8014B02EB82022F
:108A100003EB4202A4F13003092BF5D905928EE74E
:108A2000484602F0A5FE436815931846F7F788FDFF
:108A3000034648461C46169302F09AFE826813923B
:108A400034B1139B23B1139B1B78002B41F0918110
:108A5000347873E7029B347843F0200302936DE788
:108A6000E51B00F0A780DDE9233201332A44072B00
:108A7000CDE92332C8F80070C8F8045006DC08F1CC
:108A80000808049A23782A44049247E719EE101A3A
:108A900022AA484603F0B4FA002841F0EF830DF112
:108AA0009408EEE7AFF30080000000000000000033
:108AB0000996002C7ED000231A464FF0010A8DF84B
:108AC000D4408DF86B30079203920A920D920B926C
:108AD000CDF818A035AF029B029913F0020318BF1E
:108AE0000AF1020A11F0840B05D10599A1EB0A06DF
:108AF000002E00F3B583249D72B1239A0132013513
:108B00000DF16B000121072ACDE92325C8E90001F9
:108B100000F3E58308F108086BB1239B01330235AC
:108B20001BA90222072BCDE92335C8E9001200F367
:108B3000E58308F10808BBF1800F00F09B82039BDE
:108B4000069A9E1A002E00F3DD82029BDB0500F1DF
:108B50003582239B069AC8F8007001331544072B11
:108B60002495C8F80420239300F3598308F10808DA
:108B7000029B590705D5059BA3EB0A04002C00F3C3
:108B8000CA83DDE904325245ACBF9B1853440493B9
:108B9000002D40F0F48200232393079B1BB107991B
:108BA000484602F0E1FC0DF19408099F3B78002B48
:108BB0007FF4A7AE249B19EE10BA002B41F0B482CB
:108BC000BBF80C3013F0400F049B18BF4FF0FF337D
:108BD000049304984FB0BDEC068BBDE8F08F089B62
:108BE0000996073323F00703B3EC027B8DED0E7B70
:108BF000DDE90E56089326F000430AEE903A0AEE9D
:108C0000105A5BEC1AABB04B504659464FF0FF324E
:108C1000F8F746FA002840F00B85AB4B4FF0FF32D7
:108C200050465946F8F71EFA002840F00185002208
:108C3000002328463146F8F70BFA002841F07180EE
:108C40009DF86B20A14FA24B029800214FF0030A20
:108C500020F0800007910290472CC8BF1F46CDF836
:108C600018A003910A910D910B91002A3FF433AFA4
:108C70000AF1010A2FE7089B099653F8042B8DF897
:108C8000D42000210A464FF0010A08938DF86B109A
:108C900019E7089D099655F8047B00268DF86B604E
:108CA000002F00F03F86039A1346013300F0F2874D
:108CB00031463846F7F7B4FC0790002801F04881A8
:108CC000079B0396DA1B0692334622EAE27A08955E
:108CD0009DF86B2007930A930D930B93C5E7029BB6
:108CE00009969D0640F10181089B073323F0070395
:108CF0001946F1E80223089192469B46002A73F137
:108D00000003C0F20381039B013300F06C85029BDA
:108D100023F080055AEA0B0340F09182039B002B5D
:108D200040F0948202950023039306934EAF18E11E
:108D3000089B53F8042B0592002A80F25684059A6A
:108D4000089352420592029B347843F00403029345
:108D5000F4E534788DF86B50F0E5029B099643F00A
:108D600010030293029B990640F10C84089B073381
:108D700023F00703F3E802AB0893029B23F480651A
:108D8000002300228DF86B20039A1146013100F078
:108D9000CD8025F0800102915AEA0B0140F04B8210
:108DA000002A40F02387002BBDD115F00103069364
:108DB00000F01F8430238DF837310DF23717D0E0E3
:108DC0003478029B682C00F0968543F040030293B0
:108DD000B4E5029B09969E0600F1F984029BDD062C
:108DE00000F10A87029B5C0600F1D487029B98057C
:108DF00040F10287089B049953F8042B08931170E3
:108E0000D3E63478029B6C2C00F06E8543F010039F
:108E1000029393E5089B099647F6300153F8042B1B
:108E2000ADF86C10029908932A4B129341F0020599
:108E300092464FF0000B02237824A2E7029B09968A
:108E400043F01005AF0640F18D83089B073323F0F4
:108E50000703F3E802AB0893012392E7029B3478FF
:108E600043F00803029369E5029B347843F0010361
:108E7000029363E59DF86B30002B7FF4E9AD347805
:108E80008DF86BA05AE5029B347843F0800302937F
:108E900054E5324612F8014B2A2C01F07782A4F1F6
:108EA0003003092B164698BF002201F2398116F8CB
:108EB000014B02EB820203EB4202A4F13003092BC7
:108EC000F5D903923BE500BFFFFFEF7FC4E4000844
:108ED000C8E40008D4E40008029B099643F010039C
:108EE0000293029B9D063FF5FFAE029BD80640F120
:108EF0008A83089B53F8042B08934FEAE27B5B4676
:108F0000002A73F100039246BFF6FDAE039A029D5C
:108F1000DAF1000A11464FF02D036BEB4B0B0131D8
:108F20008DF86B304FF001037FF433AF012B00F06D
:108F30008681022B4EAF22D112984FEA1A130AF003
:108F40000F0143EA0B734FEA1B129A469346435CA8
:108F500007F8013D5AEA0B03EFD14EABDB1B02953C
:108F600006930023039907930A930D930B93069B93
:108F70009DF86B208B42B8BF0B469A4675E64FEAC8
:108F8000DA0242EA4B724FEADB010AF007038B4632
:108F9000924630335AEA0B013A4607F8013DEED1CA
:108FA000E907DAD5302BD8D03023023A07F8013C54
:108FB0004EAB9B1A029506931746D2E7652C40F3F9
:108FC000EA80DDE90E0100220023F8F737F80028D7
:108FD00000F0E381239BD34AC8F800200133013518
:108FE0000122072BCDE92335C8F8042000F3C685FC
:108FF00008F108081C9B0C9A934280F2F182239B93
:10900000119AC8F80020109AC8F8042001331544BA
:10901000072B2495239300F3598408F108080C9B2F
:109020005C1E002C7FF7A4AD102C239BDFF8FCB254
:1090300040F3B5855F46102619EE10BA05E008F139
:109040000808103C102C40F3A98501331035072B7C
:10905000CDE92335C8E90076F1DD22AA5946484614
:1090600002F0CEFF002840F01D82DDE923350DF12E
:109070009408E6E7059BA3EB0A06002E7FF75FAD99
:10908000102E239ADFF8A4B229DD58462946A346BC
:1090900019EE105A1023044604E0103E102E08F179
:1090A000080818DD01321031072ACDE92321C8E96B
:1090B0000043F2DD22AA2946484602F0A1FF00281B
:1090C00040F0EF81103E102EDDE923210DF19408D0
:1090D0004FF01003E6DC23460D465C469B4601320A
:1090E0003544072ACDE92325C8F800B0C8F8046044
:1090F00000F36E85039B069A9E1A002E08F108085D
:109100007FF723AD102E239ADFF820B229DD5846D1
:109110002946A34619EE105A1023044604E0103ED7
:10912000102E08F1080818DD01321031072ACDE9A8
:109130002321C8E90043F2DD22AA2946484602F06D
:109140005FFF002840F0AD81103E102EDDE92321A5
:109150000DF194084FF01003E6DC23460D465C4603
:109160009B4601323544072ACDE92325C8F800B0D3
:10917000C8F8046000F3E88108F10808E5E419EE96
:10918000101A22AA484602F03BFF00283FF403AD24
:1091900019EE10BA86E10C9B239C012B40F38C81C5
:1091A000013401350123072CCDE92345C8F80070AF
:1091B000C8F8043000F3F88108F10808109B119AF0
:1091C00001341D44072CCDE92345C8E9002300F3F1
:1091D000F98108F108080023DDE90E010022F7F704
:1091E0002DFF0C9B002840F08581013B01340137A5
:1091F0001D44072CCDE92345C8F80070C8F8043099
:1092000000F36A8108F10808149A013415441EAB72
:10921000072CCDE92345C8E900327FF7A7AC19EE4A
:10922000101A22AA484602F0EBFE0028B0D1249D75
:109230000DF194089CE4012B029D7FF47AAEBBF102
:10924000000F08BFBAF10A0F80F0D5820AF1300A88
:1092500001238DF837A1029506930DF2371780E6AA
:10926000102EDDE9232129DD1793102543460846FA
:10927000B846274619EE104A04E0103E102E03F1BE
:10928000080316DD013228491030072ACDE92320D2
:10929000C3E90015F1DD22AA2146484602F0B0FEDE
:1092A000002840F05084103E102EDDE9232025AB2D
:1092B000E8DC3C4647469846179B014601321A486F
:1092C000C8F800008D19072ACDE92325C8F80460E5
:1092D00000F327849DF86B2008F108080CE419EED0
:1092E000101A22AA4846179302F08AFE00287FF43B
:1092F0004FAF249D179B0DF194080DE419EE101A41
:1093000022AA484602F07CFE00287FF441AF249D4B
:109310000DF194080FE4102C239B26DD19EE107A32
:1093200010260AE004E5000808E5000818E5000832
:10933000103C102C08F1080817DD0133BA4A10352B
:10934000072BCDE92335C8E90026F1DD22AA3946ED
:10935000484602F055FE002840F01E84103C102CB8
:10936000DDE923350DF19408E7DC0133AE4AC8F896
:1093700000202544072BCDE92335C8F804407FF7AA
:1093800000AC19EE101A22AA484602F039FE002855
:109390007FF4FEAE249DFFF7F4BB1C9A002A40F335
:1093A0008A83DDE90B329342A8BF1346002B1C468B
:1093B0000DDD239BC8F8007001332544072B24954D
:1093C000C8F80440239300F35B8508F108080B9B61
:1093D000002CA8BF1B1B002B1C4600F3B3820B9B69
:1093E0003B449B46029B5E0500F1D3821C9B0C9A7A
:1093F000934203DB029AD40740F1C284239A119965
:10940000C8F800101099C8F8041001320D44072A5A
:109410002495239200F34F8508F108080C9ABC1894
:10942000A4EB0B04D31A9C42A8BF1C46002C0DDDF4
:10943000239AC8F800B001322544072A2495C8F8B9
:109440000440239200F35B8608F10808002CACBFAF
:109450001C1B1C46002C7FF78BAB102C239BDFF8CA
:10946000CCB140F39C835F46102619EE10BA05E09C
:1094700008F10808103C102C40F39083013310359C
:10948000072BCDE92335C8E90076F1DD22AA59463C
:10949000484602F0B5FD28B9DDE923350DF1940801
:1094A000E8E7AB46079B002B3FF48AAB0799484699
:1094B00002F05AF8FFF784BB029BD8073FF570AE65
:1094C000013401350123072CCDE92345C8F800708C
:1094D000C8F804307FF796AE19EE101A22AA484653
:1094E00002F08EFD00287FF453AEDDE923450DF137
:1094F000940889E65E1E002E7FF786AE102EDFF8F8
:109500002CB140F3BD83CDF80CA0102719EE10AAA2
:1095100005E008F10808103E102E40F3AF83013437
:109520001035072CCDE92345C8E900B7F1DD22AAA3
:109530005146484602F064FD002840F0FF85DDE911
:1095400023450DF19408E6E719EE101A22AA4846C1
:1095500002F056FD00287FF41BAE249D0DF1940807
:10956000FFF7F3BA089AEE0652F8041B08924FF080
:10957000010343D468063ED51FFA81FA4FF0000B71
:10958000FFF7FFBB029BDA0600F11881029B5B0626
:1095900040F18983089B53F8042B08931FFA82FA41
:1095A0004FF0000BFFF7E9BB19EE101A22AA48464C
:1095B00002F026FD00287FF4EBADDDE923450DF137
:1095C0009408FBE519EE101A22AA484602F018FD8D
:1095D00000287FF4DDADDDE923450DF19408FAE5BF
:1095E000029BDF077FF5C4AA09E534780893FFF7EB
:1095F000A5B94EAFB5E4AA0500F1D4838A464FF071
:10960000000BFFF7BEBB029B590640F16983089B24
:1096100053F8042B08930FFA82FA4FEAEA7B52467A
:109620005B46FFF76BBB00BF08E5000818E50008C4
:10963000DDE90E0102460B46F7F732FD054600282C
:1096400040F00F86612C00F0C485412C00F0AD8401
:10965000039B24F020065A1C069600F0C683472E72
:1096600000F0BC85DDE90E01029A002942F4807207
:109670000A924FF00003C0F2D28541EC180B179309
:109680000793462E00F04384452E40F02384B0EE2D
:10969000480AF0EE680A039B20A95D1C1DABCDE9CA
:1096A00000312A461CAB0221484600F055FF074610
:1096B00005440A9BDDF808B0029351EC180B002218
:1096C0000023F7F7BBFC002800F0CE832B46DB1B02
:1096D0000C93069B472B00F09983069B462B00F0CA
:1096E00044841C9B0B930B9B069A013B412A1C93C1
:1096F00000F0B185E2B20021002BB8BF0B9B8DF8C2
:109700007820BABFC3F101032D222B22092B8DF83B
:10971000792040F3B9850DF1870EDFF85CC47546FA
:109720008CFB0321DA17C2EBA10202EB8201A3EB4F
:1097300041011E463031632E284605F8011C1346B0
:1097400005F1FF35ECDC3033DAB2831E9E45294645
:1097500005F8012C40F23B860DF17A0301E011F887
:10976000012B03F8012B8E45F9D10DF189030DF181
:109770007A021B1A13441EAA9B1A14930C9B149A68
:10978000012B1A44069240F3E385069B109A13447A
:10979000069300232BF480660A930D930B93069B8C
:1097A00046F48072029223EAE37A179B002B40F082
:1097B00054839DF86B200393FFF757BA089B53F827
:1097C000042B089392464FF0000BFFF7D6BA089B84
:1097D00053F8041B0893049BDD171A462B46C1E976
:1097E0000023FFF7E2B9BBF1000F08BFBAF10A0F7F
:1097F000029DFFF42BAD05F4806600230295CDF8A1
:109800001880139DA0464EAF34461E4609E0F6F779
:1098100017FDBBF1000F08BFBAF10A0F1FD3824634
:109820008B460A22002350465946F6F709FD944616
:109830000CF1300C07F801CC504659460A2200239F
:109840000136013F002CE2D095F800C06645DED11C
:10985000FF2EDCD09B4508BF924580F067824EAB5F
:10986000DB1B44461395DDF818800C960693FFF732
:1098700078BBBC4B09961293029B9F0640F1058171
:10988000089B073323F00703F3E802AB0893029A1F
:10989000D0070AD55AEA0B0307D0302342F0020260
:1098A0008DF86D4002928DF86C30029B23F4806538
:1098B0000223FFF766BA0996FFF754BA029D09968C
:1098C000FFF7C0BAA84B09961293D5E719EE101A04
:1098D00022AA484602F094FB00287FF459AC249D4C
:1098E0000DF19408FFF79BBB43F0200374780293BB
:1098F0000136FFF723B843F40073747802930136FE
:10990000FFF71CB840214846FEF75AFCCBF8000090
:10991000CBF81000002800F044854023CBF8143029
:10992000FEF7D8BF039B0A97062B28BF0623039791
:109930000D970B9707973A469A468C4F08950693D2
:10994000FFF793B9102C239BDFF824B240F3DB819F
:109950002A4610265D4619EE10BA05E008F10808FF
:10996000103C102C40F3CD8101331032072BCDE990
:109970002332C8E90056F1DD22AA5946484602F0D2
:109980003FFB00287FF48EADDDE923320DF1940812
:10999000E6E70C9BCDF818A05E46DDF834B00B97D7
:1099A000FB1803934246DDF858A0139F0A9B19EE5B
:1099B000108A2846BBF1000F2FD0002B30D1013F79
:1099C0000BF1FF3B239B1599116001335044072B8A
:1099D0002490C2F804A0239362DC083203993B78F8
:1099E0008C1B9C42A8BF1C46002C0BDD239B1660E1
:1099F00001332044072B24905460239300F3DC8030
:109A00003B780832002CACBF1C1B1C46002C0BDC26
:109A10001E440A9BBBF1000FCFD1002B00F0E88160
:109A20000A9B013B0A93CDE7102C23991FDD1025DB
:109A30000B4604E0103C102C02F1080216DD013345
:109A40004B491030072BCDE92330C2E90015F1DD79
:109A500022AA4146484602F0D3FA002840F0868107
:109A6000103C102CDDE9233025AAE8DC1946404BD8
:109A700013604B1C2044072BCDE92330546000F3C6
:109A80000D823B7808321E44C3E7029BDE065CD59C
:109A9000089B53F8042B089392464FF0000BF6E610
:109AA00022AA4146484602F0ABFA002840F05E8107
:109AB000249825AA92E7239B2E49C8F80010013369
:109AC00001350121072BCDE92335C8F8041000F337
:109AD0003F8108F10808002A40F09680029B0C9A0A
:109AE00003F0010313433FF443A8239B119AC8F8E2
:109AF0000020109AC8F8042001331544072B249540
:109B0000239300F3558108F108080C9A013315449A
:109B1000072BCDE92335C8E900727FF727A8FFF7A7
:109B20007EBB19EE101A22AA4846179302F068FA73
:109B300000287FF42DAB9DF86B20249D179B0DF121
:109B40009408FEF7D9BFA346ACE4029B5D0640F142
:109B5000B980089B53F8042B08931FFA82FA4FF040
:109B6000000B94E6D4E40008E8E40008FCE40008F4
:109B700018E5000804E500086766666619EE101A25
:109B800022AA484602F03CFA00287FF401AB249D4B
:109B90000DF19408FFF72EBABB4683E4BB460133B0
:109BA0002544072BC8F800B0CDE92335C8F8044098
:109BB0007EF7DCAFFFF733BB22AA4146484602F0EE
:109BC0001FFA002840F0D2803B78249825AA19E794
:109BD00019EE101A22AA484602F012FA00287FF461
:109BE000D7AA249D0DF19408FEF7A9BF012B029D71
:109BF0007FF49FA9FFF72ABB089B049953F8042B15
:109C000011600893FEF7D1BF239B1199C8F800108B
:109C10001099C8F8041001330D44072B24952393A1
:109C200000F3C68008F10808002ABFF66EAF544260
:109C30001032DFF8FCB680F2B5822A4610265D4667
:109C400019EE10BA05E008F10808103C102C40F39A
:109C5000A78201331032072BCDE92332C8E9005621
:109C6000F1DD22AA5946484602F0CAF900287FF4DD
:109C700019ACDDE923320DF19408E6E7DDF80CA01C
:109C800001343544072CCDE92345C8E900B67FF7F8
:109C9000B9AA21E43846F6F753FC33460396024648
:109CA0000690FFF712B8029B13F4007F089B53F84D
:109CB000042B089314BF5FFA82FA92464FF0000B10
:109CC000FFF75BB8029B13F4007F089B53F8042B4B
:109CD000089314BF5FFA82FA92464FF0000BD6E564
:109CE000029B13F4007F089B53F8042B3FF404A954
:109CF0004FFA82FA4FEAEA7B089352465B46FEF738
:109D0000FDBFAB46154601332544072BCDE923356E
:109D1000C8F800B0C8F8044059DC08F10808FFF79B
:109D20005EBB2D228DF86B20FEF78CBF169B15991C
:109D3000FF1A1A46384602F02FF96B7803B1013545
:109D40000A220023504659460026F6F779FA66E5BE
:109D500019EE101A22AA484602F052F900287FF4A0
:109D600017AA1C9A249D0DF19408B4E6C346FFF788
:109D700099BB029B347843F480630293FEF7DEBD07
:109D80000C9ABC18A4EB0B04D31A9C42A8BF1C4627
:109D9000FFF75CBB089B049953F8042B08931180D0
:109DA000FEF703BF5FFA81FA4FF0000BFEF7E9BF41
:109DB00019EE101A22AA484602F022F900287FF470
:109DC000E7A9DDE923351C9A0DF194082CE719EE7B
:109DD000101A22AA484602F013F900287FF4D8A9E5
:109DE000249D0DF19408FFF7FABA0623039339E492
:109DF0001397DDE90B73FB189E42B346DDF818A0FC
:109E00000546904628BF9B46FFF7F0BA1C9B0B9374
:109E1000DA1C02DB039A934204DD023C24F02003A7
:109E2000069360E4DDE90B318B42C0F2B4801BF095
:109E3000010F00F03882109A134406931BF4806FD0
:109E400003D00B9B002B00F33882069B672423EA88
:109E5000E37A00230A930D93A7E42D2200238DF8C3
:109E60006B200393FEF704BF209BAB42BFF42FACE3
:109E700030215A1C20921970209B9D42F9D826E46B
:109E800019EE101A22AA484602F0BAF800287FF408
:109E90007FA9249D0DF19408FFF799BA22AA4146A3
:109EA000484602F0ADF800287FF460AF3B78249874
:109EB00025AA1E44ADE519EE101A22AA484602F062
:109EC0009FF800287FF464A91C9B249D0DF1940841
:109ED000FFF7A4BA20AA1DABCDE90032B0EE480AC4
:109EE000F0EE680A039A1CAB0221484600F034FBEE
:109EF000472E07461AD1029BDA0700F122810A9AFF
:109F0000029247229B460692209BFFF7E0BB20AAC5
:109F10001DABCDE90032B0EE480AF0EE680A039AB4
:109F20001CAB0321484600F017FB0746039B462E57
:109F300007EB03057FF4BDAB3B78302B00F0FA81D3
:109F40001C9BDDF808B01D440A9B0293FFF7B5BBCC
:109F5000DDF80CA09DF86B20CDF818A003900895B3
:109F60000A900D900B90FEF780BE1C9A0B92002A6F
:109F700040F3F78103990BF001030B4340F0968106
:109F80000B9B069366241BF4806F40F09781069B21
:109F900023EAE37A5DE70C9B109A9A180B9B0692D2
:109FA000002B40F3B0816724EDE730238DF86C304F
:109FB00058238DF86D30029B43F00205039B632B01
:109FC00000F3E4800023079335AFDDE90E01029A28
:109FD000029542F4817224F0200600290A92069626
:109FE000C0F28280002341EC180B1793612C00F023
:109FF0001881412C7FF445ABB0EE480AF0EE680AB8
:10A000001CA801F047FF00224FF07F5351EC100BCA
:10A01000F6F7ACFD0022002382468B46F7F70EF8D8
:10A0200008B101231C93BC4B0B93039B19973E462D
:10A0300009EE909A0B9F18945D1ECDF8308003E0D6
:10A04000F6F7FCFF013D08BBB44B002250465946D1
:10A05000F6F78CFD89468046F7F738F80446F6F7A0
:10A060001BFD02460B4640464946F6F7C7FB17F86C
:10A0700004C0B5F1FF3FB146824606F801CB8B46DE
:10A080004FF000024FF00003A846D9D1A44B199F0E
:10A090000022504659464546DDF83080CDE90C9403
:10A0A000189C19EE909AF6F7F1FF002852D19C4BBC
:10A0B000504659460022F6F7C1FF10B10D9BD90753
:10A0C00048D4002D2B4606DB01333344302206F8FA
:10A0D000012BB342FBD1F31B0C930A9BDDF808B0B4
:10A0E0000293FFF7F6BA0790DDE90E2303F1004370
:10A0F00008EE903A2D2308EE102A179376E719EE12
:10A10000101A22AA484601F07BFF00287FF440A8DD
:10A110001C9B0C9A249DD31A0DF19408FFF796B955
:10A1200000230393FEF70BBC19EE101A484622AA2F
:10A1300001F066FFBBF80C30FEF744BDD346FFF7D5
:10A14000B1B9DDE902B3FD180A9B029347230693D8
:10A15000FFF7B3BA0C9B20930B9B16F8012CD97B0D
:10A160008A42334609D1302003F8010C209B5A1E45
:10A17000209213F8012C9142F6D0392A0BBF0B9A8A
:10A180000132927AD2B203F8012CA4E7591C484656
:10A19000FEF716F80746002800F00F81079014E735
:10A1A000AB46154601332544072BCDE92335C8E9D5
:10A1B00000B47FF7A8AC19EE101A22AA484601F0A5
:10A1C0001FFF00287EF4E4AFDDE923350DF194088C
:10A1D0009BE430238DF86C307823EAE6002B1A4696
:10A1E00008BF01220F9B0392029A002B42F4807257
:10A1F0000A92FFF678AFDDE90EAB20AA1DABCDE9E0
:10A2000000324BEC10AB039A17951CAB0221484669
:10A2100000F0A2F94BEC18AB074607956BE60793E5
:10A2200062E71CA8B0EE480AF0EE680A01F032FEC0
:10A2300000224FF07F5351EC100BF6F797FC0022F1
:10A24000002382468B46F6F7F9FE08B101231C93E2
:10A25000344B0B93E9E604F10F02D2B20121FFF770
:10A260004BBA0F9B304F002BB4BF2D229DF86B20B3
:10A270002E4BB8BF8DF86B20FEF7E6BC19EE10BA76
:10A28000BBF80C30FEF79EBC002967D130228DF858
:10A290007A200DF17B02303302F8013B1EABD31A5A
:10A2A0001493FFF76BBA0B9B0693C7E5109B02EB69
:10A2B000030A51440691662465E6672413990B78D6
:10A2C000FF2B76D000250B9A284603E001300131A0
:10A2D000FF2B08D0934206DAD21A4B78002BF5D127
:10A2E0000B780135F4E713910B920D900A950A9AB9
:10A2F0000D9B06991344169A02FB0313069323EA57
:10A30000E37AFFF752BAC3F101031A44069222EA34
:10A31000E27A67249DE500BFE8E4000800003040D1
:10A320000000E03FD4E40008CCE40008D0E40008DA
:10A3300018E5000851EC180B00220023F6F77EFE0A
:10A3400000287FF4FDAD039BC3F101031C93F8E5E6
:10A350001BF0010F3FF41DAAFFF717BA0DF17A02A7
:10A3600099E7039B0BF0010656EA030205D14FF073
:10A37000010ACDF818A066246BE5109A02F1010AD3
:10A380005344069323EAE37A662462E5089B7478D3
:10A3900053F8041B0893164641EAE1720392FEF754
:10A3A000CDBA0C23C9F800304FF0FF330493FEF709
:10A3B00010BC00230A930D9399E719EE10BABBF86D
:10A3C0000C3043F04003ABF80C30FEF7FBBB02232C
:10A3D0001493FFF7D3B900BF30B4044C0D461346B5
:10A3E00001462A46206830BC00F002B82401002053
:10A3F00070B50C46084D114600261A460346204605
:10A400002E601C4603F0C8FE431C00D070BD2B68B4
:10A41000002BFBD0236070BD8C190020024B13B1C0
:10A42000024800F005B87047000000009DB4000825
:10A43000002301461A46184601F05EBE2DE9F04F92
:10A4400003690E69B34283B0C0F28280013E01F11C
:10A45000140700F1140A57F826305AF82620013361
:10A460008346B00000909A420AEB860007EB86090B
:10A470000190B2FBF3F836D300252A46BC4650467D
:10A480005CF8044B03681FFA84FE08FB0E554FEA84
:10A49000154E240C08FB04E4ADB2551BA2B2C2EB6E
:10A4A000134215FA83F302EB23429BB243EA0243C1
:10A4B000E14540F8043B4FEA14454FEA2242DFD21F
:10A4C000009B5AF8033073B9019B043B9A4504D3AF
:10A4D00007E09A4506F1FF3603D253F80429002A13
:10A4E000F7D0CBF81060584601F0AAFB00282BDB10
:10A4F00008F101085046002357F8041B04688AB28B
:10A500009A1A0B0C12FA84F2C3EB144303EB2243A6
:10A5100092B242EA0342B94540F8042B4FEA234382
:10A52000EAD25AF826200AEB86036AB9043B9A4518
:10A5300004D307E09A4506F1FF3603D253F8042905
:10A54000002AF7D0CBF81060404603B0BDE8F08F8A
:10A55000002003B0BDE8F08F2DE9F04F2DED048B06
:10A5600059EC108B97B0066C249D0191CDE90489BC
:10A5700004460B9208934EB1426C726001239340E3
:10A58000B360314601F026F900232364B9F1000AD3
:10A59000B4BF012300232B60754BBCBF2AF0004AD7
:10A5A000CDF814A033EA0A0300F0A9809DED047BE6
:10A5B000002251EC170B00238DED027BF6F73EFDD8
:10A5C000074680B1089A01231360259B002B00F0F9
:10A5D000DA8268481860431E0093009817B0BDECFB
:10A5E000048BBDE8F08F9DED020B14AA15A920463F
:10A5F00001F0E8FB5FEA1A56054640F09880DDE975
:10A6000014763E4406F23240202840F3B183C0F174
:10A61000400306F212400AFA03FA28FA00F04AEA66
:10A620000000F6F729FA0123013EA1F1F8710E931B
:10A63000514B0022F6F7E2F847A3D3E90023F6F7DF
:10A6400095FA47A3D3E90023F6F7DAF880463046B7
:10A650008946F6F721FA44A3D3E90023F6F786FAF0
:10A6600002460B4640464946F6F7CAF880468946F8
:10A67000F6F72CFD00228346002340464946F6F7B4
:10A68000E7FC002840F07282BBF1160F00F26182F5
:10A690003A4B03EBCB03D3E90023DDE90201F6F7E4
:10A6A000D7FC002870D00023BE1B0D93731E0BF146
:10A6B000FF3B069300F1548200230A93BBF1000F85
:10A6C00069DA0A9BCDF81CB0A3EB0B030A93019B3C
:10A6D000092BCBF1000A4FF0000B65D8052B40F396
:10A6E0004583043B01930026019B023B032B00F2B0
:10A6F000A886DFE813F05F045C0454043704089A6A
:10A7000042F20F73CAF3130A13605AEA08031CD10A
:10A71000259B002B00F09186194B00930833259A56
:10A720000098136017B0BDEC048BBDE8F08FDDE935
:10A730000212C2F31303084643F07F510E97A6F2AC
:10A74000FF36149F41F4401172E7259B002B40F027
:10A75000EC830C4B009340E761436F63A787D23FC4
:10A76000B3C8608B288AC63FFB799F501344D33F00
:10A770000000F07F05E500080000F83F70E60008E3
:10A780002CE5000828E50008BE1B731E069300F1A7
:10A79000DF840D900A90069B5B44CDE9063B019B4C
:10A7A000092B4FF0000A99D900230126CDE90B3679
:10A7B00001934FF0FF330993099B109300216164CB
:10A7C000204600F0E1FF0090002800F04286009B48
:10A7D0002364099B0E2B00F20181002E00F0FE8005
:10A7E0000799002940F37E84C24B01F00F0203EB6E
:10A7F000C2034FEA2118C905D3E9006740F1178465
:10A80000BD4BDDE90201D3E90823F6F7D9FA0323AA
:10A8100041EC180B08F00F080F93B8F1000F1DD092
:10A82000CDF844B0DFF8D092D346DDF83CA018F064
:10A83000010F09D030463946D9E90023F6F796F9D9
:10A840000AF1010A06460F465FEA680809F108099D
:10A85000EDD1CDF83CA0DA46DDF844B051EC180B50
:10A8600032463B46F6F7ACFA804689460D9B43B12B
:10A87000A24B002240464946F6F7EAFB002840F08A
:10A8800063850F98F6F708F942464B46F6F76EF9DE
:10A890009B4B0022F5F7B4FF099B0646A1F15077C8
:10A8A000002B00F0EC83079B1193099B0F930C9BEB
:10A8B000002B00F0D7840F9A8E4B924903EBC20312
:10A8C00053E902230020F6F77BFA32463B46F5F7C0
:10A8D00095FF06460F4640464946F6F7F7FB1290AD
:10A8E000F6F7DAF802460B4640464946F5F786FF8A
:10A8F000129BDDF8008047EC186B303308F8013B01
:10A9000006460F4602460B4651EC180BF6F7BEFB07
:10A91000002840F065854FF0000909EE105A09EE55
:10A92000904A45464C46CDE912AB59EC188B2AE0CB
:10A930000F9B01349C424BDA734B40464946002240
:10A94000F6F714F9704B00228046894630463946A6
:10A95000F6F70CF98B468246F6F7B8FB0746F6F792
:10A960009BF802460B4650465946F5F747FF3037ED
:10A9700005F8017B42464B4606460F46F6F768FB54
:10A98000002840F0288532463B465C490020F5F718
:10A9900035FF42464B46F6F75BFB0028C8D0119BBB
:10A9A000009A0793A84619EE904A19EE105A02E051
:10A9B000904500F0F584C14618F8013D392BF7D0D9
:10A9C0000133DBB288F80030079B01330793ADE118
:10A9D000DDE912AB19EE105A19EE904A159B002BC7
:10A9E000C0F29680079A0E2A00F39280414B03EB47
:10A9F000C203D3E900AB0B9B002B1BDA099B002B96
:10AA000018DC40F05583414B504600225946F6F77A
:10AA1000ADF802460B46DDE90201F6F723FBDDF84F
:10AA200024A05646002800F0DD820B9B009F6FEAB1
:10AA30000308E0E2DDE9026752465B4630463946EC
:10AA4000F6F7BEF9F6F742FB8146F6F725F85246CF
:10AA50005B46F6F78BF80B46024639463046F5F76B
:10AA6000CDFEDDF800804B46303308F8013B099BF2
:10AA7000012B00F09E834FF0010908EE105A08EEFA
:10AA8000904A1D464446C8461DE052465B46304645
:10AA90003946F6F795F9F6F719FB8146F5F7FCFF0D
:10AAA00052465B46F6F762F808F101080B4602468B
:10AAB00039463046F5F7A2FE09F13003454504F862
:10AAC000013B00F07183104B0022F6F74FF8002293
:10AAD000002306460F46F6F7B1FA0028D5D0A04667
:10AAE00018EE105A18EE904A079B01330793C1469F
:10AAF0001CE100BF70E6000848E600080000F03FD7
:10AB000000001C400000E03F000024400000144012
:10AB10000C9A002A3FD0019A012A40F3CD82099B6A
:10AB200003F1FF38C245C0F27B82AAEB0808099BFB
:10AB3000002BC0F27083069A11460A9A19441746F0
:10AB40001A4406910A920121204600F0F3FE0646BF
:10AB500024E00123BE1B0D93731E06937FF5ACAD5D
:10AB6000C6F101030A9300230693A7E55846F5F7BB
:10AB700093FF42464B46F6F761FA00287FF484AD16
:10AB80000BF1FF3B80E5CB4B0093009817B0BDEC79
:10AB9000048BBDE8F08F0A9F0C9ED046002F0CDD81
:10ABA000069A002A09DD0A99BA421346A8BF3B4615
:10ABB000C91AFF1AD31A0A910693BAF1000F1BD0D3
:10ABC0000C9B002B00F0AA81B8F1000F10DD31467C
:10ABD0004246204600F074FF2A46014606462046BB
:10ABE00000F0BEFE2946034620461D4600F0F2FD59
:10ABF000BAEB080240F093810121204600F09AFE52
:10AC0000BBF1000F824600F3B880019B012B40F39B
:10AC100091814FF000080120BBF1000F40F0B98096
:10AC2000069A104410F01F0000F09780C0F1200336
:10AC3000042B40F315840A9BC0F11C00034402441A
:10AC40000A93074406920A9B002B05DD29461A4603
:10AC5000204600F081FF0546069B002B05DD51468E
:10AC60001A46204600F078FF82460D9B002B40F0EC
:10AC70003A81099B002B40F31F810C9B002B40F075
:10AC8000A080079B01330793DDF80080DDF8249056
:10AC9000012707E0294600230A22204600F0A4FDF0
:10ACA0000137054651462846FFF7C8FB4F4500F1DE
:10ACB000300008F8010BEDDB099A002AC8BF934663
:10ACC000009AD8BF4FF0010B034693440027294652
:10ACD00001222046019300F03FFF5146054600F057
:10ACE000AFFF002840F3B2811BF8013C009A0BF142
:10ACF000FF3B04E05A4500F0EE811BF8013D392B83
:10AD00000BF10109F6D001338BF800305146204693
:10AD100000F060FD56B12FB1B74203D0394620464E
:10AD200000F058FD3146204600F054FD29462046EB
:10AD300000F050FD002389F80030089B1A46079B5D
:10AD40001360259B002B3FF448AC0098C3F800909B
:10AD500017B0BDEC048BBDE8F08F1C200A9B0344A8
:10AD60000A93069B0344074406936CE70126BBE461
:10AD7000C0F1200008FA00F053E401465A4620468C
:10AD800000F09EFE019B012B824640F3E3814FF0D1
:10AD90000008DAF810300AEB8303186900F07AFD36
:10ADA000C0F120003CE7314600230A22204600F093
:10ADB0001BFD109B002B064640F32B83CDF81C9007
:10ADC0000993002F00F32581B8F1000F40F00C82A9
:10ADD000B046049B0199009F03F001020B920A43C5
:10ADE0000A92099A7B1E1A44099251462846FFF797
:10ADF00025FB31468346284600F022FF4246514655
:10AE00008146204600F03AFFC26801460BF130034C
:10AE1000002A42D104902846069300F011FF0499BD
:10AE20000290204600F0D6FC029A069B1AB90A99B5
:10AE3000002900F0E082B9F1000FC0F2978101997A
:10AE400041EA09090B9951EA090100F08F81002AB2
:10AE500000F3E581099A3B7007F101099742CB465F
:10AE600000F0F681294600230A22204600F0BCFCAF
:10AE70004645054631464FF000034FF00A02204692
:10AE800012D000F0B1FC4146064600230A222046BB
:10AE900000F0AAFC4F468046A7E72046029300F048
:10AEA00099FC029B0122C6E700F09EFC4F46064635
:10AEB00080469AE704E50008019B022B00F381809D
:10AEC0000C9B002B7FF47DAF51462846FFF7B6FA66
:10AED000079ADDF800B000F1300301320BF8013BB6
:10AEE00007920027F3E65146284600F0A9FE002805
:10AEF000BFF6BFAE294600230A22204600F074FCAC
:10AF0000079B03F1FF390C9B0546002B7FF44BAFE9
:10AF1000109B002B40F376820993B5E652462946F2
:10AF2000204600F0CDFD054666E6C34B0093033393
:10AF3000FFF7F5BBDDE9041200297FF46AAEC2F326
:10AF40001303002B7FF465AEBC4B1340002B00F0C5
:10AF50003B820A9B01330A93069B013306934FF011
:10AF6000010858E601230C930B9B079A1344109396
:10AF70000133012B1F460993B8BF01270021172F6A
:10AF800061647FF71DAC012204235B0003F1140010
:10AF9000B842114602F10102F7D9616410E40123BD
:10AFA0000C930B9F002F4CDD10970997E6E70023C9
:10AFB0000C93D9E700230C93F3E7109BCDF81C907A
:10AFC0000993099B002B7FF430AD514605222046A2
:10AFD00000F00AFC01468246284600F031FE0028B7
:10AFE0007FF723AD009F3B46312203F8012B079AE0
:10AFF000009302F101085146204600F0EBFB08F1F6
:10B000000103DDF8009007930097002E7FF48AAECD
:10B010008CE631463A46204600F09EFD0646D3E6D1
:10B02000A8EB0A039B44C2464FF000087FE59DED64
:10B03000027B02230F93B0EE478AF0EE678AFFF798
:10B04000ECBB01230B930993FFF7B6BB03D1019B24
:10B05000DB073FF549AED9461BF8013D302BFAD04E
:10B0600054E60F98F5F718FD42464B46F5F77EFD7E
:10B07000734B0022F5F7C4FB0646A1F15077714BE4
:10B08000404649460022F5F7B9FB32463B4680462A
:10B090008946F5F7FBFF002840F09281324607F120
:10B0A000004340464946F5F7D3FF00283FF496ACED
:10B0B0004FF0000A5646B8E40E9A002A00F0CE80FF
:10B0C00003F23343069A1A4406920A9A17461A4420
:10B0D0000A92D04637E5079A01320792009A312347
:10B0E000137013E600F05681079B5E42564B06F044
:10B0F0000F0203EBC203D3E90023DDE90201F5F7F8
:10B1000035FD36118046894600F08C8102224F4F72
:10B1100049EC188B0023D946D3469246F20706D550
:10B12000D7E90023F5F722FD0AF1010A0123761081
:10B1300007F10807F2D1CDF83CA0DA46CB4659EC2E
:10B14000188B002B3FF492AB80468946FFF78EBBED
:10B150000D9005E5049B002B7FF419AEDDE9041288
:10B16000C2F31303002B3FF4EFAE10E6002A12DD0A
:10B17000294601222046019300F0EEFC5146054687
:10B1800000F05EFD0028019B40F32F81392B00F079
:10B190000D810BF13103B946374609F8013B079B96
:10B1A000013307934646B1E5A04618EE105A18EE53
:10B1B000904A02460B46F5F723FB52465B4606468D
:10B1C0000F46F5F763FF60B952465B463046394695
:10B1D000F5F734FF00283FF487AC5FEAC9717FF5CB
:10B1E00083AC009AFFF7E7BB7168204600F0CCFA09
:10B1F0000746002800F01A81336902339A0006F1ED
:10B200000C010C30F5F75CFA39460122204600F0BB
:10B21000A3FC8046DDE5DDE909239F1A93E4392B81
:10B2200000F0C480B946013309F8013B079B0133A4
:10B2300037460793464669E528E500080000F07F99
:10B2400000001C400000144070E6000848E60008BA
:10B25000079A013237460792464638E5149BC3F1F8
:10B2600036032FE70F9B864901EBC30132463B466D
:10B2700051E90201F5F77AFC02460B464046494681
:10B2800043EC182BF5F722FF0746F5F705FC0B46B4
:10B29000024649464046F5F7B1FADDF8008007F16D
:10B2A000300308F8013B0F9B012B06460F4627D0C1
:10B2B0000F9B009ACDF83CA01344CDF848B0C2468D
:10B2C0009B46704B002230463946F5F74FFC8946C5
:10B2D0008046F5F7FBFE0746F5F7DEFB3037024602
:10B2E0000B4640464946F5F789FA0AF8017BDA45EC
:10B2F00006460F46E5D1D046DDF848B0DDF83CA063
:10B30000614B002251EC180BF5F77AFA32463B46B6
:10B31000F5F79EFE002859D153EC182B5A4900200E
:10B32000F5F76CFA32463B46F5F7B0FE00283FF4DD
:10B3300055ABC14608F1FF3819F8013C302BF8D065
:10B34000119B01330793F1E4099B002B3FF489AE75
:10B35000109B002B7FF742AB4A4B002240464946E8
:10B36000F5F704FC80460F9889460130F5F794FB09
:10B3700042464B46F5F7FAFB444B0022F5F740FAFC
:10B38000079A109B0F93013A0646A1F1507711924C
:10B39000FFF78DBA0223DDE902890F93FFF766BA42
:10B3A000079B013307933123FFF70CBB079ABB467A
:10B3B0003923013237460BF8013B0792464695E4A4
:10B3C0004FF0000A56460DE6984624E4119B009A79
:10B3D0000793FFF7F0BAA84619EE904A19EE105AF3
:10B3E000119B01330793C146A0E47FF4D4AEDA0782
:10B3F0007FF5D1AECAE6392BD8D0B9F1000F3FF7AF
:10B40000C8AEC8E6019B022B3FF7D7ADCDF81C9024
:10B410005AE5019B022B3FF7D0AD109BCDF81C9055
:10B420000993CEE402230F93FFF720BA0246184B8C
:10B43000184840F2EA2100F0A5FE174B0093FFF7F1
:10B44000CCB8002666643146204600F09DF9009095
:10B4500058B90F4B0F4800224FF4D57100F092FEFF
:10B460003FF4F1ABC0F13C0078E44FF0FF33009AB9
:10B4700010930993012322640B960C93FFF7AEBA45
:10B4800070E60008000024400000E03F00001C407F
:10B4900038E500084CE500082CE5000838B5084BF5
:10B4A000084D5B1B9C1007D0043B1D44013C55F824
:10B4B00004399847002CF9D1BDE8384002F07CBE31
:10B4C000D0E80008CCE80008F8B5244F0C46064642
:10B4D000FDF780F9BB685D68C4F57E610F3125F02A
:10B4E00003054B1923F47F6323F00F03A3F5805466
:10B4F000B4F5805F07DB00213046FDF777F9BB68C4
:10B500002B44984204D03046FDF76AF90020F8BD7C
:10B5100061423046FDF76AF901300DD0104AB96832
:10B5200013682D1B45F0010530461B1B4D60136051
:10B53000FDF756F90120F8BD00213046FDF756F918
:10B54000BA68831A0F2BDEDD064C0549246843F0E8
:10B550000103001B53600860D5E700BF50050020C1
:10B56000FC0E00205809002000295ED0F8B50C46DA
:10B570000646FDF72FF954F8043CDFF8F0C123F03C
:10B580000101A4F108004218DCF8087055689742E0
:10B5900025F0030500F08880DF07556033D454F8A8
:10B5A000087CC01B0CF108048368A342394469D0AD
:10B5B0005719D0F80CE07F68C3F80CE0CEF80830DB
:10B5C000FB0740F1968041F0010343601160B1F543
:10B5D000007F33D2CB08DCF8044001334A09012153
:10B5E000914021430CEBC3025CF83340CCF80410CB
:10B5F000083AC0E902424CF83300E0603046BDE84A
:10B60000F840FDF7EDB853195B68DF070ED4294405
:10B610000CF108049368A34273D0D468DC6041F055
:10B620000102A36042604150D1E7704741F001033D
:10B63000B1F5007F44F8043C1160CBD3B1F5206F25
:10B640004FEA51234AD28B0903F13905ED0003F18A
:10B6500038025CF805300CEB0504083C9C4259D0DC
:10B660005A6822F003028A4202D99B689C42F7D1B1
:10B67000DC68C0E90234A060D8603046BDE8F8401C
:10B68000FDF7AEB853195B68DB0766D4D2E9022335
:10B69000294441F00104D3609A604460415030462F
:10B6A000BDE8F840FDF79CB8DB07294407D454F8FF
:10B6B000083CC01A1944D0E90223D3609A60294B90
:10B6C0001B6841F001028B424260CCF8080095D81B
:10B6D000254B30461968FFF7F7FE8FE7142B0AD980
:10B6E000542B21D80B0B03F16F05ED0003F16E0213
:10B6F000AFE729448EE703F15C05ED0003F15B023F
:10B70000A7E741F00103CCE90400C0E9024443602B
:10B71000415073E7DCF804109210012505FA02F29B
:10B720000A43CCF80420A4E7B3F5AA7F06D8CB0BD4
:10B7300003F17805ED0003F177028AE740F25452F5
:10B74000934206D88B0C03F17D05ED0003F17C02DA
:10B750007FE74FF47E757E227BE741F00103436073
:10B7600011604BE75C0900202C0F002050050020E1
:10B7700000487047540A0020704700BF704700BF60
:10B78000704700BF704700BFC36C70B505460C46DC
:10B790004BB153F8240080B1026843F82420002301
:10B7A000C0E9033370BD2122042100F009FD0346E6
:10B7B000E8640028EDD1002070BD012101FA04F6F3
:10B7C000721D2846920000F0FBFC0028F3D0C0E96F
:10B7D0000146E4E731B1C36C4A6853F822000860BF
:10B7E00043F82210704700BF2DE9F8430F698846DF
:10B7F00081461D4601F1140000210668B4B202FB27
:10B8000004531C0C350C02FB054501319CB204EBC2
:10B8100005448F4240F8044B4FEA1545EDDC4DB12D
:10B82000D8F80830BB4208DD08EB870301375D61BB
:10B83000C8F810704046BDE8F883D8F804104846B0
:10B840000131FFF7A1FF0446D0B1D8F81020023231
:10B8500008F10C0192000C30F4F732FFD9F84C30AB
:10B86000D8F8042053F82210C8F8001043F82280BA
:10B87000A04608EB870301375D61C8F81070D9E76F
:10B880000246024B0248B52100F07CFC38E5000876
:10B89000C8E50008030C1B04D3B90004102310F002
:10B8A0007F4F04BF0002083310F0704F04BF000147
:10B8B000043310F0404F04BF80000233002805DB42
:10B8C00010F0804F03F1010308BF20231846704792
:10B8D0000023E4E7036813F00702014607D0DA0704
:10B8E00020D4980722D55B080B600120704798B2DE
:10B8F000A8B1104613F0FF0F04BF1B0A08301A0747
:10B9000004BF1B0904309A0704BF9B080230DA0702
:10B9100003D45B0800F1010006D00B6070471B0CDC
:10B920001020E7E700207047202070479B080B603D
:10B930000220704710B50C460121FFF725FF024693
:10B9400018B10123C0E9043410BD034B03484FF480
:10B95000A07100F017FC00BF38E50008C8E500083A
:10B960002DE9F04F0D691769BD4285B00E461446AA
:10B9700005DB3A4623462F460C4615461E46D4E9BB
:10B98000011307EB05084345B8BF0131FFF7FCFE83
:10B990000190002800F08880019B03F1140909EB55
:10B9A000880AD14505D24B46002243F8042B9A451C
:10B9B000FBD806F1140E0EEB850B04F11403DE45E3
:10B9C0001A4603EB87073ED23B1B153B23F00303CC
:10B9D00004331534A74238BF0423CDE902A89846A2
:10B9E000924603E0F34509F104092AD95EF8040BF5
:10B9F00086B2002E38D1000CF4D0D9F8003054466D
:10BA00001E464D464FF0000C2288360C00FB0266A5
:10BA1000B4449BB243EA0C4345F8043B54F8043B5E
:10BA20002E681B0CB2B200FB032303EB1C43A7429E
:10BA30004FEA134CE8D8F34549F8083009F10409F6
:10BA4000D4D8DDE902A8B8F1000F03DC06E0B8F1B4
:10BA5000010803D05AF8043D002BF8D00198C0F833
:10BA6000108005B0BDE8F08F55464C46002355F8D0
:10BA7000041B20688AB21FFA80FC06FB02C2090C74
:10BA8000000C134406FB010202EB13429BB243EA93
:10BA90000243AF4244F8043B4FEA1243E7D849F867
:10BAA00008305EF8040CA6E70246034B034840F258
:10BAB0005D1100F067FB00BF38E50008C8E500082D
:10BAC00012F003032DE9F041144607462ED10E462D
:10BAD000A4101CD0BD6C95B3E3074FF0000806D44A
:10BAE000641014D02868A8B10546E307F8D52A46A3
:10BAF00031463846FFF734FFB6B17168FB6C64100D
:10BB000053F82120326043F821600646EAD13046DE
:10BB1000BDE8F0812A4629463846FFF721FF286014
:10BB2000C0F800800546E0E70646D9E7013B094A30
:10BB300052F823200023FFF757FE0646C8E740F2DD
:10BB400071213846FFF7F6FE0023B864054603600E
:10BB5000C2E700BF38E700082DE9F0470F690D463E
:10BB6000D1E9011307EB62177E1C9E429146804685
:10BB70004FEA621404DD5B009E4201F10101FADC30
:10BB80004046FFF701FE00284FD0002C00F11401C1
:10BB90000DDD621D4FEA820C0B4600EB8202002491
:10BBA00043F8044B9342FBD1ACF1140319442C69C4
:10BBB00005F1140319F01F0903EB840C2DD0C9F112
:10BBC00020028E464FF0000A1C6804FA09F444EA89
:10BBD0000A044EF8044B53F8044B9C4524FA02FA2D
:10BBE000F2D8ACEB0503153B23F00303043305F156
:10BBF0001502944538BF0423BAF1000F18BF374629
:10BC000041F803A0D8F84C306A68076153F8221055
:10BC1000296043F82250BDE8F087043953F8042B1B
:10BC200041F8042F9C45F9D8ECE70246024B034843
:10BC300040F2D91100F0A6FA38E50008C8E500087E
:10BC400030B40B6905460069C01A11D1143514319E
:10BC500001EB830205EB830301E09D4208D253F818
:10BC6000044D52F8041D8C42F7D003D24FF0FF3040
:10BC700030BC7047012030BC704700BF2DE9F84F41
:10BC80000D690C4611696D1A002D90467AD104F1A8
:10BC90001407143207EB810302EB810201E09F429B
:10BCA00073D253F8046D52F8041D8E42F7D064D35A
:10BCB0006168FFF769FD002871D02769D8F8103056
:10BCC000C56004F1140A08F1140500F1140605EB2F
:10BCD000830910340AEB870EB446002355F804BBE1
:10BCE00054F8042F1FFA8BF113FA82F34FEA1B4B1F
:10BCF000591ACBEB124303EB214389B241EA0341CA
:10BD0000A9454CF8041B4FEA2343E7D8A9EB0802E6
:10BD1000153A08F11508C14522F0030505F104059F
:10BD200038BF0425AA4422F0030238BF0022D645BA
:10BD30003544164418D92E46524652F8044B13FA8D
:10BD400084F10B1403EB144389B241EA0341964595
:10BD500046F8041B4FEA2343EFD80EF1FF36A6EB5B
:10BD60000A0626F003062E4421B956F8043D013F89
:10BD7000002BFAD00761BDE8F88F23460125444621
:10BD8000984695E7F9DB002592E70021FFF7FCFCD8
:10BD900060B101220023C0E90423BDE8F88F024608
:10BDA000064B07484FF4107100F0ECF90246034BC4
:10BDB000034840F2322100F0E5F900BF38E5000801
:10BDC000C8E500082DE9F043884683B0012157EC0F
:10BDD000106B1546FFF7D8FC044600284FD0C7F378
:10BDE0000A59C7F31303B9F1000F01D043F48013CC
:10BDF000002E019324D068460096FFF76BFD0028C3
:10BE000039D0DDE90013C0F1200203FA02F20A433F
:10BE1000C34001936261002B14BF02220122A3617F
:10BE20002261B9F1000F16D0A9F233430344C0F1E7
:10BE30003500C8F800302860204603B0BDE8F08324
:10BE400001A8FFF747FD019B6361012220302261B9
:10BE5000B9F1000FE8D104EB8203A0F23240C8F838
:10BE600000001869FFF716FDC0EB4210286020465D
:10BE700003B0BDE8F083DDE900236261CBE7024651
:10BE8000024B034840F20A3100F07CF938E5000823
:10BE9000C8E5000853EC102B70B5164E054623F08C
:10BEA00000410020B142286021DC10EE106A0E43F0
:10BEB0001DD0114E1E401C4666B91946002210EED8
:10BEC000100A0E4BF4F752FE02460C466FF0350096
:10BED00021F0004124F0FF44091524F4E004A1F20C
:10BEE000FE3144F07F53014443F40013296043ECD6
:10BEF000102B70BDFFFFEF7F0000F07F000050436C
:10BF00001F2938B5054621D8D0F8DC220C466AB185
:10BF100052F8213053B1012B16D0591C10D00025F6
:10BF2000204642F824509847284638BD284600F05D
:10BF300031F8224601462846BDE8384000F014B8E2
:10BF400016230360012038BD002038BD162303608E
:10BF50004FF0FF3038BD00BF024B01461868FFF7B5
:10BF6000CFBF00BF2401002038B50C46084D034662
:10BF70001146204600221C462A6002F0E7F8431CC6
:10BF800000D038BD2B68002BFBD0236038BD00BF2C
:10BF90008C19002002F0CAB870B440EA0104A3076B
:10BFA00001D1032A0FD804464D1E07E015F8011FE2
:10BFB00003F8011B561EC9B11C4632462346002A0F
:10BFC000F4D170BC70470B460446194653F8046B15
:10BFD000A6F1013525EA060515F0803FE4D1043AC3
:10BFE000032A44F8046B1946EFD8DDE72244002EFB
:10BFF000E7D003F8011B9342FBD170BC704700BF30
:10C000002DE9F04F936883B09146002B6ED01768EE
:10C010008D6880460C460868083744E0A38913F40D
:10C02000906F2ED0D4E9041505EB4505A0EB010A6D
:10C0300005EBD5750AEB06006D100130A8422A46C3
:10C0400084BF05462A465B0537D511464046FCF7B6
:10C05000B7F800283BD0524621690190F4F730FB35
:10C06000A289019B22F4906242F08002A281A5EB9A
:10C070000A0203EB0A00656123612060A260354675
:10C08000B2465946524600F0FBF8A068D9F80810AD
:10C090002368451B8E1B03EB0A00A5602060C9F8CE
:10C0A00008601EB3083757E902B6002EFAD0B54231
:10C0B000AA46B3D93546B246E3E7404600F04CF90C
:10C0C00003460028D3D121694046FFF74DFA0C23DF
:10C0D000C8F80030A389002243F040034FF0FF303E
:10C0E000A381C9E9012203B0BDE8F08F0020C9F89F
:10C0F000040003B0BDE8F08F2DE9F047DFF880A021
:10C100000646DAF8000098460F469146FFF738FBDE
:10C110001A4B1B68D3F8484124B365681F2D26DCF1
:10C120005EB9AB1C0135DAF80000656044F8237095
:10C13000FFF728FB0020BDE8F08704EB8503012111
:10C14000C3F88890D4F88821A9400A43022EC4F885
:10C150008821C3F80881E4D1D4F88C311943C4F89C
:10C160008C11DEE703F5A674C3F84841D5E7DAF889
:10C170000000FFF707FB4FF0FF30DCE790E400081A
:10C180006009002000B50A4C2568144685B01A469F
:10C190000346E86844B1074D0091CDE901540649D2
:10C1A00000F03EF801F062FA044D2C46F4E700BFBF
:10C1B0002401002044E7000854E70008C0E4000818
:10C1C00010B502FB01F1FBF7FBFF044668B150F824
:10C1D000042C22F00302043A242A18D8132A06D881
:10C1E00002460023C2E900339360204610BD0023BD
:10C1F0001B2AC0E900330FD9242AC0E902330ABF41
:10C20000C0E9043300F1100200F11802E9E700214F
:10C21000FCF790FA204610BD00F10802E1E700BFEC
:10C220000EB410B583B005AB064C53F8042B019344
:10C230000146206800F0BCFA03B0BDE8104003B02E
:10C24000704700BF24010020014B93F8280170477C
:10C250006409002082B049B15AB16BB113780B6008
:10C260001278101E18BF012002B0704701A9002AE1
:10C27000F3D1104602B070476FF00100F4E700BF41
:10C280008842F0B40DD98B1883420AD9841832B190
:10C29000224613F8014D02F8014D9942F9D1F0BC44
:10C2A00070470F2A0ED80346541E002AF7D00134D7
:10C2B0000C44013B11F8012B03F8012FA142F9D1E5
:10C2C000F0BC704740EA01039B073FD1A2F1100385
:10C2D00023F00F0401F1200727441B0901F110048A
:10C2E00000F1100554F8106C45F8106C54F80C6C03
:10C2F00045F80C6C54F8086C45F8086C54F8046C5C
:10C3000045F8046C1034BC4205F11005EAD1013344
:10C3100012F00C0F01EB031102F00F0400EB0313FA
:10C3200017D0043C24F0030CA5089C441C1F0E46A7
:10C3300056F8047B44F8047F6445F9D16C1C03EB88
:10C34000840301EB840102F00302ADE7541E0346AF
:10C35000ADE72246A8E700BF2DE9F84F17460029B0
:10C3600000F0BC8007F10B050C468046FCF732FA62
:10C37000162D5FD810252A46AF4260D854F8041C09
:10C3800021F003069642A4F1080980F28680C94B89
:10C39000D3F808C009EB0600844500F0BA80D0F855
:10C3A00004C02CF0010303445B68DB0700F18B80C1
:10C3B0002CF0030C06EB0C03934280F21681CB07A2
:10C3C0000FD454F8083CA9EB030ADAF8043023F040
:10C3D00003018C44B444944538DA7318934280F2D4
:10C3E000108139464046FBF7EBFE0746E0B154F8B2
:10C3F000043C23F001034B44A0F10802934200F0F7
:10C40000FA80321F242A00F21D81132A00F2CE8006
:10C4100003462246116819605168596092689A6013
:10C4200021464046FFF7A0F84046FCF7D9F93846C8
:10C43000BDE8F88F25F00705002D2A469CDA0C236D
:10C44000C8F8003000273846BDE8F88FD0E902234D
:10C450005746D3609A6057F8081FDAF80C30CB6063
:10C46000321F242A996000F20881132A40F20381C6
:10C470002368CAF808306368CAF80C301B2A00F237
:10C480001B8108340AF1100322681A6062685A603E
:10C49000A2689A606646D1463C46731B0F2B22D891
:10C4A000D9F8043003F0010333434E44C9F8043093
:10C4B000736843F00103736040462746FCF790F928
:10C4C0003846BDE8F88FC9078BD454F8083CA9EB6F
:10C4D000030ADAF8041021F003017EE7BDE8F84F03
:10C4E0001146FBF76DBED9F8042009EB050102F0F7
:10C4F00001024E4443F001031543C9F804504B6058
:10C50000736843F00103083173604046FFF72CF86D
:10C51000D2E7DCF8040020F0030B06EB0B0C05F16E
:10C52000100084454DDAC9073FF55BAF54F8081C8D
:10C53000A9EB010ADAF8041021F003018B44B3449B
:10C5400058453FF74AAF5746DAF80C1057F8080F2E
:10C55000321F242AC160886000F2BC80132A40F296
:10C56000B7802168CAF808106168CAF80C101B2A45
:10C5700000F2C08008340AF110022168116061687D
:10C580005160A16891600AEB0501ABEB050242F036
:10C59000010299604A60DAF8043003F001031D4398
:10C5A0004046CAF80450FCF71BF94CE723680360C7
:10C5B000636843601B2A49D804F1080200F10803AC
:10C5C00028E709EB0501ACEB050242F00102996096
:10C5D0004A6054F8043C03F001031D43404644F80C
:10C5E000045CFCF7FDF827462DE7D0E902121E4651
:10C5F000CA60916051E750F8043C23F003031E44E5
:10C600004BE75746DAF80C1057F8080F321F242A68
:10C61000C160886027D8132A23D92168CAF8081076
:10C620006168CAF80C101B2A2FD808340AF11002CE
:10C630002168116061685160A16891601E46D14611
:10C640003C462AE72146FFF71BFEE9E6A368836024
:10C65000E368C360242A24D004F1100200F110031F
:10C66000D8E63A46E4E7214638461E46D146FFF76B
:10C6700007FE3C4611E73B4606E72146384666463C
:10C68000D146FFF7FDFD3C4607E7A168CAF8101048
:10C69000E168CAF81410242A22D010340AF11802D2
:10C6A000C6E7236903616369436104F1180200F17D
:10C6B0001803AFE650050020A368CAF81030E368FD
:10C6C000CAF81430242A21D010340AF11803DBE60A
:10C6D0003A4652E721463846FFF7D2FD154B52E75E
:10C6E0002269CAF818206269CAF81C2018340AF1B5
:10C6F00020029DE7A168CAF81010E168CAF814107A
:10C70000242A0DD010340AF1180236E72369CAF83A
:10C7100018306369CAF81C3018340AF12003B3E6F4
:10C720002269CAF818206269CAF81C2018340AF174
:10C73000200222E7500500202DE9F84F4B6E9C04A3
:10C7400090462DD59368126843B38B46064602F196
:10C75000080959E9025A5FEA9A0715D0043D0024F6
:10C7600001E0A7420ED055F8041F5A46304601F0AA
:10C7700003F9431C04F10104F3D10023C8E9013398
:10C78000BDE8F88FD8F808302AF0030AA3EB0A03B3
:10C79000C8F8083009F10809002BDAD10020ECE7CD
:10C7A00001F01EF90023C8E90133BDE8F88F00BF8E
:10C7B0002DE9F04F2DED028BBBB008EE100A1C46A0
:10C7C00089469246059318B1836B002B00F08D8249
:10C7D000D9F86430B9F90C10DB078AB202D48F059E
:10C7E00040F10B8596040AD4D9F8643041F4005224
:10C7F00023F40053A9F80C20C9F8643092B215074D
:10C8000040F10381D9F81030002B00F0FE8002F0D7
:10C810001A030A2B00F008810023CDE90F33CDE97C
:10C820000A3308930993049318EE10BA11AB0E93D0
:10C8300098469AF80030002B00F06481544604E0DA
:10C8400014F8013F002B00F03B81252BF8D1B4EB0D
:10C850000A0540F038812378002B00F05381002333
:10C860004FF0000203938DF833201F464FF0FF3244
:10C870006378019204F1010A2B250AF1010AA3F160
:10C8800020025A2A00F25581DFE812F06B025301B0
:10C89000530166025301530153016A0053015301CE
:10C8A0003202420253013D024C02530147025B0037
:10C8B0005B005B005B005B005B005B005B005B00A0
:10C8C00053015301530153015301530153015301C8
:10C8D00053012002850053015301530153015301B9
:10C8E00053015301530153015301E8005301530114
:10C8F00053010402530190025301530101055301F6
:10C900005301530153015301530153015301530187
:10C910005301200287005301530153018302870012
:10C920008000530176025301B102EA00A0028000A8
:10C93000530104027D00FF04530153011E055301FE
:10C940007D00A3F1300200211AF8013B01EB8101C7
:10C9500002EB4101A3F13002092AF5D903918EE7D8
:10C960005846FEF705FF43680A931846F3F7E8FDBB
:10C97000034658461C460B93FEF7FAFE826809925E
:10C98000002C40F06B849AF8003076E79AF800307B
:10C9900047F0200771E747F01007BB0640F15F81C1
:10C9A000059C073424F007031946F1E8022305919A
:10C9B00014461D46002A73F10003C0F2FB83019B5D
:10C9C000013300F0EA8427F08003009354EA050362
:10C9D00000F0D783002D08BF0A2C80F09F843034EC
:10C9E0000123009F8DF8E74002930DF1E706DDE992
:10C9F00001219DF833308A42B8BF0A460092002BCD
:10CA000000F0A58001320092A1E018EE100A49461C
:10CA100000F0C4FD002840F04A85B9F80C2002F06F
:10CA20001A030A2B7FF4F8AEB9F90E30002BFFF68B
:10CA3000F3AED9F86430D90702D4920540F11385DA
:10CA400018EE100A23465246494600F057FD04905E
:10CA500004983BB0BDEC028BBDE8F08F47F01007A7
:10CA6000BD06059C40F10A81073424F00703F3E872
:10CA70000245059327F48063009300234FF00002E2
:10CA80008DF83320019A1146013100F0C4810099DC
:10CA900021F0800754EA050140F0BC81002A40F0F3
:10CAA0007F84002B40F07283009B13F001030293FC
:10CAB00000F0A08330238DF8E7300DF1E70696E70C
:10CAC000B4EB0A051ED0DDE90F3201332A44072BEF
:10CAD000CDE90F32C8F800A0C8F8045006DC08F110
:10CAE0000808049A23782A440492B5E6002A00F044
:10CAF00044830EAA49465846FFF71EFE40B90DF181
:10CB00004408EEE7109B002B40F0C68400230F93EF
:10CB1000D9F8643013F0010FB9F80C3000F09580AB
:10CB20005B0600F1D08404983BB0BDEC028BBDE8FD
:10CB3000F08F002BE6D001228DF884304FF00003F7
:10CB400000928DF83330029221AE0023019317F04A
:10CB50000203079302D0009B0233009317F0840373
:10CB6000069305D1039B009A9C1A002C00F3538274
:10CB7000DDE90F2C511C9DF8330078B10CF1010C4C
:10CB80000DF1330001220729CDE90F1CC8E900028D
:10CB900000F322820A4608F108080131079BD3B14D
:10CBA0000CF1020C0DAA02230729CDE90F1CC8E9DC
:10CBB000002340F32B82BCF1000F00F0D9820EAAB3
:10CBC00049465846FFF7B8FD0028A1D1DDE90F2CF2
:10CBD0000DF14408511C069B802B00F05F81DDE9BC
:10CBE00001301C1A002C00F3AC81029A0F911346FD
:10CBF00063440729C8E90062109340F34C81002B7D
:10CC000000F047820EAA49465846FFF795FD0028D6
:10CC10007FF47EAF109B0DF14408790705D5039A88
:10CC20000099541A002C00F33E82DDE903120098AB
:10CC30008142ACBF521812180492002B40F0BE8102
:10CC400000230F930DF14408F3E59A053FF568AF13
:10CC5000D9F85800FEF796FDB9F80C3060E7059B4F
:10CC6000FE0653F8044B00F1DF827D0640F1D982C5
:10CC700024B2E517059322462B469BE654F8043B65
:10CC80000594F80600F1CA82790640F1C4829CB28C
:10CC90000025EFE6059C54F8046B4FF000038DF877
:10CCA0003330002E00F08A83019A1346013300F0DE
:10CCB0000E8300213046F3F7B3FC002800F0D9833F
:10CCC000831B029300230594019390E6059C0122A7
:10CCD00054F8043B00924FF000018DF833108DF8AA
:10CCE00084300594029221AE2FE700F0BBFD6FE582
:10CCF000059B53F8042B0392002A80F27682039A54
:10CD00000593524203929AF8003047F00407B4E5C5
:10CD10009AF800308DF83350AFE59AF8003047F0BC
:10CD20008007AAE5514611F8013B2A2B00F0D28377
:10CD3000A3F13002092A8A4698BF002100F2A48399
:10CD40001AF8013B01EB810102EB4101A3F1300232
:10CD5000092AF5D9019192E59AF8003047F00107C8
:10CD60008BE59DF83330002B7FF40DAE20238DF83A
:10CD700033309AF8003080E59AF800306C2B03BF0E
:10CD80009AF8013047F020070AF1010A47F010072E
:10CD900073E59AF80030682B03BF9AF8013047F426
:10CDA00000770AF1010A47F0400766E547F01003F3
:10CDB0000093009B9B0640F1EE81059C073424F014
:10CDC0000703F3E802450593012357E6059C54F851
:10CDD000043B059447F63002ADF834201C4647F07A
:10CDE0000202B44B089300920025022346E6B906DE
:10CDF00000F12082FA0600F1D9827B0600F11D8342
:10CE0000BE0540F1D382059C049A54F8043B059476
:10CE10001A700EE50097012B3FF4DCAD022B3AAE01
:10CE200013D10898230904F00F0143EA05732A0976
:10CE30001C461546435C06F8013D54EA0503F1D152
:10CE4000009F3AAB9B1B0293D1E5E20842EA457290
:10CE5000E90804F007030D461446303354EA05018F
:10CE6000324606F8013DF0D1009FFC07E9D5302B92
:10CE7000E6D03023023A06F8013C3AAB9B1A009FF9
:10CE800002931646B3E5029B1293CDE910360122B8
:10CE90000F920DF1440808F10808BEE6039B0098C4
:10CEA0001C1A002C7FF79BAE102C834D40F310838F
:10CEB000634606E0901C08F108080A46103C102C56
:10CEC0001DDD511C1033102007291093C8F80050A5
:10CED000C8F804000F91EDDD0EAA49465846002B14
:10CEE00075D0FFF729FC00287FF412AEDDE90F238F
:10CEF000103C102C02F101000DF14408E1DC9C46CD
:10CF0000A4440728C8E90054CDF840C00F9040F36E
:10CF10007D81BCF1000F00F07F820EAA4946584681
:10CF2000FFF70AFC00287FF4F3ADDDE90130DDE90D
:10CF30000F2C1C1A002C02F101010DF144087FF79F
:10CF400054AE102C5C4DC8BF634607DC24E0911C36
:10CF500008F108080246103C102C1CDD501C103350
:10CF6000102107281093C8F80050C8F804100F903B
:10CF7000EDDD0EAA49465846DBB1FFF7DDFB002880
:10CF80007FF4C6ADDDE90F23103C102C02F1010146
:10CF90000DF14408E2DC9C46A4440729C8E900548A
:10CFA000CDF840C00F9100F3CD8008F108080131A1
:10CFB0001BE601211A460DF14408CCE70EAA4946AA
:10CFC0005846FFF7B9FB00283FF43AAEA0E5012030
:10CFD0001A460DF1440871E7BCF1000F00F0C4805F
:10CFE0000EAA49465846FFF7A7FB00287FF490ADEC
:10CFF000DDE90F2C0DF14408511CCFE502230DAAE9
:10D00000CDE911239C4601210DF144080A4608F19F
:10D010000808511CDFE5102C40F33182DDE90F03D5
:10D02000264D06E0821C08F108080846103C102C2A
:10D030001CDD411C1033102207291093C8F8005042
:10D04000C8F804200F91EDDD0EAA49465846DBB121
:10D05000FFF772FB00287FF45BADDDE90F03103CA6
:10D06000102C00F101020DF14408E2DC04EB030C8A
:10D07000072AC8E90054CDF840C00F9200F3A380FE
:10D0800008F10808511C76E5184601220DF1440804
:10D09000CCE778070F934CD5039A0099541A002CCB
:10D0A00047DD0DF14408102C40F3F2810F99034D38
:10D0B00010260CE0D4E40008A4E7000894E7000878
:10D0C000881C08F108081146103C102C19DD4A1C78
:10D0D0001033072AC8E9005610930F92F0DD0EAA0C
:10D0E0004946584603B3FFF727FB00287FF410ADED
:10D0F000DDE90F13103C102C01F101000DF1440883
:10D10000E5DC23440728C8E9005410930F907FF70B
:10D110008CAD73B10EAA49465846FFF70DFB0028A7
:10D120007FF4F6AC109B80E5012019460DF1440810
:10D13000CAE7DDE9032300998A42ACBF9B185B185C
:10D1400004937DE5BCF1000F3FF49DAE0EAA494665
:10D150005846FFF7F1FA00287FF4DAACDDE90F1C3E
:10D160000DF14408013140E5079B002B40F085801C
:10D17000012162460DF144082DE50F920DF144089E
:10D18000AFE4019B002B7FF42AAC009F0023CDE984
:10D1900001333AAE2BE4009BDF0657D4009B5E06BA
:10D1A00040F11681059C54F8042B0594012394B298
:10D1B000002563E42D2364428DF8333065EB45058B
:10D1C000009701235EE4BCF1000F00F089800EAAF5
:10D1D00049465846FFF7B0FA00287FF499ACDDE9DC
:10D1E0000F2C0DF14408511CC5E405939AF800304A
:10D1F000FFF743BB3AAEFFF7FABBD9F85800FEF78A
:10D20000BFFAB9F90C108AB2FFF7ECBA08F10808B6
:10D21000411C0246E3E4BA0500F121811C460025C9
:10D2200028E4B80500F11481E517059322462B4642
:10D23000FFF7C0BB049B059CDD1754F8041B059445
:10D240001A462B46C1E90023FFF7F3BA059C54F8B0
:10D25000042B05940123144600250FE4099B002BA1
:10D260003FF491AB099B1B78002B3FF48CAB9AF8F1
:10D27000003047F48067FFF700BB02230DA9CDE91A
:10D2800011139C460DF14408C1E6009791E5974AB9
:10D290000892BD06059C31D5073424F00702F2E858
:10D2A00002450592FE0709D554EA050206D0302250
:10D2B0008DF8353047F002078DF8342027F480636D
:10D2C00000930223FFF7DABB894A0892E1E7304670
:10D2D000F3F736F90023059402900193FFF787BB1B
:10D2E0009DF83320002A40F09D80079B002B7FF49F
:10D2F00085AE624601210DF1440870E454F8042B18
:10D300000594FC0607D4780602D594B20025C9E737
:10D31000B90500F19A8014460025C3E7009BCDF8BB
:10D32000088003F48063CDF818A00027DDF824A05E
:10D330003AAE984607E0F2F783FF002D08BF0A2CAB
:10D340001FD304460D460A22002320462946F2F741
:10D3500077FF94460CF1300C06F801CC20462946A4
:10D360000A2200230137013EB8F1000FE3D09AF8FA
:10D3700000C0BC45DFD1FF2FDDD09D4208BF9442E5
:10D3800036D23AAB9B1BDDF80880CDF824A0009F75
:10D39000DDF818A00293FFF72ABB0097FFF71ABB2E
:10D3A000012B00977FF43AADFFF719BB059C049A57
:10D3B00054F8043B1A600594FFF73BBA019B4D4EAD
:10D3C0000594062B28BF062302930093FFF7BDBBED
:10D3D000059C009B54F8042B059413F4007F18BFA0
:10D3E000D4B24FF0010308BF14460025FFF746BB37
:10D3F0000B9B0A99F61A1A463046FEF7CDFD9AF8AD
:10D4000001300BB10AF1010A0A2200232046294605
:10D410000027F2F715FF94E7012162460DF1440859
:10D42000FFF7DDBB01220DF1330011461292944645
:10D4300011900DF14408FFF7ADBB059C049A54F818
:10D44000043B05941A80FFF7F4B9D4B2002529E70C
:10D4500064B2E517059322462B46FFF7ABBADCB260
:10D460000025FFF707BBD9F85800FEF78BF9FFF747
:10D47000E7BA019B029305940190FFF7B8BADDE982
:10D480000F231D4D0132F1E500220192FFF7F7B99C
:10D490000F98194D013034E618EE100A0EAA4946CD
:10D4A000FFF74AF900283FF431ABFFF731BBD9F859
:10D4B0006430DC0707D4B9F80C30980503D4D9F8E8
:10D4C0005800FEF75FF94FF0FF330493FFF72BBBD3
:10D4D000084615E5059A9AF8013052F8040B0592B2
:10D4E0008A4640EAE0710191FFF7C7B9E8E4000815
:10D4F000D4E40008FCE4000894E70008F0B50C460A
:10D500008989656EB4F80EC0E769ADF2744D21F0FB
:10D5100002010646ADF814100020616A1B950B91BC
:10D520001CAD4FF48061089018A8CDE90032ADF829
:10D5300016C002950695049107910997FEF71CF90C
:10D54000DDE9003202A93046FFF732F9051E07DB9C
:10D55000304602A900F02AF9002818BF4FF0FF3525
:10D56000BDF814305B0603D5A38943F04003A381C3
:10D570001898FEF703F928460DF2744DF0BD00BF70
:10D5800049B1FF2A02D80A70012070478A2303603C
:10D590004FF0FF3070470846704700BF38B5324B38
:10D5A0001B6805460C4613B19A6B002A3CD0B4F9AF
:10D5B0000C3018079AB20CD52169A9B112F00100FC
:10D5C00022D0606900254042A061A56011B300200F
:10D5D00038BDD10640D552072AD4216943F008034B
:10D5E000A3819AB20029E9D102F42070B0F5007F3E
:10D5F000E4D02846214600F0B5FBB4F90C3021698F
:10D600009AB212F00100DCD1950758BF6069A060A2
:10D610000029DCD1120658BF0846D9D543F0400393
:10D62000A3814FF0FF3038BD184600F01BF9BEE76C
:10D63000216B51B104F14002914204D02846FDF71C
:10D6400093FFB4F90C30002222632169216000228B
:10D65000626023F02403C1E743F0400309222A60FB
:10D660004FF0FF30A38138BD2401002008B506200B
:10D67000FEF772FC012000F097FD00BFB1F90C200D
:10D680002DE9F0410D461107804647D46B6842F4FE
:10D690000062002BAA815DDDAC6A002C57D000230C
:10D6A000D8F80060C8F8003093B212F4805255D117
:10D6B0000123E9694046A047431C66D0AB89AC6AA8
:10D6C0005F0705D56A682B6B801A0BB1EB6BC01A2C
:10D6D000E969024600234046A047411C40D1D8F8E2
:10D6E0000030002B3CD01D2B01D0162B55D1AB891F
:10D6F0002A692A6023F400630022AB816A60296BE7
:10D70000C8F8006019B305F14003994202D04046C1
:10D71000FDF72AFF00202863BDE8F0812F69B7B12B
:10D7200093B22E682F609A070CBF6B690023F61B1B
:10D73000AB600AE06C6AE96933463A464046A04766
:10D74000041EA6EB0406274417DD002EF2DC0020A1
:10D75000BDE8F081EB6B002B9EDCF8E7286DAFE7AE
:10D76000B5F90C302A692A6023F400630022AB81EA
:10D77000DB046A60C3D52865C1E7AB8943F0400389
:10D78000AB814FF0FF30BDE8F081D8F80030002BBE
:10D7900094D01D2B06D0162B04D0AB8943F0400348
:10D7A000AB81D5E7C8F80060D1E700BF38B50C46BB
:10D7B000054608B1836BA3B1B4F90C00B8B1636E30
:10D7C000DB0701D4810515D528462146FFF756FF12
:10D7D000636EDA07054602D4A3899B050ED5284659
:10D7E00038BD00F03FF8B4F90C000028E7D1054639
:10D7F000284638BDA06DFDF7C3FFE5E7A06DFDF736
:10D80000C1FF284638BD00BF10B500230446C0E95B
:10D810000033C0E904338181C28183604366836140
:10D82000194608225C30FAF785FF07480749084A7D
:10D83000084BE362C4E90740C4E9091204F1580047
:10D84000BDE81040FDF798BFFDDD000821DE0008AF
:10D8500061DE000881DE0008014900F031BA00BF36
:10D8600099DF000810B504461148FDF789FFA26B47
:10D87000C2B904F53B730F48C4F8E0220321C4E9A0
:10D88000B913E06304216068FFF7BEFFA0680122BE
:10D890000921FFF7B9FFE06802221221FFF7B4FF68
:10D8A0000123A363BDE810400148FDF76BBF00BF33
:10D8B0007419002059D800080148FDF761BF00BF66
:10D8C000881900200148FDF75DBF00BF88190020BE
:10D8D0002DE9F04782B0804689461446FEF7B4FC35
:10D8E000012803D109F1FF33FE2B36D94A4604F152
:10D8F0005C0301A9404600F01FFB421C064632D0E3
:10D9000030B39DF804C000250DF1040A09E0236836
:10D910005A1C226083F800C00135B54218D215F8B0
:10D920000AC0A368013B002BA360F0DAA769BB42E1
:10D9300061462246404602DBBCF10A0FE7D100F007
:10D94000A3FA431CE8D10646304602B0BDE8F08792
:10D950004E46304602B0BDE8F0875FFA89FC0646C5
:10D960008DF804C0CFE7A389304643F04003A3817C
:10D9700002B0BDE8F08700BF30B5536E13F0010F61
:10D98000B2F90C30144683B005469AB201D198051D
:10D990001CD5900406D4626E43F4005342F4005246
:10D9A000A381626628462246FFF792FF636EDA077C
:10D9B000054602D4A3899B0502D5284603B030BD95
:10D9C000A06DFDF7DFFE284603B030BDA06D0191CC
:10D9D000FDF7D6FEB4F90C3001999AB2D9E700BF31
:10D9E0009368002B00F08A802DE9F04F9046B1F942
:10D9F0000C200C46110783B0814693B225D52269CD
:10DA00001AB313F00207D8F800502DD00026DFF823
:10DA1000ACB23746AA465F453B46324628BF5B4616
:10DA20004846002F4FD0E169656AA84700285BDDB2
:10DA3000D8F808301B1A06443F1AC8F80830002BE3
:10DA4000E9D1002003B0BDE8F08F21464846FFF73A
:10DA5000A5FD002840F02F81B4F90C20D8F8005023
:10DA600093B213F00207D1D113F0010A48D1564600
:10DA70002EB39A05A76840F18C80B742BB4600F2EE
:10DA8000B78013F4906F40F0CB80206851465A461F
:10DA9000FEF7F6FBA1682368C91B5B443746A1600B
:10DAA00023600026D8F80830DB1BBA44C8F80830D9
:10DAB000002BC6D0B4F90C309BB2002ED9D1D5E9D9
:10DAC00000A60835D4E7DAE900670AF1080AA2E7F8
:10DAD00029465A46FEF7D4FB23685B44236021465F
:10DAE0004846FFF763FE58B3B4F90C3043F04003E7
:10DAF0004FF0FF30A38103B0BDE8F08F00207047E6
:10DB00003E46AA4638463D4600976EB3002833D0BD
:10DB1000009A2068D4E90413B24228BF32468842F2
:10DB200004D9A16803EB010B5A45D1DC93426ADCAE
:10DB3000E169676A2A464846B847B0F1000BD3DD71
:10DB4000009BB3EB0B03009356D00120D8F80830AC
:10DB5000A3EB0B035D44A6EB0B06C8F80830002BC3
:10DB60003FF46FAF002ED1D10AF1080353E90256FA
:10DB70009A460833002EF9D032460A212846F2F799
:10DB80004FFD002800F08E800130431B00931A46A1
:10DB9000BFE720682369984214D86169B14211D85F
:10DBA0006FF00043B34228BF3346676A93FBF1F33B
:10DBB000524601FB03F34846E169B847071E93DD6F
:10DBC000F61B6FE7B74228BF37463A465146FEF785
:10DBD00057FBA3682268DB1B3A44A3602260002B3A
:10DBE000EED121464846FFF7E1FD0028E8D07BE76B
:10DBF00020683746B34649E721464846FFF7D6FD39
:10DC00000028A3D070E729460192FEF739FB019A5C
:10DC1000A1682368891A1344A160236093468FE7A3
:10DC2000D4E90417226807EB4707A2EB010B07EBC7
:10DC3000D7770BF101007F103044B8423A4684BFD9
:10DC400007463A465B051BD511464846FAF7B8FA2F
:10DC500058B35A4621690090F2F732FDA289009B21
:10DC600022F4906242F08002A281A7EB0B0203EB48
:10DC70000B00676123612060A2603746B34605E769
:10DC80004846FEF769FB03460028EED12169484665
:10DC9000FDF76AFCB4F90C300C2223F08003C9F8BC
:10DCA000002023E7721C009233E70C23C9F80030F0
:10DCB000B4F90C301AE74FF0FF30C3E600FCFF7FE9
:10DCC0002DE9F8430746884600F538764FF00009FD
:10DCD000D6E90154013D11D4A389012B05F1FF358B
:10DCE00008D9B4F90E30013304D021463846C04774
:10DCF00049EA00096B1C04F16804EDD13668002E76
:10DD0000E6D14846BDE8F88370B50C46B1F90E106F
:10DD1000002996B015461E4614DB6A4600F0A2F9AB
:10DD200000280FDB019A02F47042A2F50052B2FA09
:10DD300082F252094FF480634FF4006032602B602E
:10DD400016B070BDA189002311F08000336004D0AB
:10DD5000402218462A6016B070BD4FF480632B60D5
:10DD600016B070BD70B58B899D0782B00C4607D583
:10DD700001F143030122C1E904320B6002B070BD1E
:10DD800001AB6A460646FFF7BFFF009905463046DD
:10DD9000FAF716FA80B1B4F90C20174BF363019926
:10DDA000206042F08003009AA381C4E9040299B97B
:10DDB0002B43A38102B070BDB4F90C309A05DDD4B9
:10DDC00023F0030304F1430243F002030121C4E9F9
:10DDD0000421A3812260D1E7B4F90E10304600F08F
:10DDE00057F910B9B4F90C30E2E7A28922F0030226
:10DDF00042F0010213B2DBE759D8000810B50C4617
:10DE0000B1F90E1000F06CF9002803DB236D034418
:10DE1000236510BDA38923F48053A38110BD00BFE7
:10DE20002DE9F041B1F90C509846EB050C46174628
:10DE300006460BD425F48055B4F90E10A58143464F
:10DE40003A463046BDE8F041FCF7D2BAB1F90E10BF
:10DE50000223002200F02EF9B4F90C50EAE700BFCB
:10DE600010B50C46B1F90E1000F024F9A389421C3C
:10DE70000EBF23F4805343F480532065A38110BD6B
:10DE8000B1F90E1000F076B8F8B50D461446064606
:10DE900010B1836B002B43D0B4F90C20A369A360AD
:10DEA000170790B21BD52369CBB1EDB281042F4681
:10DEB00022D522686169D31A994229DD0133A1680C
:10DEC000501C0139A1602060157062699A422AD005
:10DED000A389DB0701D50A2D25D03846F8BD214698
:10DEE0003046FFF75BFB20BBB4F90C20236990B2EE
:10DEF000EDB281042F46DCD4616E42F4005221F46D
:10DF00000051A281226861666169D31A9942D5DC09
:10DF100021463046FFF74AFC58B922680123CEE774
:10DF2000FFF7A0FCB8E721463046FFF73FFC00288A
:10DF3000D3D04FF0FF37D0E770B5064684B01D460A
:10DF400039B10B4CD4F8E040A047431C0AD004B0D0
:10DF500070BD0C4606492246D1F8E04001A9A04711
:10DF6000431CF4D100228A232A60336004B070BDC0
:10DF70006409002038B5074D0022044608462A608F
:10DF800000F0C4F8431C00D038BD2B68002BFBD038
:10DF9000236038BD8C19002070B500294BD00C4689
:10DFA000054610B1836B002B48D0636ED80734D57B
:10DFB000B4F90C30002B3ED021462846FFF75EFB1B
:10DFC000E36A064633B1E169284698470028B8BF9E
:10DFD0004FF0FF36A3891A063BD4216B41B104F1FF
:10DFE0004003994202D02846FDF7BEFA002323637E
:10DFF000616C21B12846FDF7B7FA00236364FFF78F
:10E000005BFC636E0022DB07A28127D5A06DFDF7C4
:10E01000B5FBFFF757FC304670BDA3899905CBD4FB
:10E02000A06DFDF7ADFBB4F90C30002BC4D1666ECA
:10E0300016F0010608D00026304670BDFFF712FC2E
:10E04000636ED807B4D4E8E7A06DFDF79BFB3046BC
:10E0500070BD21692846FDF787FABEE7A06DFDF780
:10E0600091FBD3E738B50C46084D034611462046D0
:10E0700000221C462A6000F051F8431C00D038BD35
:10E080002B68002BFBD0236038BD00BF8C1900200B
:10E0900038B5074D0022044608462A6000F04EF8C5
:10E0A000431C00D038BD2B68002BFBD0236038BD4B
:10E0B0008C19002070B50C46084D114600261A46F2
:10E0C000034620462E601C4600F048F8431C00D052
:10E0D00070BD2B68002BFBD0236070BD8C19002015
:10E0E00070B50C46084D114600261A4603462046D8
:10E0F0002E601C4600F03AF8431C00D070BD2B681F
:10E10000002BFBD0236070BD8C190020024B5822DD
:10E110001A604FF0FF3070478C190020024B5822D4
:10E120001A604FF0FF3070478C190020024B5822C4
:10E130001A604FF0FF3070478C190020024B5822B4
:10E140001A600020704700BF8C190020024B582233
:10E150001A604FF0FF3070478C190020024B582294
:10E160001A604FF0FF3070478C190020024B582284
:10E170001A604FF0FF3070478C190020044A05499F
:10E180001368002B08BF0B461844106018467047F0
:10E19000340F002090190020024B58221A604FF0D3
:10E1A000FF3070478C190020FEE700BFF8B500BFB4
:10E1B000F8BC08BC9E467047F8B500BFF8BC08BC68
:04E1C0009E467047C0
:10E1C800300F0020300F002063686972703A307891
:10E1D800253038583B30782530385800300F00202B
:10E1E800300F0020000000000000000001020304BE
:10E1F80006070809300F0020300F002053695261CC
:10E20800642041444320626F6172642076310000CB
:10E2180053544D6963726F656C656374726F6E6990
:10E2280063730000526164617220354D737073200E
:10E2380041444300437573746F6D20496E74657271
:10E248006661636500000000447269766572732F29
:10E2580053544D3332463778785F48414C5F4472A7
:10E26800697665722F5372632F73746D3332663714
:10E2780078785F68616C5F636F727465782E63008D
:10E28800447269766572732F53544D33324637782A
:10E29800785F48414C5F4472697665722F537263A8
:10E2A8002F73746D3332663778785F68616C5F649A
:10E2B8006D612E630000000000061016000610169F
:10E2C800447269766572732F53544D3332463778EA
:10E2D800785F48414C5F4472697665722F53726368
:10E2E8002F73746D3332663778785F68616C5F645A
:10E2F8006D615F65782E6300447269766572732F6D
:10E3080053544D3332463778785F48414C5F4472F6
:10E31800697665722F5372632F73746D3332663763
:10E3280078785F68616C5F6770696F2E63000000C2
:10E33800447269766572732F53544D333246377879
:10E34800785F48414C5F4472697665722F537263F7
:10E358002F73746D3332663778785F68616C5F70DD
:10E3680063642E6300000000447269766572732F3F
:10E3780053544D3332463778785F48414C5F447286
:10E38800697665722F5372632F73746D33326637F3
:10E3980078785F68616C5F7263632E6300000000C9
:10E3A800447269766572732F53544D333246377809
:10E3B800785F48414C5F4472697665722F53726387
:10E3C8002F73746D3332663778785F68616C5F726B
:10E3D80063635F65782E6300447269766572732F94
:10E3E80053544D3332463778785F48414C5F447216
:10E3F800697665722F5372632F73746D3332663783
:10E4080078785F68616C5F7370692E630000000044
:10E41800447269766572732F53544D333246377898
:10E42800785F48414C5F4472697665722F53726316
:10E438002F73746D3332663778785F68616C5F74F8
:10E44800696D2E6300000000447269766572732F4F
:10E4580053544D3332463778785F48414C5F4472A5
:10E46800697665722F5372632F73746D3332663712
:10E4780078785F68616C5F74696D5F65782E63009A
:10E48800300F0020300F0020280100202A2A2A20DF
:10E49800737461636B20736D617368696E67206460
:10E4A80065746563746564202A2A2A3A2074657243
:10E4B8006D696E617465640A00000000494E46008B
:10E4C800696E66004E414E006E616E003031323327
:10E4D8003435363738396162636465660000000098
:10E4E8003031323334353637383941424344454682
:10E4F80000000000286E756C6C29000030000000D8
:10E508002020202020202020202020202020202003
:10E5180030303030303030303030303030303030F3
:10E528004E614E00496E66696E697479000000009C
:10E5380042616C6C6F6320737563636565646564C1
:10E54800000000002F6D6E742F776F726B7370610F
:10E5580063652F776F726B73706163652F474343F1
:10E568002D392D706970656C696E652F6A656E6BE3
:10E57800696E732D4743432D392D706970656C6939
:10E588006E652D3230305F32303230303532315FA7
:10E59800313539303035333337342F7372632F6E5A
:10E5A80065776C69622F6E65776C69622F6C69623A
:10E5B800632F7374646C69622F64746F612E6300D7
:10E5C8002F6D6E742F776F726B73706163652F7721
:10E5D8006F726B73706163652F4743432D392D70DC
:10E5E8006970656C696E652F6A656E6B696E732DEF
:10E5F8004743432D392D706970656C696E652D32FE
:10E6080030305F32303230303532315F3135393089
:10E618003035333337342F7372632F6E65776C69F7
:10E62800622F6E65776C69622F6C6962632F7374F1
:10E63800646C69622F6D707265632E630000000060
:10E648000080E03779C34143176E05B5B5B89346E6
:10E65800F5F93FE9034F384D321D30F94877825AB2
:10E668003CBF737FDD4F1575000000000000F03FD0
:10E678000000000000002440000000000000594095
:10E688000000000000408F40000000000088C340E8
:10E6980000000000006AF8400000000080842E415D
:10E6A80000000000D01263410000000084D79741A9
:10E6B8000000000065CDCD41000000205FA00242AF
:10E6C800000000E876483742000000A2941A6D4224
:10E6D800000040E59C30A2420000901EC4BCD64217
:10E6E80000003426F56B0C430080E03779C34143C2
:10E6F80000A0D8855734764300C84E676DC1AB4338
:10E70800003D9160E458E143408CB5781DAF154455
:10E7180050EFE2D6E41A4B4492D54D06CFF0804430
:10E72800F64AE1C7022DB544B49DD9794378EA4445
:10E7380005000000190000007D0000002C2066750F
:10E748006E6374696F6E3A20000000006173736530
:10E758007274696F6E2022257322206661696C6568
:10E76800643A2066696C6520222573222C206C6926
:10E778006E65202564257325730A00004300000098
:10E78800504F5349580000002E0000002020202040
:10E798002020202020202020202020203030303031
:10E7A80030303030303030303030303000202020C1
:10E7B8002020202020202828282828202020202029
:10E7C80020202020202020202020202020881010F9
:10E7D8001010101010101010101010101004040455
:10E7E8000404040404040410101010101010414113
:10E7F8004141414101010101010101010101010101
:10E808000101010101010101101010101010424214
:10E8180042424242020202020202020202020202D0
:10E828000202020202020202101010102000000070
:10E8380000000000000000000000000000000000D0
:10E8480000000000000000000000000000000000C0
:10E8580000000000000000000000000000000000B0
:10E8680000000000000000000000000000000000A0
:10E878000000000000000000000000000000000090
:10E888000000000000000000000000000000000080
:10E898000000000000000000000000000000000070
:10E8A8000000000000000000000000000000000060
:08E8B800B819FF7F0100000008
:0CE8C0001DA4000825020008558800086F
:04E8CC00010200083D
:10E8D0000024F40005010902A1010901A1000509B4
:10E8E0001901290315002501950375018102950180
:10E8F0007505810105010930093109381581257F28
:10E90000750895038106C0093C05FF09011500251E
:10E910000175019502B12275069501B101C0000093
:10E9200081200008412000080D1F000800000000A1
:10E9300000000000E91E0008F31E000800000000AF
:10E940000000000000000000D11E0008C51E0008E5
:10E95000DD1E0008011F000809022E00010100E071
:10E96000FA0904000004FFFFFF000705810200020E
:10E970000A0705010200020A0705820200020A07CF
:10E9800005830200020A0000092111010001224A48
:10E99000000000000A060002000000400100000024
:10E9A000E1200008ED200008912100086D210008F9
:10E9B00031210008AD210008D12100081201000218
:10E9C00000000040830450570002010203010000D0
:10E9D000040309041A030000000000000000000006
:10E9E0000000000000000000000000000000010026
:10E9F0001000000028010020000000001404002086
:10EA00007C040020E404002000000000000000005E
:10EA100000000000000000000000000000000000F6
:10EA200000000000000000000000000000000000E6
:10EA300000000000000000000000000000000000D6
:10EA400000000000000000000000000000000000C6
:10EA500000000000000000000000000000000000B6
:10EA600000000000000000000000000000000000A6
:10EA70000000000000000000000000000000000096
:10EA80000000000000000000000000000000000086
:10EA90000000000000000000000000000000000076
:10EAA00001000000000000000E33CDAB34126DE613
:10EAB000ECDE05000B00000000000000000000007C
:10EAC0000000000000000000000000000000000046
:10EAD0000000000000000000000000000000000036
:10EAE0000000000000000000000000000000000026
:10EAF0000000000000000000000000000000000016
:10EE200000000000000000005005002050050020F8
:10EE300058050020580500206005002060050020CE
:10EE4000680500206805002070050020700500207E
:10EE5000780500207805002080050020800500202E
:10EE600088050020880500209005002090050020DE
:10EE70009805002098050020A0050020A00500208E
:10EE8000A8050020A8050020B0050020B00500203E
:10EE9000B8050020B8050020C0050020C0050020EE
:10EEA000C8050020C8050020D0050020D00500209E
:10EEB000D8050020D8050020E0050020E00500204E
:10EEC000E8050020E8050020F0050020F0050020FE
:10EED000F8050020F80500200006002000060020AC
:10EEE000080600200806002010060020100600205A
:10EEF000180600201806002020060020200600200A
:10EF000028060020280600203006002030060020B9
:10EF10003806002038060020400600204006002069
:10EF20004806002048060020500600205006002019
:10EF300058060020580600206006002060060020C9
:10EF40006806002068060020700600207006002079
:10EF50007806002078060020800600208006002029
:10EF600088060020880600209006002090060020D9
:10EF70009806002098060020A0060020A006002089
:10EF8000A8060020A8060020B0060020B006002039
:10EF9000B8060020B8060020C0060020C0060020E9
:10EFA000C8060020C8060020D0060020D006002099
:10EFB000D8060020D8060020E0060020E006002049
:10EFC000E8060020E8060020F0060020F0060020F9
:10EFD000F8060020F80600200007002000070020A7
:10EFE0000807002008070020100700201007002055
:10EFF0001807002018070020200700202007002005
:10F0000028070020280700203007002030070020B4
:10F010003807002038070020400700204007002064
:10F020004807002048070020500700205007002014
:10F0300058070020580700206007002060070020C4
:10F040006807002068070020700700207007002074
:10F050007807002078070020800700208007002024
:10F0600088070020880700209007002090070020D4
:10F070009807002098070020A0070020A007002084
:10F08000A8070020A8070020B0070020B007002034
:10F09000B8070020B8070020C0070020C0070020E4
:10F0A000C8070020C8070020D0070020D007002094
:10F0B000D8070020D8070020E0070020E007002044
:10F0C000E8070020E8070020F0070020F0070020F4
:10F0D000F8070020F80700200008002000080020A2
:10F0E0000808002008080020100800201008002050
:10F0F0001808002018080020200800202008002000
:10F1000028080020280800203008002030080020AF
:10F11000380800203808002040080020400800205F
:10F12000480800204808002050080020500800200F
:10F1300058080020580800206008002060080020BF
:10F14000680800206808002070080020700800206F
:10F15000780800207808002080080020800800201F
:10F1600088080020880800209008002090080020CF
:10F170009808002098080020A0080020A00800207F
:10F18000A8080020A8080020B0080020B00800202F
:10F19000B8080020B8080020C0080020C0080020DF
:10F1A000C8080020C8080020D0080020D00800208F
:10F1B000D8080020D8080020E0080020E00800203F
:10F1C000E8080020E8080020F0080020F0080020EF
:10F1D000F8080020F808002000090020000900209D
:10F1E000080900200809002010090020100900204B
:10F1F00018090020180900202009002020090020FB
:10F2000028090020280900203009002030090020AA
:10F21000380900203809002040090020400900205A
:10F220004809002048090020FFFFFFFF00000200FE
:10F2300068190020430000000000000000000000EA
:10F2400000000000000000000000000000000000BE
:10F25000000000004300000000000000000000006B
:10F26000000000000000000000000000000000009E
:10F27000000000004300000000000000000000004B
:10F28000000000000000000000000000000000007E
:10F29000000000004300000000000000000000002B
:10F2A000000000000000000000000000000000005E
:10F2B000000000004300000000000000000000000B
:10F2C000000000000000000000000000000000003E
:10F2D00000000000430000000000000000000000EB
:10F2E000000000000000000000000000000000001E
:10F2F00000000000430000000000000000000000CB
:10F3000000000000000000000000000000000000FD
:10F310000000000081D5000855C200080000000070
:10F32000B4E7000890E70008C0E40008C0E4000863
:10F33000C0E40008C0E40008C0E40008C0E400081D
:10F34000C0E40008C0E40008C0E40008FFFFFFFFBD
:10F35000FFFFFFFFFFFFFFFFFFFF00000100415322
:10F3600043494900000000000000000000000000C8
:10F3700000000000000000000000000000004153F9
:10F3800043494900000000000000000000000000A8
:10F39000000000000000000000000000000000006D
:10F3A000000000000000000000000000000000005D
:10F3B000000000000000000000000000000000004D
:10F3C000000000000000000000000000000000003D
:020000040802F0
:040000050800810569
:00000001FF
